{"contracts/Lottery.sol":{"Lottery":{"abi":[{"inputs":[{"internalType":"address","name":"_manager","type":"address"}],"stateMutability":"nonpayable","type":"constructor"},{"anonymous":false,"inputs":[{"indexed":false,"internalType":"uint256","name":"amount","type":"uint256"}],"name":"CommissionWithdrawn","type":"event"},{"anonymous":false,"inputs":[{"indexed":true,"internalType":"address","name":"previousOwner","type":"address"},{"indexed":true,"internalType":"address","name":"newOwner","type":"address"}],"name":"OwnershipTransferred","type":"event"},{"anonymous":false,"inputs":[{"indexed":false,"internalType":"address","name":"winner","type":"address"},{"indexed":false,"internalType":"uint256","name":"winningPrize","type":"uint256"}],"name":"WinnerDeclared","type":"event"},{"inputs":[{"internalType":"uint256","name":"_newFee","type":"uint256"}],"name":"changeEntryFee","outputs":[],"stateMutability":"nonpayable","type":"function"},{"inputs":[],"name":"commissionBasisPoints","outputs":[{"internalType":"uint256","name":"","type":"uint256"}],"stateMutability":"view","type":"function"},{"inputs":[],"name":"end","outputs":[],"stateMutability":"nonpayable","type":"function"},{"inputs":[],"name":"endTime","outputs":[{"internalType":"uint256","name":"","type":"uint256"}],"stateMutability":"view","type":"function"},{"inputs":[],"name":"enter","outputs":[],"stateMutability":"payable","type":"function"},{"inputs":[],"name":"entryFee","outputs":[{"internalType":"uint256","name":"","type":"uint256"}],"stateMutability":"view","type":"function"},{"inputs":[],"name":"getAllPlayers","outputs":[{"internalType":"address[]","name":"","type":"address[]"}],"stateMutability":"view","type":"function"},{"inputs":[],"name":"getRemainingTime","outputs":[{"internalType":"uint256","name":"","type":"uint256"}],"stateMutability":"view","type":"function"},{"inputs":[],"name":"lotteryStatus","outputs":[{"internalType":"enum Lottery.LotteryStatus","name":"","type":"uint8"}],"stateMutability":"view","type":"function"},{"inputs":[],"name":"manager","outputs":[{"internalType":"address","name":"","type":"address"}],"stateMutability":"view","type":"function"},{"inputs":[],"name":"owner","outputs":[{"internalType":"address","name":"","type":"address"}],"stateMutability":"view","type":"function"},{"inputs":[{"internalType":"uint256","name":"","type":"uint256"}],"name":"players","outputs":[{"internalType":"address","name":"","type":"address"}],"stateMutability":"view","type":"function"},{"inputs":[],"name":"renounceOwnership","outputs":[],"stateMutability":"nonpayable","type":"function"},{"inputs":[{"internalType":"uint256","name":"_basisPoints","type":"uint256"}],"name":"setCommissionBasisPoints","outputs":[],"stateMutability":"nonpayable","type":"function"},{"inputs":[{"internalType":"uint256","name":"_timeInMinutes","type":"uint256"}],"name":"start","outputs":[],"stateMutability":"nonpayable","type":"function"},{"inputs":[{"internalType":"address","name":"newOwner","type":"address"}],"name":"transferOwnership","outputs":[],"stateMutability":"nonpayable","type":"function"},{"inputs":[],"name":"winner","outputs":[{"internalType":"address","name":"","type":"address"}],"stateMutability":"view","type":"function"},{"inputs":[],"name":"withdrawRemainingFunds","outputs":[],"stateMutability":"nonpayable","type":"function"}],"devdoc":{"kind":"dev","methods":{"changeEntryFee(uint256)":{"details":"Change the entry fee for participating in the lottery.","params":{"_newFee":"The new entry fee in wei."}},"constructor":{"details":"Constructor function to initialize the lottery contract."},"end()":{"details":"End the lottery and select a random winner."},"enter()":{"details":"Enter the lottery by sending an entry fee."},"getAllPlayers()":{"details":"Get details of a all players.","returns":{"_0":"address[] containing players."}},"getRemainingTime()":{"details":"Get the remaining time until the lottery ends.","returns":{"_0":"The remaining time in seconds."}},"owner()":{"details":"Returns the address of the current owner."},"renounceOwnership()":{"details":"Leaves the contract without owner. It will not be possible to call `onlyOwner` functions. Can only be called by the current owner. NOTE: Renouncing ownership will leave the contract without an owner, thereby disabling any functionality that is only available to the owner."},"setCommissionBasisPoints(uint256)":{"details":"Set the commission basis points.","params":{"_basisPoints":"The new commission basis points."}},"start(uint256)":{"details":"Start the lottery with a specified duration.","params":{"_timeInMinutes":"The duration of the lottery in minutes."}},"transferOwnership(address)":{"details":"Transfers ownership of the contract to a new account (`newOwner`). Can only be called by the current owner."},"withdrawRemainingFunds()":{"details":"Allows the owner to withdraw any remaining funds after the lottery ends."}},"version":1},"evm":{"bytecode":{"linkReferences":{},"object":"608060405267016345785d8a00006002556101f460065534801561002257600080fd5b50604051611072380380611072833981016040819052610041916100ce565b61004a3361007e565b6007805460ff19166002179055600580546001600160a01b03929092166001600160a01b03199092169190911790556100fe565b600080546001600160a01b038381166001600160a01b0319831681178455604051919092169283917f8be0079c531659141344cd1fd0a4f28419497f9722a3daafe3b4186f6b6457e09190a35050565b6000602082840312156100e057600080fd5b81516001600160a01b03811681146100f757600080fd5b9392505050565b610f658061010d6000396000f3fe6080604052600436106101095760003560e01c8063e97dcb6211610095578063efbe1c1c11610064578063efbe1c1c1461028b578063f00f6921146102a0578063f2fde38b146102c0578063f71d96cb146102e0578063f7d978a21461030057600080fd5b8063e97dcb6214610237578063ef86ce8e1461023f578063efa1c48214610254578063efb98bcf1461027657600080fd5b8063715018a6116100dc578063715018a6146101ac57806389fdfd05146101c35780638da5cb5b146101d957806395805dad146101f7578063dfbf53ae1461021757600080fd5b8063072ea61c1461010e5780630d683dd9146101375780633197cbb61461015e578063481c6a7514610174575b600080fd5b34801561011a57600080fd5b5061012460025481565b6040519081526020015b60405180910390f35b34801561014357600080fd5b506007546101519060ff1681565b60405161012e9190610cf4565b34801561016a57600080fd5b5061012460045481565b34801561018057600080fd5b50600554610194906001600160a01b031681565b6040516001600160a01b03909116815260200161012e565b3480156101b857600080fd5b506101c1610320565b005b3480156101cf57600080fd5b5061012460065481565b3480156101e557600080fd5b506000546001600160a01b0316610194565b34801561020357600080fd5b506101c1610212366004610d1c565b610334565b34801561022357600080fd5b50600354610194906001600160a01b031681565b6101c1610401565b34801561024b57600080fd5b506101c161057b565b34801561026057600080fd5b50610269610646565b60405161012e9190610d35565b34801561028257600080fd5b50610124610713565b34801561029757600080fd5b506101c161075c565b3480156102ac57600080fd5b506101c16102bb366004610d1c565b6109fb565b3480156102cc57600080fd5b506101c16102db366004610d82565b610a6d565b3480156102ec57600080fd5b506101946102fb366004610d1c565b610ae6565b34801561030c57600080fd5b506101c161031b366004610d1c565b610b10565b610328610b6d565b6103326000610bc7565b565b61033c610b6d565b60028060075460ff16600281111561035657610356610cde565b1461037c5760405162461bcd60e51b815260040161037390610dab565b60405180910390fd5b600082116103d85760405162461bcd60e51b8152602060048201526024808201527f54696d65206475726174696f6e206d75737420626520677265617465722074686044820152630616e20360e41b6064820152608401610373565b6007805460ff191660011790556103fa6103f383603c610c17565b4290610c2a565b6004555050565b600160075460ff16600281111561041a5761041a610cde565b1461045d5760405162461bcd60e51b8152602060048201526013602482015272131bdd1d195c9e481b9bdd081cdd185c9d1959606a1b6044820152606401610373565b6002543410156104a35760405162461bcd60e51b8152602060048201526011602482015270456e74727920666565206973206c65737360781b6044820152606401610373565b42600454116104e25760405162461bcd60e51b815260206004820152600b60248201526a2a34b6b29034b9903ab81760a91b6044820152606401610373565b6104eb33610c36565b156105385760405162461bcd60e51b815260206004820152601d60248201527f596f752061726520616c72656164792061207061727469636970616e740000006044820152606401610373565b6001805480820182556000919091527fb10e2d527612073b26eecdfd717e6a320cf44b4afac2b0732d9fcbe2b7fa0cf60180546001600160a01b03191633179055565b610583610b6d565b60028060075460ff16600281111561059d5761059d610cde565b146105ba5760405162461bcd60e51b815260040161037390610dab565b47806106085760405162461bcd60e51b815260206004820152601e60248201527f4e6f2072656d61696e696e672066756e647320746f20776974686472617700006044820152606401610373565b600080546040516001600160a01b039091169183156108fc02918491818181858888f19350505050158015610641573d6000803e3d6000fd5b505050565b60015460609060009067ffffffffffffffff81111561066757610667610ddb565b604051908082528060200260200182016040528015610690578160200160208202803683370190505b50905060005b60015481101561070d57600181815481106106b3576106b3610df1565b9060005260206000200160009054906101000a90046001600160a01b03168282815181106106e3576106e3610df1565b6001600160a01b03909216602092830291909101909101528061070581610e1d565b915050610696565b50919050565b6000600160075460ff16600281111561072e5761072e610cde565b14156107565742600454116107435750600090565b426004546107519190610e38565b905090565b50600090565b610764610b6d565b60018060075460ff16600281111561077e5761077e610cde565b1461079b5760405162461bcd60e51b815260040161037390610dab565b4260045411156108005760405162461bcd60e51b815260206004820152602a60248201527f596f752063616e6e6f7420656e6420746865206c6f7474657279206265666f7260448201526965207468652074696d6560b01b6064820152608401610373565b6001546108415760405162461bcd60e51b815260206004820152600f60248201526e4e6f207061727469636970616e747360881b6044820152606401610373565b6007805460ff191660021790556001805460405160009261086a91449142913390602001610e4f565b6040516020818303038152906040528051906020012060001c61088d9190610ed0565b9050600181815481106108a2576108a2610df1565b6000918252602082200154600380546001600160a01b0319166001600160a01b039092169190911790556006544791906108eb90612710906108e5908590610c17565b90610ca0565b905060006108f98284610e38565b6003546040519192506001600160a01b03169082156108fc029083906000818181858888f19350505050158015610934573d6000803e3d6000fd5b5061094160016000610cac565b600354604080516001600160a01b039092168252602082018390527f3cf1af53e79884a92609ce59db1ec9f584d88e2d14c8eaba43a21db81318301e910160405180910390a16040518281527fc2bb3206848157e57e737eec7e141f06f5de585e2f1c0f0ec60a04f45a2c00319060200160405180910390a1600080546040516001600160a01b039091169184156108fc02918591818181858888f193505050501580156109f3573d6000803e3d6000fd5b505050505050565b610a03610b6d565b612710811115610a685760405162461bcd60e51b815260206004820152602a60248201527f436f6d6d697373696f6e20626173697320706f696e74732063616e6e6f7420656044820152697863656564203130302560b01b6064820152608401610373565b600655565b610a75610b6d565b6001600160a01b038116610ada5760405162461bcd60e51b815260206004820152602660248201527f4f776e61626c653a206e6577206f776e657220697320746865207a65726f206160448201526564647265737360d01b6064820152608401610373565b610ae381610bc7565b50565b60018181548110610af657600080fd5b6000918252602090912001546001600160a01b0316905081565b610b18610b6d565b60008111610b685760405162461bcd60e51b815260206004820181905260248201527f456e74727920666565206d7573742062652067726561746572207468616e20306044820152606401610373565b600255565b6000546001600160a01b031633146103325760405162461bcd60e51b815260206004820181905260248201527f4f776e61626c653a2063616c6c6572206973206e6f7420746865206f776e65726044820152606401610373565b600080546001600160a01b038381166001600160a01b0319831681178455604051919092169283917f8be0079c531659141344cd1fd0a4f28419497f9722a3daafe3b4186f6b6457e09190a35050565b6000610c238284610ee4565b9392505050565b6000610c238284610f03565b6000805b600154811015610c9757826001600160a01b031660018281548110610c6157610c61610df1565b6000918252602090912001546001600160a01b03161415610c855750600192915050565b80610c8f81610e1d565b915050610c3a565b50600092915050565b6000610c238284610f1b565b5080546000825590600052602060002090810190610ae391905b80821115610cda5760008155600101610cc6565b5090565b634e487b7160e01b600052602160045260246000fd5b6020810160038310610d1657634e487b7160e01b600052602160045260246000fd5b91905290565b600060208284031215610d2e57600080fd5b5035919050565b6020808252825182820181905260009190848201906040850190845b81811015610d765783516001600160a01b031683529284019291840191600101610d51565b50909695505050505050565b600060208284031215610d9457600080fd5b81356001600160a01b0381168114610c2357600080fd5b602080825260169082015275496e76616c6964206c6f74746572792073746174757360501b604082015260600190565b634e487b7160e01b600052604160045260246000fd5b634e487b7160e01b600052603260045260246000fd5b634e487b7160e01b600052601160045260246000fd5b6000600019821415610e3157610e31610e07565b5060010190565b600082821015610e4a57610e4a610e07565b500390565b848152600060208581840152604083018554866000528260002060005b82811015610e915781546001600160a01b031684529284019260019182019101610e6c565b50505060609490941b6bffffffffffffffffffffffff1916845250506014909101949350505050565b634e487b7160e01b600052601260045260246000fd5b600082610edf57610edf610eba565b500690565b6000816000190483118215151615610efe57610efe610e07565b500290565b60008219821115610f1657610f16610e07565b500190565b600082610f2a57610f2a610eba565b50049056fea264697066735822122094db6d466fdc42fceabff6b12f8190ed7f0a9bf6bcf4c6df5da8bf901b97ccd164736f6c634300080a0033","opcodes":"PUSH1 0x80 PUSH1 0x40 MSTORE PUSH8 0x16345785D8A0000 PUSH1 0x2 SSTORE PUSH2 0x1F4 PUSH1 0x6 SSTORE CALLVALUE DUP1 ISZERO PUSH2 0x22 JUMPI PUSH1 0x0 DUP1 REVERT JUMPDEST POP PUSH1 0x40 MLOAD PUSH2 0x1072 CODESIZE SUB DUP1 PUSH2 0x1072 DUP4 CODECOPY DUP2 ADD PUSH1 0x40 DUP2 SWAP1 MSTORE PUSH2 0x41 SWAP2 PUSH2 0xCE JUMP JUMPDEST PUSH2 0x4A CALLER PUSH2 0x7E JUMP JUMPDEST PUSH1 0x7 DUP1 SLOAD PUSH1 0xFF NOT AND PUSH1 0x2 OR SWAP1 SSTORE PUSH1 0x5 DUP1 SLOAD PUSH1 0x1 PUSH1 0x1 PUSH1 0xA0 SHL SUB SWAP3 SWAP1 SWAP3 AND PUSH1 0x1 PUSH1 0x1 PUSH1 0xA0 SHL SUB NOT SWAP1 SWAP3 AND SWAP2 SWAP1 SWAP2 OR SWAP1 SSTORE PUSH2 0xFE JUMP JUMPDEST PUSH1 0x0 DUP1 SLOAD PUSH1 0x1 PUSH1 0x1 PUSH1 0xA0 SHL SUB DUP4 DUP2 AND PUSH1 0x1 PUSH1 0x1 PUSH1 0xA0 SHL SUB NOT DUP4 AND DUP2 OR DUP5 SSTORE PUSH1 0x40 MLOAD SWAP2 SWAP1 SWAP3 AND SWAP3 DUP4 SWAP2 PUSH32 0x8BE0079C531659141344CD1FD0A4F28419497F9722A3DAAFE3B4186F6B6457E0 SWAP2 SWAP1 LOG3 POP POP JUMP JUMPDEST PUSH1 0x0 PUSH1 0x20 DUP3 DUP5 SUB SLT ISZERO PUSH2 0xE0 JUMPI PUSH1 0x0 DUP1 REVERT JUMPDEST DUP2 MLOAD PUSH1 0x1 PUSH1 0x1 PUSH1 0xA0 SHL SUB DUP2 AND DUP2 EQ PUSH2 0xF7 JUMPI PUSH1 0x0 DUP1 REVERT JUMPDEST SWAP4 SWAP3 POP POP POP JUMP JUMPDEST PUSH2 0xF65 DUP1 PUSH2 0x10D PUSH1 0x0 CODECOPY PUSH1 0x0 RETURN INVALID PUSH1 0x80 PUSH1 0x40 MSTORE PUSH1 0x4 CALLDATASIZE LT PUSH2 0x109 JUMPI PUSH1 0x0 CALLDATALOAD PUSH1 0xE0 SHR DUP1 PUSH4 0xE97DCB62 GT PUSH2 0x95 JUMPI DUP1 PUSH4 0xEFBE1C1C GT PUSH2 0x64 JUMPI DUP1 PUSH4 0xEFBE1C1C EQ PUSH2 0x28B JUMPI DUP1 PUSH4 0xF00F6921 EQ PUSH2 0x2A0 JUMPI DUP1 PUSH4 0xF2FDE38B EQ PUSH2 0x2C0 JUMPI DUP1 PUSH4 0xF71D96CB EQ PUSH2 0x2E0 JUMPI DUP1 PUSH4 0xF7D978A2 EQ PUSH2 0x300 JUMPI PUSH1 0x0 DUP1 REVERT JUMPDEST DUP1 PUSH4 0xE97DCB62 EQ PUSH2 0x237 JUMPI DUP1 PUSH4 0xEF86CE8E EQ PUSH2 0x23F JUMPI DUP1 PUSH4 0xEFA1C482 EQ PUSH2 0x254 JUMPI DUP1 PUSH4 0xEFB98BCF EQ PUSH2 0x276 JUMPI PUSH1 0x0 DUP1 REVERT JUMPDEST DUP1 PUSH4 0x715018A6 GT PUSH2 0xDC JUMPI DUP1 PUSH4 0x715018A6 EQ PUSH2 0x1AC JUMPI DUP1 PUSH4 0x89FDFD05 EQ PUSH2 0x1C3 JUMPI DUP1 PUSH4 0x8DA5CB5B EQ PUSH2 0x1D9 JUMPI DUP1 PUSH4 0x95805DAD EQ PUSH2 0x1F7 JUMPI DUP1 PUSH4 0xDFBF53AE EQ PUSH2 0x217 JUMPI PUSH1 0x0 DUP1 REVERT JUMPDEST DUP1 PUSH4 0x72EA61C EQ PUSH2 0x10E JUMPI DUP1 PUSH4 0xD683DD9 EQ PUSH2 0x137 JUMPI DUP1 PUSH4 0x3197CBB6 EQ PUSH2 0x15E JUMPI DUP1 PUSH4 0x481C6A75 EQ PUSH2 0x174 JUMPI JUMPDEST PUSH1 0x0 DUP1 REVERT JUMPDEST CALLVALUE DUP1 ISZERO PUSH2 0x11A JUMPI PUSH1 0x0 DUP1 REVERT JUMPDEST POP PUSH2 0x124 PUSH1 0x2 SLOAD DUP2 JUMP JUMPDEST PUSH1 0x40 MLOAD SWAP1 DUP2 MSTORE PUSH1 0x20 ADD JUMPDEST PUSH1 0x40 MLOAD DUP1 SWAP2 SUB SWAP1 RETURN JUMPDEST CALLVALUE DUP1 ISZERO PUSH2 0x143 JUMPI PUSH1 0x0 DUP1 REVERT JUMPDEST POP PUSH1 0x7 SLOAD PUSH2 0x151 SWAP1 PUSH1 0xFF AND DUP2 JUMP JUMPDEST PUSH1 0x40 MLOAD PUSH2 0x12E SWAP2 SWAP1 PUSH2 0xCF4 JUMP JUMPDEST CALLVALUE DUP1 ISZERO PUSH2 0x16A JUMPI PUSH1 0x0 DUP1 REVERT JUMPDEST POP PUSH2 0x124 PUSH1 0x4 SLOAD DUP2 JUMP JUMPDEST CALLVALUE DUP1 ISZERO PUSH2 0x180 JUMPI PUSH1 0x0 DUP1 REVERT JUMPDEST POP PUSH1 0x5 SLOAD PUSH2 0x194 SWAP1 PUSH1 0x1 PUSH1 0x1 PUSH1 0xA0 SHL SUB AND DUP2 JUMP JUMPDEST PUSH1 0x40 MLOAD PUSH1 0x1 PUSH1 0x1 PUSH1 0xA0 SHL SUB SWAP1 SWAP2 AND DUP2 MSTORE PUSH1 0x20 ADD PUSH2 0x12E JUMP JUMPDEST CALLVALUE DUP1 ISZERO PUSH2 0x1B8 JUMPI PUSH1 0x0 DUP1 REVERT JUMPDEST POP PUSH2 0x1C1 PUSH2 0x320 JUMP JUMPDEST STOP JUMPDEST CALLVALUE DUP1 ISZERO PUSH2 0x1CF JUMPI PUSH1 0x0 DUP1 REVERT JUMPDEST POP PUSH2 0x124 PUSH1 0x6 SLOAD DUP2 JUMP JUMPDEST CALLVALUE DUP1 ISZERO PUSH2 0x1E5 JUMPI PUSH1 0x0 DUP1 REVERT JUMPDEST POP PUSH1 0x0 SLOAD PUSH1 0x1 PUSH1 0x1 PUSH1 0xA0 SHL SUB AND PUSH2 0x194 JUMP JUMPDEST CALLVALUE DUP1 ISZERO PUSH2 0x203 JUMPI PUSH1 0x0 DUP1 REVERT JUMPDEST POP PUSH2 0x1C1 PUSH2 0x212 CALLDATASIZE PUSH1 0x4 PUSH2 0xD1C JUMP JUMPDEST PUSH2 0x334 JUMP JUMPDEST CALLVALUE DUP1 ISZERO PUSH2 0x223 JUMPI PUSH1 0x0 DUP1 REVERT JUMPDEST POP PUSH1 0x3 SLOAD PUSH2 0x194 SWAP1 PUSH1 0x1 PUSH1 0x1 PUSH1 0xA0 SHL SUB AND DUP2 JUMP JUMPDEST PUSH2 0x1C1 PUSH2 0x401 JUMP JUMPDEST CALLVALUE DUP1 ISZERO PUSH2 0x24B JUMPI PUSH1 0x0 DUP1 REVERT JUMPDEST POP PUSH2 0x1C1 PUSH2 0x57B JUMP JUMPDEST CALLVALUE DUP1 ISZERO PUSH2 0x260 JUMPI PUSH1 0x0 DUP1 REVERT JUMPDEST POP PUSH2 0x269 PUSH2 0x646 JUMP JUMPDEST PUSH1 0x40 MLOAD PUSH2 0x12E SWAP2 SWAP1 PUSH2 0xD35 JUMP JUMPDEST CALLVALUE DUP1 ISZERO PUSH2 0x282 JUMPI PUSH1 0x0 DUP1 REVERT JUMPDEST POP PUSH2 0x124 PUSH2 0x713 JUMP JUMPDEST CALLVALUE DUP1 ISZERO PUSH2 0x297 JUMPI PUSH1 0x0 DUP1 REVERT JUMPDEST POP PUSH2 0x1C1 PUSH2 0x75C JUMP JUMPDEST CALLVALUE DUP1 ISZERO PUSH2 0x2AC JUMPI PUSH1 0x0 DUP1 REVERT JUMPDEST POP PUSH2 0x1C1 PUSH2 0x2BB CALLDATASIZE PUSH1 0x4 PUSH2 0xD1C JUMP JUMPDEST PUSH2 0x9FB JUMP JUMPDEST CALLVALUE DUP1 ISZERO PUSH2 0x2CC JUMPI PUSH1 0x0 DUP1 REVERT JUMPDEST POP PUSH2 0x1C1 PUSH2 0x2DB CALLDATASIZE PUSH1 0x4 PUSH2 0xD82 JUMP JUMPDEST PUSH2 0xA6D JUMP JUMPDEST CALLVALUE DUP1 ISZERO PUSH2 0x2EC JUMPI PUSH1 0x0 DUP1 REVERT JUMPDEST POP PUSH2 0x194 PUSH2 0x2FB CALLDATASIZE PUSH1 0x4 PUSH2 0xD1C JUMP JUMPDEST PUSH2 0xAE6 JUMP JUMPDEST CALLVALUE DUP1 ISZERO PUSH2 0x30C JUMPI PUSH1 0x0 DUP1 REVERT JUMPDEST POP PUSH2 0x1C1 PUSH2 0x31B CALLDATASIZE PUSH1 0x4 PUSH2 0xD1C JUMP JUMPDEST PUSH2 0xB10 JUMP JUMPDEST PUSH2 0x328 PUSH2 0xB6D JUMP JUMPDEST PUSH2 0x332 PUSH1 0x0 PUSH2 0xBC7 JUMP JUMPDEST JUMP JUMPDEST PUSH2 0x33C PUSH2 0xB6D JUMP JUMPDEST PUSH1 0x2 DUP1 PUSH1 0x7 SLOAD PUSH1 0xFF AND PUSH1 0x2 DUP2 GT ISZERO PUSH2 0x356 JUMPI PUSH2 0x356 PUSH2 0xCDE JUMP JUMPDEST EQ PUSH2 0x37C JUMPI PUSH1 0x40 MLOAD PUSH3 0x461BCD PUSH1 0xE5 SHL DUP2 MSTORE PUSH1 0x4 ADD PUSH2 0x373 SWAP1 PUSH2 0xDAB JUMP JUMPDEST PUSH1 0x40 MLOAD DUP1 SWAP2 SUB SWAP1 REVERT JUMPDEST PUSH1 0x0 DUP3 GT PUSH2 0x3D8 JUMPI PUSH1 0x40 MLOAD PUSH3 0x461BCD PUSH1 0xE5 SHL DUP2 MSTORE PUSH1 0x20 PUSH1 0x4 DUP3 ADD MSTORE PUSH1 0x24 DUP1 DUP3 ADD MSTORE PUSH32 0x54696D65206475726174696F6E206D7573742062652067726561746572207468 PUSH1 0x44 DUP3 ADD MSTORE PUSH4 0x616E203 PUSH1 0xE4 SHL PUSH1 0x64 DUP3 ADD MSTORE PUSH1 0x84 ADD PUSH2 0x373 JUMP JUMPDEST PUSH1 0x7 DUP1 SLOAD PUSH1 0xFF NOT AND PUSH1 0x1 OR SWAP1 SSTORE PUSH2 0x3FA PUSH2 0x3F3 DUP4 PUSH1 0x3C PUSH2 0xC17 JUMP JUMPDEST TIMESTAMP SWAP1 PUSH2 0xC2A JUMP JUMPDEST PUSH1 0x4 SSTORE POP POP JUMP JUMPDEST PUSH1 0x1 PUSH1 0x7 SLOAD PUSH1 0xFF AND PUSH1 0x2 DUP2 GT ISZERO PUSH2 0x41A JUMPI PUSH2 0x41A PUSH2 0xCDE JUMP JUMPDEST EQ PUSH2 0x45D JUMPI PUSH1 0x40 MLOAD PUSH3 0x461BCD PUSH1 0xE5 SHL DUP2 MSTORE PUSH1 0x20 PUSH1 0x4 DUP3 ADD MSTORE PUSH1 0x13 PUSH1 0x24 DUP3 ADD MSTORE PUSH19 0x131BDD1D195C9E481B9BDD081CDD185C9D1959 PUSH1 0x6A SHL PUSH1 0x44 DUP3 ADD MSTORE PUSH1 0x64 ADD PUSH2 0x373 JUMP JUMPDEST PUSH1 0x2 SLOAD CALLVALUE LT ISZERO PUSH2 0x4A3 JUMPI PUSH1 0x40 MLOAD PUSH3 0x461BCD PUSH1 0xE5 SHL DUP2 MSTORE PUSH1 0x20 PUSH1 0x4 DUP3 ADD MSTORE PUSH1 0x11 PUSH1 0x24 DUP3 ADD MSTORE PUSH17 0x456E74727920666565206973206C657373 PUSH1 0x78 SHL PUSH1 0x44 DUP3 ADD MSTORE PUSH1 0x64 ADD PUSH2 0x373 JUMP JUMPDEST TIMESTAMP PUSH1 0x4 SLOAD GT PUSH2 0x4E2 JUMPI PUSH1 0x40 MLOAD PUSH3 0x461BCD PUSH1 0xE5 SHL DUP2 MSTORE PUSH1 0x20 PUSH1 0x4 DUP3 ADD MSTORE PUSH1 0xB PUSH1 0x24 DUP3 ADD MSTORE PUSH11 0x2A34B6B29034B9903AB817 PUSH1 0xA9 SHL PUSH1 0x44 DUP3 ADD MSTORE PUSH1 0x64 ADD PUSH2 0x373 JUMP JUMPDEST PUSH2 0x4EB CALLER PUSH2 0xC36 JUMP JUMPDEST ISZERO PUSH2 0x538 JUMPI PUSH1 0x40 MLOAD PUSH3 0x461BCD PUSH1 0xE5 SHL DUP2 MSTORE PUSH1 0x20 PUSH1 0x4 DUP3 ADD MSTORE PUSH1 0x1D PUSH1 0x24 DUP3 ADD MSTORE PUSH32 0x596F752061726520616C72656164792061207061727469636970616E74000000 PUSH1 0x44 DUP3 ADD MSTORE PUSH1 0x64 ADD PUSH2 0x373 JUMP JUMPDEST PUSH1 0x1 DUP1 SLOAD DUP1 DUP3 ADD DUP3 SSTORE PUSH1 0x0 SWAP2 SWAP1 SWAP2 MSTORE PUSH32 0xB10E2D527612073B26EECDFD717E6A320CF44B4AFAC2B0732D9FCBE2B7FA0CF6 ADD DUP1 SLOAD PUSH1 0x1 PUSH1 0x1 PUSH1 0xA0 SHL SUB NOT AND CALLER OR SWAP1 SSTORE JUMP JUMPDEST PUSH2 0x583 PUSH2 0xB6D JUMP JUMPDEST PUSH1 0x2 DUP1 PUSH1 0x7 SLOAD PUSH1 0xFF AND PUSH1 0x2 DUP2 GT ISZERO PUSH2 0x59D JUMPI PUSH2 0x59D PUSH2 0xCDE JUMP JUMPDEST EQ PUSH2 0x5BA JUMPI PUSH1 0x40 MLOAD PUSH3 0x461BCD PUSH1 0xE5 SHL DUP2 MSTORE PUSH1 0x4 ADD PUSH2 0x373 SWAP1 PUSH2 0xDAB JUMP JUMPDEST SELFBALANCE DUP1 PUSH2 0x608 JUMPI PUSH1 0x40 MLOAD PUSH3 0x461BCD PUSH1 0xE5 SHL DUP2 MSTORE PUSH1 0x20 PUSH1 0x4 DUP3 ADD MSTORE PUSH1 0x1E PUSH1 0x24 DUP3 ADD MSTORE PUSH32 0x4E6F2072656D61696E696E672066756E647320746F2077697468647261770000 PUSH1 0x44 DUP3 ADD MSTORE PUSH1 0x64 ADD PUSH2 0x373 JUMP JUMPDEST PUSH1 0x0 DUP1 SLOAD PUSH1 0x40 MLOAD PUSH1 0x1 PUSH1 0x1 PUSH1 0xA0 SHL SUB SWAP1 SWAP2 AND SWAP2 DUP4 ISZERO PUSH2 0x8FC MUL SWAP2 DUP5 SWAP2 DUP2 DUP2 DUP2 DUP6 DUP9 DUP9 CALL SWAP4 POP POP POP POP ISZERO DUP1 ISZERO PUSH2 0x641 JUMPI RETURNDATASIZE PUSH1 0x0 DUP1 RETURNDATACOPY RETURNDATASIZE PUSH1 0x0 REVERT JUMPDEST POP POP POP JUMP JUMPDEST PUSH1 0x1 SLOAD PUSH1 0x60 SWAP1 PUSH1 0x0 SWAP1 PUSH8 0xFFFFFFFFFFFFFFFF DUP2 GT ISZERO PUSH2 0x667 JUMPI PUSH2 0x667 PUSH2 0xDDB JUMP JUMPDEST PUSH1 0x40 MLOAD SWAP1 DUP1 DUP3 MSTORE DUP1 PUSH1 0x20 MUL PUSH1 0x20 ADD DUP3 ADD PUSH1 0x40 MSTORE DUP1 ISZERO PUSH2 0x690 JUMPI DUP2 PUSH1 0x20 ADD PUSH1 0x20 DUP3 MUL DUP1 CALLDATASIZE DUP4 CALLDATACOPY ADD SWAP1 POP JUMPDEST POP SWAP1 POP PUSH1 0x0 JUMPDEST PUSH1 0x1 SLOAD DUP2 LT ISZERO PUSH2 0x70D JUMPI PUSH1 0x1 DUP2 DUP2 SLOAD DUP2 LT PUSH2 0x6B3 JUMPI PUSH2 0x6B3 PUSH2 0xDF1 JUMP JUMPDEST SWAP1 PUSH1 0x0 MSTORE PUSH1 0x20 PUSH1 0x0 KECCAK256 ADD PUSH1 0x0 SWAP1 SLOAD SWAP1 PUSH2 0x100 EXP SWAP1 DIV PUSH1 0x1 PUSH1 0x1 PUSH1 0xA0 SHL SUB AND DUP3 DUP3 DUP2 MLOAD DUP2 LT PUSH2 0x6E3 JUMPI PUSH2 0x6E3 PUSH2 0xDF1 JUMP JUMPDEST PUSH1 0x1 PUSH1 0x1 PUSH1 0xA0 SHL SUB SWAP1 SWAP3 AND PUSH1 0x20 SWAP3 DUP4 MUL SWAP2 SWAP1 SWAP2 ADD SWAP1 SWAP2 ADD MSTORE DUP1 PUSH2 0x705 DUP2 PUSH2 0xE1D JUMP JUMPDEST SWAP2 POP POP PUSH2 0x696 JUMP JUMPDEST POP SWAP2 SWAP1 POP JUMP JUMPDEST PUSH1 0x0 PUSH1 0x1 PUSH1 0x7 SLOAD PUSH1 0xFF AND PUSH1 0x2 DUP2 GT ISZERO PUSH2 0x72E JUMPI PUSH2 0x72E PUSH2 0xCDE JUMP JUMPDEST EQ ISZERO PUSH2 0x756 JUMPI TIMESTAMP PUSH1 0x4 SLOAD GT PUSH2 0x743 JUMPI POP PUSH1 0x0 SWAP1 JUMP JUMPDEST TIMESTAMP PUSH1 0x4 SLOAD PUSH2 0x751 SWAP2 SWAP1 PUSH2 0xE38 JUMP JUMPDEST SWAP1 POP SWAP1 JUMP JUMPDEST POP PUSH1 0x0 SWAP1 JUMP JUMPDEST PUSH2 0x764 PUSH2 0xB6D JUMP JUMPDEST PUSH1 0x1 DUP1 PUSH1 0x7 SLOAD PUSH1 0xFF AND PUSH1 0x2 DUP2 GT ISZERO PUSH2 0x77E JUMPI PUSH2 0x77E PUSH2 0xCDE JUMP JUMPDEST EQ PUSH2 0x79B JUMPI PUSH1 0x40 MLOAD PUSH3 0x461BCD PUSH1 0xE5 SHL DUP2 MSTORE PUSH1 0x4 ADD PUSH2 0x373 SWAP1 PUSH2 0xDAB JUMP JUMPDEST TIMESTAMP PUSH1 0x4 SLOAD GT ISZERO PUSH2 0x800 JUMPI PUSH1 0x40 MLOAD PUSH3 0x461BCD PUSH1 0xE5 SHL DUP2 MSTORE PUSH1 0x20 PUSH1 0x4 DUP3 ADD MSTORE PUSH1 0x2A PUSH1 0x24 DUP3 ADD MSTORE PUSH32 0x596F752063616E6E6F7420656E6420746865206C6F7474657279206265666F72 PUSH1 0x44 DUP3 ADD MSTORE PUSH10 0x65207468652074696D65 PUSH1 0xB0 SHL PUSH1 0x64 DUP3 ADD MSTORE PUSH1 0x84 ADD PUSH2 0x373 JUMP JUMPDEST PUSH1 0x1 SLOAD PUSH2 0x841 JUMPI PUSH1 0x40 MLOAD PUSH3 0x461BCD PUSH1 0xE5 SHL DUP2 MSTORE PUSH1 0x20 PUSH1 0x4 DUP3 ADD MSTORE PUSH1 0xF PUSH1 0x24 DUP3 ADD MSTORE PUSH15 0x4E6F207061727469636970616E7473 PUSH1 0x88 SHL PUSH1 0x44 DUP3 ADD MSTORE PUSH1 0x64 ADD PUSH2 0x373 JUMP JUMPDEST PUSH1 0x7 DUP1 SLOAD PUSH1 0xFF NOT AND PUSH1 0x2 OR SWAP1 SSTORE PUSH1 0x1 DUP1 SLOAD PUSH1 0x40 MLOAD PUSH1 0x0 SWAP3 PUSH2 0x86A SWAP2 DIFFICULTY SWAP2 TIMESTAMP SWAP2 CALLER SWAP1 PUSH1 0x20 ADD PUSH2 0xE4F JUMP JUMPDEST PUSH1 0x40 MLOAD PUSH1 0x20 DUP2 DUP4 SUB SUB DUP2 MSTORE SWAP1 PUSH1 0x40 MSTORE DUP1 MLOAD SWAP1 PUSH1 0x20 ADD KECCAK256 PUSH1 0x0 SHR PUSH2 0x88D SWAP2 SWAP1 PUSH2 0xED0 JUMP JUMPDEST SWAP1 POP PUSH1 0x1 DUP2 DUP2 SLOAD DUP2 LT PUSH2 0x8A2 JUMPI PUSH2 0x8A2 PUSH2 0xDF1 JUMP JUMPDEST PUSH1 0x0 SWAP2 DUP3 MSTORE PUSH1 0x20 DUP3 KECCAK256 ADD SLOAD PUSH1 0x3 DUP1 SLOAD PUSH1 0x1 PUSH1 0x1 PUSH1 0xA0 SHL SUB NOT AND PUSH1 0x1 PUSH1 0x1 PUSH1 0xA0 SHL SUB SWAP1 SWAP3 AND SWAP2 SWAP1 SWAP2 OR SWAP1 SSTORE PUSH1 0x6 SLOAD SELFBALANCE SWAP2 SWAP1 PUSH2 0x8EB SWAP1 PUSH2 0x2710 SWAP1 PUSH2 0x8E5 SWAP1 DUP6 SWAP1 PUSH2 0xC17 JUMP JUMPDEST SWAP1 PUSH2 0xCA0 JUMP JUMPDEST SWAP1 POP PUSH1 0x0 PUSH2 0x8F9 DUP3 DUP5 PUSH2 0xE38 JUMP JUMPDEST PUSH1 0x3 SLOAD PUSH1 0x40 MLOAD SWAP2 SWAP3 POP PUSH1 0x1 PUSH1 0x1 PUSH1 0xA0 SHL SUB AND SWAP1 DUP3 ISZERO PUSH2 0x8FC MUL SWAP1 DUP4 SWAP1 PUSH1 0x0 DUP2 DUP2 DUP2 DUP6 DUP9 DUP9 CALL SWAP4 POP POP POP POP ISZERO DUP1 ISZERO PUSH2 0x934 JUMPI RETURNDATASIZE PUSH1 0x0 DUP1 RETURNDATACOPY RETURNDATASIZE PUSH1 0x0 REVERT JUMPDEST POP PUSH2 0x941 PUSH1 0x1 PUSH1 0x0 PUSH2 0xCAC JUMP JUMPDEST PUSH1 0x3 SLOAD PUSH1 0x40 DUP1 MLOAD PUSH1 0x1 PUSH1 0x1 PUSH1 0xA0 SHL SUB SWAP1 SWAP3 AND DUP3 MSTORE PUSH1 0x20 DUP3 ADD DUP4 SWAP1 MSTORE PUSH32 0x3CF1AF53E79884A92609CE59DB1EC9F584D88E2D14C8EABA43A21DB81318301E SWAP2 ADD PUSH1 0x40 MLOAD DUP1 SWAP2 SUB SWAP1 LOG1 PUSH1 0x40 MLOAD DUP3 DUP2 MSTORE PUSH32 0xC2BB3206848157E57E737EEC7E141F06F5DE585E2F1C0F0EC60A04F45A2C0031 SWAP1 PUSH1 0x20 ADD PUSH1 0x40 MLOAD DUP1 SWAP2 SUB SWAP1 LOG1 PUSH1 0x0 DUP1 SLOAD PUSH1 0x40 MLOAD PUSH1 0x1 PUSH1 0x1 PUSH1 0xA0 SHL SUB SWAP1 SWAP2 AND SWAP2 DUP5 ISZERO PUSH2 0x8FC MUL SWAP2 DUP6 SWAP2 DUP2 DUP2 DUP2 DUP6 DUP9 DUP9 CALL SWAP4 POP POP POP POP ISZERO DUP1 ISZERO PUSH2 0x9F3 JUMPI RETURNDATASIZE PUSH1 0x0 DUP1 RETURNDATACOPY RETURNDATASIZE PUSH1 0x0 REVERT JUMPDEST POP POP POP POP POP POP JUMP JUMPDEST PUSH2 0xA03 PUSH2 0xB6D JUMP JUMPDEST PUSH2 0x2710 DUP2 GT ISZERO PUSH2 0xA68 JUMPI PUSH1 0x40 MLOAD PUSH3 0x461BCD PUSH1 0xE5 SHL DUP2 MSTORE PUSH1 0x20 PUSH1 0x4 DUP3 ADD MSTORE PUSH1 0x2A PUSH1 0x24 DUP3 ADD MSTORE PUSH32 0x436F6D6D697373696F6E20626173697320706F696E74732063616E6E6F742065 PUSH1 0x44 DUP3 ADD MSTORE PUSH10 0x78636565642031303025 PUSH1 0xB0 SHL PUSH1 0x64 DUP3 ADD MSTORE PUSH1 0x84 ADD PUSH2 0x373 JUMP JUMPDEST PUSH1 0x6 SSTORE JUMP JUMPDEST PUSH2 0xA75 PUSH2 0xB6D JUMP JUMPDEST PUSH1 0x1 PUSH1 0x1 PUSH1 0xA0 SHL SUB DUP2 AND PUSH2 0xADA JUMPI PUSH1 0x40 MLOAD PUSH3 0x461BCD PUSH1 0xE5 SHL DUP2 MSTORE PUSH1 0x20 PUSH1 0x4 DUP3 ADD MSTORE PUSH1 0x26 PUSH1 0x24 DUP3 ADD MSTORE PUSH32 0x4F776E61626C653A206E6577206F776E657220697320746865207A65726F2061 PUSH1 0x44 DUP3 ADD MSTORE PUSH6 0x646472657373 PUSH1 0xD0 SHL PUSH1 0x64 DUP3 ADD MSTORE PUSH1 0x84 ADD PUSH2 0x373 JUMP JUMPDEST PUSH2 0xAE3 DUP2 PUSH2 0xBC7 JUMP JUMPDEST POP JUMP JUMPDEST PUSH1 0x1 DUP2 DUP2 SLOAD DUP2 LT PUSH2 0xAF6 JUMPI PUSH1 0x0 DUP1 REVERT JUMPDEST PUSH1 0x0 SWAP2 DUP3 MSTORE PUSH1 0x20 SWAP1 SWAP2 KECCAK256 ADD SLOAD PUSH1 0x1 PUSH1 0x1 PUSH1 0xA0 SHL SUB AND SWAP1 POP DUP2 JUMP JUMPDEST PUSH2 0xB18 PUSH2 0xB6D JUMP JUMPDEST PUSH1 0x0 DUP2 GT PUSH2 0xB68 JUMPI PUSH1 0x40 MLOAD PUSH3 0x461BCD PUSH1 0xE5 SHL DUP2 MSTORE PUSH1 0x20 PUSH1 0x4 DUP3 ADD DUP2 SWAP1 MSTORE PUSH1 0x24 DUP3 ADD MSTORE PUSH32 0x456E74727920666565206D7573742062652067726561746572207468616E2030 PUSH1 0x44 DUP3 ADD MSTORE PUSH1 0x64 ADD PUSH2 0x373 JUMP JUMPDEST PUSH1 0x2 SSTORE JUMP JUMPDEST PUSH1 0x0 SLOAD PUSH1 0x1 PUSH1 0x1 PUSH1 0xA0 SHL SUB AND CALLER EQ PUSH2 0x332 JUMPI PUSH1 0x40 MLOAD PUSH3 0x461BCD PUSH1 0xE5 SHL DUP2 MSTORE PUSH1 0x20 PUSH1 0x4 DUP3 ADD DUP2 SWAP1 MSTORE PUSH1 0x24 DUP3 ADD MSTORE PUSH32 0x4F776E61626C653A2063616C6C6572206973206E6F7420746865206F776E6572 PUSH1 0x44 DUP3 ADD MSTORE PUSH1 0x64 ADD PUSH2 0x373 JUMP JUMPDEST PUSH1 0x0 DUP1 SLOAD PUSH1 0x1 PUSH1 0x1 PUSH1 0xA0 SHL SUB DUP4 DUP2 AND PUSH1 0x1 PUSH1 0x1 PUSH1 0xA0 SHL SUB NOT DUP4 AND DUP2 OR DUP5 SSTORE PUSH1 0x40 MLOAD SWAP2 SWAP1 SWAP3 AND SWAP3 DUP4 SWAP2 PUSH32 0x8BE0079C531659141344CD1FD0A4F28419497F9722A3DAAFE3B4186F6B6457E0 SWAP2 SWAP1 LOG3 POP POP JUMP JUMPDEST PUSH1 0x0 PUSH2 0xC23 DUP3 DUP5 PUSH2 0xEE4 JUMP JUMPDEST SWAP4 SWAP3 POP POP POP JUMP JUMPDEST PUSH1 0x0 PUSH2 0xC23 DUP3 DUP5 PUSH2 0xF03 JUMP JUMPDEST PUSH1 0x0 DUP1 JUMPDEST PUSH1 0x1 SLOAD DUP2 LT ISZERO PUSH2 0xC97 JUMPI DUP3 PUSH1 0x1 PUSH1 0x1 PUSH1 0xA0 SHL SUB AND PUSH1 0x1 DUP3 DUP2 SLOAD DUP2 LT PUSH2 0xC61 JUMPI PUSH2 0xC61 PUSH2 0xDF1 JUMP JUMPDEST PUSH1 0x0 SWAP2 DUP3 MSTORE PUSH1 0x20 SWAP1 SWAP2 KECCAK256 ADD SLOAD PUSH1 0x1 PUSH1 0x1 PUSH1 0xA0 SHL SUB AND EQ ISZERO PUSH2 0xC85 JUMPI POP PUSH1 0x1 SWAP3 SWAP2 POP POP JUMP JUMPDEST DUP1 PUSH2 0xC8F DUP2 PUSH2 0xE1D JUMP JUMPDEST SWAP2 POP POP PUSH2 0xC3A JUMP JUMPDEST POP PUSH1 0x0 SWAP3 SWAP2 POP POP JUMP JUMPDEST PUSH1 0x0 PUSH2 0xC23 DUP3 DUP5 PUSH2 0xF1B JUMP JUMPDEST POP DUP1 SLOAD PUSH1 0x0 DUP3 SSTORE SWAP1 PUSH1 0x0 MSTORE PUSH1 0x20 PUSH1 0x0 KECCAK256 SWAP1 DUP2 ADD SWAP1 PUSH2 0xAE3 SWAP2 SWAP1 JUMPDEST DUP1 DUP3 GT ISZERO PUSH2 0xCDA JUMPI PUSH1 0x0 DUP2 SSTORE PUSH1 0x1 ADD PUSH2 0xCC6 JUMP JUMPDEST POP SWAP1 JUMP JUMPDEST PUSH4 0x4E487B71 PUSH1 0xE0 SHL PUSH1 0x0 MSTORE PUSH1 0x21 PUSH1 0x4 MSTORE PUSH1 0x24 PUSH1 0x0 REVERT JUMPDEST PUSH1 0x20 DUP2 ADD PUSH1 0x3 DUP4 LT PUSH2 0xD16 JUMPI PUSH4 0x4E487B71 PUSH1 0xE0 SHL PUSH1 0x0 MSTORE PUSH1 0x21 PUSH1 0x4 MSTORE PUSH1 0x24 PUSH1 0x0 REVERT JUMPDEST SWAP2 SWAP1 MSTORE SWAP1 JUMP JUMPDEST PUSH1 0x0 PUSH1 0x20 DUP3 DUP5 SUB SLT ISZERO PUSH2 0xD2E JUMPI PUSH1 0x0 DUP1 REVERT JUMPDEST POP CALLDATALOAD SWAP2 SWAP1 POP JUMP JUMPDEST PUSH1 0x20 DUP1 DUP3 MSTORE DUP3 MLOAD DUP3 DUP3 ADD DUP2 SWAP1 MSTORE PUSH1 0x0 SWAP2 SWAP1 DUP5 DUP3 ADD SWAP1 PUSH1 0x40 DUP6 ADD SWAP1 DUP5 JUMPDEST DUP2 DUP2 LT ISZERO PUSH2 0xD76 JUMPI DUP4 MLOAD PUSH1 0x1 PUSH1 0x1 PUSH1 0xA0 SHL SUB AND DUP4 MSTORE SWAP3 DUP5 ADD SWAP3 SWAP2 DUP5 ADD SWAP2 PUSH1 0x1 ADD PUSH2 0xD51 JUMP JUMPDEST POP SWAP1 SWAP7 SWAP6 POP POP POP POP POP POP JUMP JUMPDEST PUSH1 0x0 PUSH1 0x20 DUP3 DUP5 SUB SLT ISZERO PUSH2 0xD94 JUMPI PUSH1 0x0 DUP1 REVERT JUMPDEST DUP2 CALLDATALOAD PUSH1 0x1 PUSH1 0x1 PUSH1 0xA0 SHL SUB DUP2 AND DUP2 EQ PUSH2 0xC23 JUMPI PUSH1 0x0 DUP1 REVERT JUMPDEST PUSH1 0x20 DUP1 DUP3 MSTORE PUSH1 0x16 SWAP1 DUP3 ADD MSTORE PUSH22 0x496E76616C6964206C6F747465727920737461747573 PUSH1 0x50 SHL PUSH1 0x40 DUP3 ADD MSTORE PUSH1 0x60 ADD SWAP1 JUMP JUMPDEST PUSH4 0x4E487B71 PUSH1 0xE0 SHL PUSH1 0x0 MSTORE PUSH1 0x41 PUSH1 0x4 MSTORE PUSH1 0x24 PUSH1 0x0 REVERT JUMPDEST PUSH4 0x4E487B71 PUSH1 0xE0 SHL PUSH1 0x0 MSTORE PUSH1 0x32 PUSH1 0x4 MSTORE PUSH1 0x24 PUSH1 0x0 REVERT JUMPDEST PUSH4 0x4E487B71 PUSH1 0xE0 SHL PUSH1 0x0 MSTORE PUSH1 0x11 PUSH1 0x4 MSTORE PUSH1 0x24 PUSH1 0x0 REVERT JUMPDEST PUSH1 0x0 PUSH1 0x0 NOT DUP3 EQ ISZERO PUSH2 0xE31 JUMPI PUSH2 0xE31 PUSH2 0xE07 JUMP JUMPDEST POP PUSH1 0x1 ADD SWAP1 JUMP JUMPDEST PUSH1 0x0 DUP3 DUP3 LT ISZERO PUSH2 0xE4A JUMPI PUSH2 0xE4A PUSH2 0xE07 JUMP JUMPDEST POP SUB SWAP1 JUMP JUMPDEST DUP5 DUP2 MSTORE PUSH1 0x0 PUSH1 0x20 DUP6 DUP2 DUP5 ADD MSTORE PUSH1 0x40 DUP4 ADD DUP6 SLOAD DUP7 PUSH1 0x0 MSTORE DUP3 PUSH1 0x0 KECCAK256 PUSH1 0x0 JUMPDEST DUP3 DUP2 LT ISZERO PUSH2 0xE91 JUMPI DUP2 SLOAD PUSH1 0x1 PUSH1 0x1 PUSH1 0xA0 SHL SUB AND DUP5 MSTORE SWAP3 DUP5 ADD SWAP3 PUSH1 0x1 SWAP2 DUP3 ADD SWAP2 ADD PUSH2 0xE6C JUMP JUMPDEST POP POP POP PUSH1 0x60 SWAP5 SWAP1 SWAP5 SHL PUSH12 0xFFFFFFFFFFFFFFFFFFFFFFFF NOT AND DUP5 MSTORE POP POP PUSH1 0x14 SWAP1 SWAP2 ADD SWAP5 SWAP4 POP POP POP POP JUMP JUMPDEST PUSH4 0x4E487B71 PUSH1 0xE0 SHL PUSH1 0x0 MSTORE PUSH1 0x12 PUSH1 0x4 MSTORE PUSH1 0x24 PUSH1 0x0 REVERT JUMPDEST PUSH1 0x0 DUP3 PUSH2 0xEDF JUMPI PUSH2 0xEDF PUSH2 0xEBA JUMP JUMPDEST POP MOD SWAP1 JUMP JUMPDEST PUSH1 0x0 DUP2 PUSH1 0x0 NOT DIV DUP4 GT DUP3 ISZERO ISZERO AND ISZERO PUSH2 0xEFE JUMPI PUSH2 0xEFE PUSH2 0xE07 JUMP JUMPDEST POP MUL SWAP1 JUMP JUMPDEST PUSH1 0x0 DUP3 NOT DUP3 GT ISZERO PUSH2 0xF16 JUMPI PUSH2 0xF16 PUSH2 0xE07 JUMP JUMPDEST POP ADD SWAP1 JUMP JUMPDEST PUSH1 0x0 DUP3 PUSH2 0xF2A JUMPI PUSH2 0xF2A PUSH2 0xEBA JUMP JUMPDEST POP DIV SWAP1 JUMP INVALID LOG2 PUSH5 0x6970667358 0x22 SLT KECCAK256 SWAP5 0xDB PUSH14 0x466FDC42FCEABFF6B12F8190ED7F EXP SWAP12 0xF6 0xBC DELEGATECALL 0xC6 0xDF 0x5D 0xA8 0xBF SWAP1 SHL SWAP8 0xCC 0xD1 PUSH5 0x736F6C6343 STOP ADDMOD EXP STOP CALLER "},"gasEstimates":{"creation":{"codeDepositCost":"788200","executionCost":"infinite","totalCost":"infinite"},"external":{"changeEntryFee(uint256)":"24621","commissionBasisPoints()":"2329","end()":"infinite","endTime()":"2352","enter()":"infinite","entryFee()":"2308","getAllPlayers()":"infinite","getRemainingTime()":"6741","lotteryStatus()":"2397","manager()":"2427","owner()":"2398","players(uint256)":"4702","renounceOwnership()":"infinite","setCommissionBasisPoints(uint256)":"24558","start(uint256)":"infinite","transferOwnership(address)":"28364","winner()":"2448","withdrawRemainingFunds()":"infinite"},"internal":{"isParticipating(address)":"infinite"}},"methodIdentifiers":{"changeEntryFee(uint256)":"f7d978a2","commissionBasisPoints()":"89fdfd05","end()":"efbe1c1c","endTime()":"3197cbb6","enter()":"e97dcb62","entryFee()":"072ea61c","getAllPlayers()":"efa1c482","getRemainingTime()":"efb98bcf","lotteryStatus()":"0d683dd9","manager()":"481c6a75","owner()":"8da5cb5b","players(uint256)":"f71d96cb","renounceOwnership()":"715018a6","setCommissionBasisPoints(uint256)":"f00f6921","start(uint256)":"95805dad","transferOwnership(address)":"f2fde38b","winner()":"dfbf53ae","withdrawRemainingFunds()":"ef86ce8e"}},"storageLayout":{"storage":[{"astId":7,"contract":"contracts/Lottery.sol:Lottery","label":"_owner","offset":0,"slot":"0","type":"t_address"},{"astId":523,"contract":"contracts/Lottery.sol:Lottery","label":"players","offset":0,"slot":"1","type":"t_array(t_address)dyn_storage"},{"astId":526,"contract":"contracts/Lottery.sol:Lottery","label":"entryFee","offset":0,"slot":"2","type":"t_uint256"},{"astId":528,"contract":"contracts/Lottery.sol:Lottery","label":"winner","offset":0,"slot":"3","type":"t_address"},{"astId":530,"contract":"contracts/Lottery.sol:Lottery","label":"endTime","offset":0,"slot":"4","type":"t_uint256"},{"astId":532,"contract":"contracts/Lottery.sol:Lottery","label":"manager","offset":0,"slot":"5","type":"t_address"},{"astId":535,"contract":"contracts/Lottery.sol:Lottery","label":"commissionBasisPoints","offset":0,"slot":"6","type":"t_uint256"},{"astId":552,"contract":"contracts/Lottery.sol:Lottery","label":"lotteryStatus","offset":0,"slot":"7","type":"t_enum(LotteryStatus)549"}],"types":{"t_address":{"encoding":"inplace","label":"address","numberOfBytes":"20"},"t_array(t_address)dyn_storage":{"base":"t_address","encoding":"dynamic_array","label":"address[]","numberOfBytes":"32"},"t_enum(LotteryStatus)549":{"encoding":"inplace","label":"enum Lottery.LotteryStatus","numberOfBytes":"1"},"t_uint256":{"encoding":"inplace","label":"uint256","numberOfBytes":"32"}}},"userdoc":{"kind":"user","methods":{},"version":1}}}}