{"contracts/LotteryPool.sol":{"LotteryPool":{"abi":[{"inputs":[],"stateMutability":"nonpayable","type":"constructor"},{"anonymous":false,"inputs":[{"indexed":false,"internalType":"address","name":"lotteryAddress","type":"address"}],"name":"LotteryCreated","type":"event"},{"inputs":[{"internalType":"uint256","name":"_timeInMinutes","type":"uint256"}],"name":"createLottery","outputs":[],"stateMutability":"nonpayable","type":"function"},{"inputs":[],"name":"getLotteries","outputs":[{"internalType":"address[]","name":"","type":"address[]"}],"stateMutability":"view","type":"function"},{"inputs":[],"name":"getLotteryContractDetails","outputs":[{"components":[{"internalType":"contract Lottery","name":"lotteryContract","type":"address"},{"internalType":"address","name":"manager","type":"address"},{"internalType":"uint256","name":"endedTimeStamp","type":"uint256"}],"internalType":"struct LotteryPool.lotteryStruct[]","name":"","type":"tuple[]"}],"stateMutability":"view","type":"function"},{"inputs":[{"internalType":"uint256","name":"","type":"uint256"}],"name":"lotteriesContractsAddresses","outputs":[{"internalType":"address","name":"","type":"address"}],"stateMutability":"view","type":"function"},{"inputs":[{"internalType":"address","name":"","type":"address"}],"name":"lotteriesMapping","outputs":[{"internalType":"contract Lottery","name":"lotteryContract","type":"address"},{"internalType":"address","name":"manager","type":"address"},{"internalType":"uint256","name":"endedTimeStamp","type":"uint256"}],"stateMutability":"view","type":"function"},{"inputs":[],"name":"manager","outputs":[{"internalType":"address","name":"","type":"address"}],"stateMutability":"view","type":"function"},{"inputs":[],"name":"totalLotteries","outputs":[{"internalType":"uint256","name":"","type":"uint256"}],"stateMutability":"view","type":"function"}],"devdoc":{"kind":"dev","methods":{},"version":1},"evm":{"bytecode":{"linkReferences":{},"object":"6080604052600060015534801561001557600080fd5b50600380546001600160a01b031916331790556111c1806100376000396000f3fe608060405234801561001057600080fd5b506004361061007d5760003560e01c80638dd8c56d1161005b5780638dd8c56d14610129578063a1bbfcee1461013e578063bcc82ec414610151578063f530bcab1461016657600080fd5b8063481c6a75146100825780634fb3fce7146100b257806359d23279146100c7575b600080fd5b600354610095906001600160a01b031681565b6040516001600160a01b0390911681526020015b60405180910390f35b6100ba61017d565b6040516100a991906104f6565b6101036100d536600461055b565b6000602081905290815260409020805460018201546002909201546001600160a01b03918216929091169083565b604080516001600160a01b039485168152939092166020840152908201526060016100a9565b61013c61013736600461058b565b610294565b005b61009561014c36600461058b565b61045d565b610159610487565b6040516100a991906105a4565b61016f60015481565b6040519081526020016100a9565b6060600060015467ffffffffffffffff81111561019c5761019c6105f1565b6040519080825280602002602001820160405280156101e757816020015b60408051606081018252600080825260208083018290529282015282526000199092019101816101ba5790505b50905060005b60015481101561028e576000806002838154811061020d5761020d610607565b60009182526020808320909101546001600160a01b03908116845283820194909452604092830190912082516060810184528154851681526001820154909416918401919091526002015490820152825183908390811061027057610270610607565b6020026020010181905250808061028690610633565b9150506101ed565b50919050565b6000336040516102a3906104e9565b6001600160a01b039091168152602001604051809103906000f0801580156102cf573d6000803e3d6000fd5b506040516395805dad60e01b8152600481018490529091506001600160a01b038216906395805dad90602401600060405180830381600087803b15801561031557600080fd5b505af1158015610329573d6000803e3d6000fd5b5050604080516060810182526001600160a01b038516815233602082015292508201905061035884603c61064e565b610362904261066d565b90526001600160a01b03808316600090815260208181526040808320855181549086166001600160a01b03199182161782559286015160018083018054929097169190941617909455939093015160029092019190915581548291906103c990839061066d565b90915550506040516001600160a01b03821681527fe610764cbcba803247df3450b7492f6a0084b7b5b734a7901c13fef8f84ffaf49060200160405180910390a1600280546001810182556000919091527f405787fa12a823e0f2b7631cc41b3ba8828b3321ca811111fa75cd3aa3bb5ace0180546001600160a01b0319166001600160a01b039290921691909117905550565b6002818154811061046d57600080fd5b6000918252602090912001546001600160a01b0316905081565b606060028054806020026020016040519081016040528092919081815260200182805480156104df57602002820191906000526020600020905b81546001600160a01b031681526001909101906020018083116104c1575b5050505050905090565b610b068061068683390190565b602080825282518282018190526000919060409081850190868401855b8281101561054e57815180516001600160a01b0390811686528782015116878601528501518585015260609093019290850190600101610513565b5091979650505050505050565b60006020828403121561056d57600080fd5b81356001600160a01b038116811461058457600080fd5b9392505050565b60006020828403121561059d57600080fd5b5035919050565b6020808252825182820181905260009190848201906040850190845b818110156105e55783516001600160a01b0316835292840192918401916001016105c0565b50909695505050505050565b634e487b7160e01b600052604160045260246000fd5b634e487b7160e01b600052603260045260246000fd5b634e487b7160e01b600052601160045260246000fd5b60006000198214156106475761064761061d565b5060010190565b60008160001904831182151516156106685761066861061d565b500290565b600082198211156106805761068061061d565b50019056fe608060405267016345785d8a0000600255426005556006805460ff1916905534801561002a57600080fd5b50604051610b06380380610b068339810160408190526100499161006e565b600080546001600160a01b0319166001600160a01b039290921691909117905561009e565b60006020828403121561008057600080fd5b81516001600160a01b038116811461009757600080fd5b9392505050565b610a59806100ad6000396000f3fe6080604052600436106100c25760003560e01c80638e7ea5b21161007f578063e97dcb6211610059578063e97dcb62146101f0578063efb98bcf146101f8578063efbe1c1c1461020d578063f71d96cb1461022257600080fd5b80638e7ea5b21461019d57806395805dad146101bb578063c1f52604146101dd57600080fd5b8063072ea61c146100c757806316ada547146100f0578063200d2ed2146101065780633c20ee6e1461012d578063481c6a75146101435780638b5b9ccc1461017b575b600080fd5b3480156100d357600080fd5b506100dd60025481565b6040519081526020015b60405180910390f35b3480156100fc57600080fd5b506100dd60055481565b34801561011257600080fd5b506006546101209060ff1681565b6040516100e7919061088e565b34801561013957600080fd5b506100dd60045481565b34801561014f57600080fd5b50600054610163906001600160a01b031681565b6040516001600160a01b0390911681526020016100e7565b34801561018757600080fd5b50610190610242565b6040516100e791906108b6565b3480156101a957600080fd5b506003546001600160a01b0316610163565b3480156101c757600080fd5b506101db6101d6366004610903565b6102a4565b005b3480156101e957600080fd5b50476100dd565b6101db61034a565b34801561020457600080fd5b506100dd6104e9565b34801561021957600080fd5b506101db610588565b34801561022e57600080fd5b5061016361023d366004610903565b610734565b6060600180548060200260200160405190810160405280929190818152602001828054801561029a57602002820191906000526020600020905b81546001600160a01b0316815260019091019060200180831161027c575b5050505050905090565b600060065460ff1660028111156102bd576102bd610878565b146103225760405162461bcd60e51b815260206004820152602a60248201527f6c6f74746572792068617320616c7265616479206265656e20737461727465646044820152691037b91032b73232b21760b11b60648201526084015b60405180910390fd5b6006805460ff1916600117905561033a81603c610932565b6103449042610951565b60045550565b42600454101561038a5760405162461bcd60e51b815260206004820152600b60248201526a3a34b6b29034b9903ab81760a91b6044820152606401610319565b6103933361075e565b156103e05760405162461bcd60e51b815260206004820152601d60248201527f796f752061726520616c72656164792061207061727469636970616e740000006044820152606401610319565b6002543410156104325760405162461bcd60e51b815260206004820181905260248201527f656e74727920666565206973206c657373207468656e20302e312065746865726044820152606401610319565b600160065460ff16600281111561044b5761044b610878565b146104a65760405162461bcd60e51b815260206004820152602560248201527f6c6f747465727920686173206e6f742073746172746564206f72206974732065604482015264373232b21760d91b6064820152608401610319565b6001805480820182556000919091527fb10e2d527612073b26eecdfd717e6a320cf44b4afac2b0732d9fcbe2b7fa0cf60180546001600160a01b03191633179055565b60004260045411610502576104fc610588565b50600090565b600260065460ff16600281111561051b5761051b610878565b14156105755760405162461bcd60e51b8152602060048201526024808201527f6c6f7474657279206973206e6f742073746172746564206f722069747320656e6044820152633232b21760e11b6064820152608401610319565b426004546105839190610969565b905090565b6004544210156105e65760405162461bcd60e51b8152602060048201526024808201527f796f752063616e206e6f7420656e64206c6f7474657279206265666f7265207460448201526334b6b29760e11b6064820152608401610319565b6006805460ff191660021790556001546106335760405162461bcd60e51b815260206004820152600e60248201526d30207061727469636970616e747360901b6044820152606401610319565b6001546000906106416107c8565b61064b9190610980565b905060018181548110610660576106606109a2565b6000918252602082200154600380546001600160a01b0319166001600160a01b039092169190911790556106914790565b6003546040519192506001600160a01b0316904780156108fc02916000818181858888f193505050501580156106cb573d6000803e3d6000fd5b5060408051600081526020810191829052516106e9916001916107fe565b50600354604080516001600160a01b039092168252602082018390527f3cf1af53e79884a92609ce59db1ec9f584d88e2d14c8eaba43a21db81318301e910160405180910390a15050565b6001818154811061074457600080fd5b6000918252602090912001546001600160a01b0316905081565b6000805b6001548110156107bf57826001600160a01b031660018281548110610789576107896109a2565b6000918252602090912001546001600160a01b031614156107ad5750600192915050565b806107b7816109b8565b915050610762565b50600092915050565b6000444260016040516020016107e0939291906109d3565b6040516020818303038152906040528051906020012060001c905090565b828054828255906000526020600020908101928215610853579160200282015b8281111561085357825182546001600160a01b0319166001600160a01b0390911617825560209092019160019091019061081e565b5061085f929150610863565b5090565b5b8082111561085f5760008155600101610864565b634e487b7160e01b600052602160045260246000fd5b60208101600383106108b057634e487b7160e01b600052602160045260246000fd5b91905290565b6020808252825182820181905260009190848201906040850190845b818110156108f75783516001600160a01b0316835292840192918401916001016108d2565b50909695505050505050565b60006020828403121561091557600080fd5b5035919050565b634e487b7160e01b600052601160045260246000fd5b600081600019048311821515161561094c5761094c61091c565b500290565b600082198211156109645761096461091c565b500190565b60008282101561097b5761097b61091c565b500390565b60008261099d57634e487b7160e01b600052601260045260246000fd5b500690565b634e487b7160e01b600052603260045260246000fd5b60006000198214156109cc576109cc61091c565b5060010190565b838152600060208481840152604083018454856000528260002060005b82811015610a155781546001600160a01b0316845292840192600191820191016109f0565b50919897505050505050505056fea26469706673582212203e6d94a50fe9afddbe5249154d27492d6ff5b59c86348fefbdb8ba3662569fb364736f6c634300080a0033a264697066735822122006c83520aaf4f384d379e47e030cd605a60ff5a2e36be26678af05b71ec7478264736f6c634300080a0033","opcodes":"PUSH1 0x80 PUSH1 0x40 MSTORE PUSH1 0x0 PUSH1 0x1 SSTORE CALLVALUE DUP1 ISZERO PUSH2 0x15 JUMPI PUSH1 0x0 DUP1 REVERT JUMPDEST POP PUSH1 0x3 DUP1 SLOAD PUSH1 0x1 PUSH1 0x1 PUSH1 0xA0 SHL SUB NOT AND CALLER OR SWAP1 SSTORE PUSH2 0x11C1 DUP1 PUSH2 0x37 PUSH1 0x0 CODECOPY PUSH1 0x0 RETURN INVALID PUSH1 0x80 PUSH1 0x40 MSTORE CALLVALUE DUP1 ISZERO PUSH2 0x10 JUMPI PUSH1 0x0 DUP1 REVERT JUMPDEST POP PUSH1 0x4 CALLDATASIZE LT PUSH2 0x7D JUMPI PUSH1 0x0 CALLDATALOAD PUSH1 0xE0 SHR DUP1 PUSH4 0x8DD8C56D GT PUSH2 0x5B JUMPI DUP1 PUSH4 0x8DD8C56D EQ PUSH2 0x129 JUMPI DUP1 PUSH4 0xA1BBFCEE EQ PUSH2 0x13E JUMPI DUP1 PUSH4 0xBCC82EC4 EQ PUSH2 0x151 JUMPI DUP1 PUSH4 0xF530BCAB EQ PUSH2 0x166 JUMPI PUSH1 0x0 DUP1 REVERT JUMPDEST DUP1 PUSH4 0x481C6A75 EQ PUSH2 0x82 JUMPI DUP1 PUSH4 0x4FB3FCE7 EQ PUSH2 0xB2 JUMPI DUP1 PUSH4 0x59D23279 EQ PUSH2 0xC7 JUMPI JUMPDEST PUSH1 0x0 DUP1 REVERT JUMPDEST PUSH1 0x3 SLOAD PUSH2 0x95 SWAP1 PUSH1 0x1 PUSH1 0x1 PUSH1 0xA0 SHL SUB AND DUP2 JUMP JUMPDEST PUSH1 0x40 MLOAD PUSH1 0x1 PUSH1 0x1 PUSH1 0xA0 SHL SUB SWAP1 SWAP2 AND DUP2 MSTORE PUSH1 0x20 ADD JUMPDEST PUSH1 0x40 MLOAD DUP1 SWAP2 SUB SWAP1 RETURN JUMPDEST PUSH2 0xBA PUSH2 0x17D JUMP JUMPDEST PUSH1 0x40 MLOAD PUSH2 0xA9 SWAP2 SWAP1 PUSH2 0x4F6 JUMP JUMPDEST PUSH2 0x103 PUSH2 0xD5 CALLDATASIZE PUSH1 0x4 PUSH2 0x55B JUMP JUMPDEST PUSH1 0x0 PUSH1 0x20 DUP2 SWAP1 MSTORE SWAP1 DUP2 MSTORE PUSH1 0x40 SWAP1 KECCAK256 DUP1 SLOAD PUSH1 0x1 DUP3 ADD SLOAD PUSH1 0x2 SWAP1 SWAP3 ADD SLOAD PUSH1 0x1 PUSH1 0x1 PUSH1 0xA0 SHL SUB SWAP2 DUP3 AND SWAP3 SWAP1 SWAP2 AND SWAP1 DUP4 JUMP JUMPDEST PUSH1 0x40 DUP1 MLOAD PUSH1 0x1 PUSH1 0x1 PUSH1 0xA0 SHL SUB SWAP5 DUP6 AND DUP2 MSTORE SWAP4 SWAP1 SWAP3 AND PUSH1 0x20 DUP5 ADD MSTORE SWAP1 DUP3 ADD MSTORE PUSH1 0x60 ADD PUSH2 0xA9 JUMP JUMPDEST PUSH2 0x13C PUSH2 0x137 CALLDATASIZE PUSH1 0x4 PUSH2 0x58B JUMP JUMPDEST PUSH2 0x294 JUMP JUMPDEST STOP JUMPDEST PUSH2 0x95 PUSH2 0x14C CALLDATASIZE PUSH1 0x4 PUSH2 0x58B JUMP JUMPDEST PUSH2 0x45D JUMP JUMPDEST PUSH2 0x159 PUSH2 0x487 JUMP JUMPDEST PUSH1 0x40 MLOAD PUSH2 0xA9 SWAP2 SWAP1 PUSH2 0x5A4 JUMP JUMPDEST PUSH2 0x16F PUSH1 0x1 SLOAD DUP2 JUMP JUMPDEST PUSH1 0x40 MLOAD SWAP1 DUP2 MSTORE PUSH1 0x20 ADD PUSH2 0xA9 JUMP JUMPDEST PUSH1 0x60 PUSH1 0x0 PUSH1 0x1 SLOAD PUSH8 0xFFFFFFFFFFFFFFFF DUP2 GT ISZERO PUSH2 0x19C JUMPI PUSH2 0x19C PUSH2 0x5F1 JUMP JUMPDEST PUSH1 0x40 MLOAD SWAP1 DUP1 DUP3 MSTORE DUP1 PUSH1 0x20 MUL PUSH1 0x20 ADD DUP3 ADD PUSH1 0x40 MSTORE DUP1 ISZERO PUSH2 0x1E7 JUMPI DUP2 PUSH1 0x20 ADD JUMPDEST PUSH1 0x40 DUP1 MLOAD PUSH1 0x60 DUP2 ADD DUP3 MSTORE PUSH1 0x0 DUP1 DUP3 MSTORE PUSH1 0x20 DUP1 DUP4 ADD DUP3 SWAP1 MSTORE SWAP3 DUP3 ADD MSTORE DUP3 MSTORE PUSH1 0x0 NOT SWAP1 SWAP3 ADD SWAP2 ADD DUP2 PUSH2 0x1BA JUMPI SWAP1 POP JUMPDEST POP SWAP1 POP PUSH1 0x0 JUMPDEST PUSH1 0x1 SLOAD DUP2 LT ISZERO PUSH2 0x28E JUMPI PUSH1 0x0 DUP1 PUSH1 0x2 DUP4 DUP2 SLOAD DUP2 LT PUSH2 0x20D JUMPI PUSH2 0x20D PUSH2 0x607 JUMP JUMPDEST PUSH1 0x0 SWAP2 DUP3 MSTORE PUSH1 0x20 DUP1 DUP4 KECCAK256 SWAP1 SWAP2 ADD SLOAD PUSH1 0x1 PUSH1 0x1 PUSH1 0xA0 SHL SUB SWAP1 DUP2 AND DUP5 MSTORE DUP4 DUP3 ADD SWAP5 SWAP1 SWAP5 MSTORE PUSH1 0x40 SWAP3 DUP4 ADD SWAP1 SWAP2 KECCAK256 DUP3 MLOAD PUSH1 0x60 DUP2 ADD DUP5 MSTORE DUP2 SLOAD DUP6 AND DUP2 MSTORE PUSH1 0x1 DUP3 ADD SLOAD SWAP1 SWAP5 AND SWAP2 DUP5 ADD SWAP2 SWAP1 SWAP2 MSTORE PUSH1 0x2 ADD SLOAD SWAP1 DUP3 ADD MSTORE DUP3 MLOAD DUP4 SWAP1 DUP4 SWAP1 DUP2 LT PUSH2 0x270 JUMPI PUSH2 0x270 PUSH2 0x607 JUMP JUMPDEST PUSH1 0x20 MUL PUSH1 0x20 ADD ADD DUP2 SWAP1 MSTORE POP DUP1 DUP1 PUSH2 0x286 SWAP1 PUSH2 0x633 JUMP JUMPDEST SWAP2 POP POP PUSH2 0x1ED JUMP JUMPDEST POP SWAP2 SWAP1 POP JUMP JUMPDEST PUSH1 0x0 CALLER PUSH1 0x40 MLOAD PUSH2 0x2A3 SWAP1 PUSH2 0x4E9 JUMP JUMPDEST PUSH1 0x1 PUSH1 0x1 PUSH1 0xA0 SHL SUB SWAP1 SWAP2 AND DUP2 MSTORE PUSH1 0x20 ADD PUSH1 0x40 MLOAD DUP1 SWAP2 SUB SWAP1 PUSH1 0x0 CREATE DUP1 ISZERO DUP1 ISZERO PUSH2 0x2CF JUMPI RETURNDATASIZE PUSH1 0x0 DUP1 RETURNDATACOPY RETURNDATASIZE PUSH1 0x0 REVERT JUMPDEST POP PUSH1 0x40 MLOAD PUSH4 0x95805DAD PUSH1 0xE0 SHL DUP2 MSTORE PUSH1 0x4 DUP2 ADD DUP5 SWAP1 MSTORE SWAP1 SWAP2 POP PUSH1 0x1 PUSH1 0x1 PUSH1 0xA0 SHL SUB DUP3 AND SWAP1 PUSH4 0x95805DAD SWAP1 PUSH1 0x24 ADD PUSH1 0x0 PUSH1 0x40 MLOAD DUP1 DUP4 SUB DUP2 PUSH1 0x0 DUP8 DUP1 EXTCODESIZE ISZERO DUP1 ISZERO PUSH2 0x315 JUMPI PUSH1 0x0 DUP1 REVERT JUMPDEST POP GAS CALL ISZERO DUP1 ISZERO PUSH2 0x329 JUMPI RETURNDATASIZE PUSH1 0x0 DUP1 RETURNDATACOPY RETURNDATASIZE PUSH1 0x0 REVERT JUMPDEST POP POP PUSH1 0x40 DUP1 MLOAD PUSH1 0x60 DUP2 ADD DUP3 MSTORE PUSH1 0x1 PUSH1 0x1 PUSH1 0xA0 SHL SUB DUP6 AND DUP2 MSTORE CALLER PUSH1 0x20 DUP3 ADD MSTORE SWAP3 POP DUP3 ADD SWAP1 POP PUSH2 0x358 DUP5 PUSH1 0x3C PUSH2 0x64E JUMP JUMPDEST PUSH2 0x362 SWAP1 TIMESTAMP PUSH2 0x66D JUMP JUMPDEST SWAP1 MSTORE PUSH1 0x1 PUSH1 0x1 PUSH1 0xA0 SHL SUB DUP1 DUP4 AND PUSH1 0x0 SWAP1 DUP2 MSTORE PUSH1 0x20 DUP2 DUP2 MSTORE PUSH1 0x40 DUP1 DUP4 KECCAK256 DUP6 MLOAD DUP2 SLOAD SWAP1 DUP7 AND PUSH1 0x1 PUSH1 0x1 PUSH1 0xA0 SHL SUB NOT SWAP2 DUP3 AND OR DUP3 SSTORE SWAP3 DUP7 ADD MLOAD PUSH1 0x1 DUP1 DUP4 ADD DUP1 SLOAD SWAP3 SWAP1 SWAP8 AND SWAP2 SWAP1 SWAP5 AND OR SWAP1 SWAP5 SSTORE SWAP4 SWAP1 SWAP4 ADD MLOAD PUSH1 0x2 SWAP1 SWAP3 ADD SWAP2 SWAP1 SWAP2 SSTORE DUP2 SLOAD DUP3 SWAP2 SWAP1 PUSH2 0x3C9 SWAP1 DUP4 SWAP1 PUSH2 0x66D JUMP JUMPDEST SWAP1 SWAP2 SSTORE POP POP PUSH1 0x40 MLOAD PUSH1 0x1 PUSH1 0x1 PUSH1 0xA0 SHL SUB DUP3 AND DUP2 MSTORE PUSH32 0xE610764CBCBA803247DF3450B7492F6A0084B7B5B734A7901C13FEF8F84FFAF4 SWAP1 PUSH1 0x20 ADD PUSH1 0x40 MLOAD DUP1 SWAP2 SUB SWAP1 LOG1 PUSH1 0x2 DUP1 SLOAD PUSH1 0x1 DUP2 ADD DUP3 SSTORE PUSH1 0x0 SWAP2 SWAP1 SWAP2 MSTORE PUSH32 0x405787FA12A823E0F2B7631CC41B3BA8828B3321CA811111FA75CD3AA3BB5ACE ADD DUP1 SLOAD PUSH1 0x1 PUSH1 0x1 PUSH1 0xA0 SHL SUB NOT AND PUSH1 0x1 PUSH1 0x1 PUSH1 0xA0 SHL SUB SWAP3 SWAP1 SWAP3 AND SWAP2 SWAP1 SWAP2 OR SWAP1 SSTORE POP JUMP JUMPDEST PUSH1 0x2 DUP2 DUP2 SLOAD DUP2 LT PUSH2 0x46D JUMPI PUSH1 0x0 DUP1 REVERT JUMPDEST PUSH1 0x0 SWAP2 DUP3 MSTORE PUSH1 0x20 SWAP1 SWAP2 KECCAK256 ADD SLOAD PUSH1 0x1 PUSH1 0x1 PUSH1 0xA0 SHL SUB AND SWAP1 POP DUP2 JUMP JUMPDEST PUSH1 0x60 PUSH1 0x2 DUP1 SLOAD DUP1 PUSH1 0x20 MUL PUSH1 0x20 ADD PUSH1 0x40 MLOAD SWAP1 DUP2 ADD PUSH1 0x40 MSTORE DUP1 SWAP3 SWAP2 SWAP1 DUP2 DUP2 MSTORE PUSH1 0x20 ADD DUP3 DUP1 SLOAD DUP1 ISZERO PUSH2 0x4DF JUMPI PUSH1 0x20 MUL DUP3 ADD SWAP2 SWAP1 PUSH1 0x0 MSTORE PUSH1 0x20 PUSH1 0x0 KECCAK256 SWAP1 JUMPDEST DUP2 SLOAD PUSH1 0x1 PUSH1 0x1 PUSH1 0xA0 SHL SUB AND DUP2 MSTORE PUSH1 0x1 SWAP1 SWAP2 ADD SWAP1 PUSH1 0x20 ADD DUP1 DUP4 GT PUSH2 0x4C1 JUMPI JUMPDEST POP POP POP POP POP SWAP1 POP SWAP1 JUMP JUMPDEST PUSH2 0xB06 DUP1 PUSH2 0x686 DUP4 CODECOPY ADD SWAP1 JUMP JUMPDEST PUSH1 0x20 DUP1 DUP3 MSTORE DUP3 MLOAD DUP3 DUP3 ADD DUP2 SWAP1 MSTORE PUSH1 0x0 SWAP2 SWAP1 PUSH1 0x40 SWAP1 DUP2 DUP6 ADD SWAP1 DUP7 DUP5 ADD DUP6 JUMPDEST DUP3 DUP2 LT ISZERO PUSH2 0x54E JUMPI DUP2 MLOAD DUP1 MLOAD PUSH1 0x1 PUSH1 0x1 PUSH1 0xA0 SHL SUB SWAP1 DUP2 AND DUP7 MSTORE DUP8 DUP3 ADD MLOAD AND DUP8 DUP7 ADD MSTORE DUP6 ADD MLOAD DUP6 DUP6 ADD MSTORE PUSH1 0x60 SWAP1 SWAP4 ADD SWAP3 SWAP1 DUP6 ADD SWAP1 PUSH1 0x1 ADD PUSH2 0x513 JUMP JUMPDEST POP SWAP2 SWAP8 SWAP7 POP POP POP POP POP POP POP JUMP JUMPDEST PUSH1 0x0 PUSH1 0x20 DUP3 DUP5 SUB SLT ISZERO PUSH2 0x56D JUMPI PUSH1 0x0 DUP1 REVERT JUMPDEST DUP2 CALLDATALOAD PUSH1 0x1 PUSH1 0x1 PUSH1 0xA0 SHL SUB DUP2 AND DUP2 EQ PUSH2 0x584 JUMPI PUSH1 0x0 DUP1 REVERT JUMPDEST SWAP4 SWAP3 POP POP POP JUMP JUMPDEST PUSH1 0x0 PUSH1 0x20 DUP3 DUP5 SUB SLT ISZERO PUSH2 0x59D JUMPI PUSH1 0x0 DUP1 REVERT JUMPDEST POP CALLDATALOAD SWAP2 SWAP1 POP JUMP JUMPDEST PUSH1 0x20 DUP1 DUP3 MSTORE DUP3 MLOAD DUP3 DUP3 ADD DUP2 SWAP1 MSTORE PUSH1 0x0 SWAP2 SWAP1 DUP5 DUP3 ADD SWAP1 PUSH1 0x40 DUP6 ADD SWAP1 DUP5 JUMPDEST DUP2 DUP2 LT ISZERO PUSH2 0x5E5 JUMPI DUP4 MLOAD PUSH1 0x1 PUSH1 0x1 PUSH1 0xA0 SHL SUB AND DUP4 MSTORE SWAP3 DUP5 ADD SWAP3 SWAP2 DUP5 ADD SWAP2 PUSH1 0x1 ADD PUSH2 0x5C0 JUMP JUMPDEST POP SWAP1 SWAP7 SWAP6 POP POP POP POP POP POP JUMP JUMPDEST PUSH4 0x4E487B71 PUSH1 0xE0 SHL PUSH1 0x0 MSTORE PUSH1 0x41 PUSH1 0x4 MSTORE PUSH1 0x24 PUSH1 0x0 REVERT JUMPDEST PUSH4 0x4E487B71 PUSH1 0xE0 SHL PUSH1 0x0 MSTORE PUSH1 0x32 PUSH1 0x4 MSTORE PUSH1 0x24 PUSH1 0x0 REVERT JUMPDEST PUSH4 0x4E487B71 PUSH1 0xE0 SHL PUSH1 0x0 MSTORE PUSH1 0x11 PUSH1 0x4 MSTORE PUSH1 0x24 PUSH1 0x0 REVERT JUMPDEST PUSH1 0x0 PUSH1 0x0 NOT DUP3 EQ ISZERO PUSH2 0x647 JUMPI PUSH2 0x647 PUSH2 0x61D JUMP JUMPDEST POP PUSH1 0x1 ADD SWAP1 JUMP JUMPDEST PUSH1 0x0 DUP2 PUSH1 0x0 NOT DIV DUP4 GT DUP3 ISZERO ISZERO AND ISZERO PUSH2 0x668 JUMPI PUSH2 0x668 PUSH2 0x61D JUMP JUMPDEST POP MUL SWAP1 JUMP JUMPDEST PUSH1 0x0 DUP3 NOT DUP3 GT ISZERO PUSH2 0x680 JUMPI PUSH2 0x680 PUSH2 0x61D JUMP JUMPDEST POP ADD SWAP1 JUMP INVALID PUSH1 0x80 PUSH1 0x40 MSTORE PUSH8 0x16345785D8A0000 PUSH1 0x2 SSTORE TIMESTAMP PUSH1 0x5 SSTORE PUSH1 0x6 DUP1 SLOAD PUSH1 0xFF NOT AND SWAP1 SSTORE CALLVALUE DUP1 ISZERO PUSH2 0x2A JUMPI PUSH1 0x0 DUP1 REVERT JUMPDEST POP PUSH1 0x40 MLOAD PUSH2 0xB06 CODESIZE SUB DUP1 PUSH2 0xB06 DUP4 CODECOPY DUP2 ADD PUSH1 0x40 DUP2 SWAP1 MSTORE PUSH2 0x49 SWAP2 PUSH2 0x6E JUMP JUMPDEST PUSH1 0x0 DUP1 SLOAD PUSH1 0x1 PUSH1 0x1 PUSH1 0xA0 SHL SUB NOT AND PUSH1 0x1 PUSH1 0x1 PUSH1 0xA0 SHL SUB SWAP3 SWAP1 SWAP3 AND SWAP2 SWAP1 SWAP2 OR SWAP1 SSTORE PUSH2 0x9E JUMP JUMPDEST PUSH1 0x0 PUSH1 0x20 DUP3 DUP5 SUB SLT ISZERO PUSH2 0x80 JUMPI PUSH1 0x0 DUP1 REVERT JUMPDEST DUP2 MLOAD PUSH1 0x1 PUSH1 0x1 PUSH1 0xA0 SHL SUB DUP2 AND DUP2 EQ PUSH2 0x97 JUMPI PUSH1 0x0 DUP1 REVERT JUMPDEST SWAP4 SWAP3 POP POP POP JUMP JUMPDEST PUSH2 0xA59 DUP1 PUSH2 0xAD PUSH1 0x0 CODECOPY PUSH1 0x0 RETURN INVALID PUSH1 0x80 PUSH1 0x40 MSTORE PUSH1 0x4 CALLDATASIZE LT PUSH2 0xC2 JUMPI PUSH1 0x0 CALLDATALOAD PUSH1 0xE0 SHR DUP1 PUSH4 0x8E7EA5B2 GT PUSH2 0x7F JUMPI DUP1 PUSH4 0xE97DCB62 GT PUSH2 0x59 JUMPI DUP1 PUSH4 0xE97DCB62 EQ PUSH2 0x1F0 JUMPI DUP1 PUSH4 0xEFB98BCF EQ PUSH2 0x1F8 JUMPI DUP1 PUSH4 0xEFBE1C1C EQ PUSH2 0x20D JUMPI DUP1 PUSH4 0xF71D96CB EQ PUSH2 0x222 JUMPI PUSH1 0x0 DUP1 REVERT JUMPDEST DUP1 PUSH4 0x8E7EA5B2 EQ PUSH2 0x19D JUMPI DUP1 PUSH4 0x95805DAD EQ PUSH2 0x1BB JUMPI DUP1 PUSH4 0xC1F52604 EQ PUSH2 0x1DD JUMPI PUSH1 0x0 DUP1 REVERT JUMPDEST DUP1 PUSH4 0x72EA61C EQ PUSH2 0xC7 JUMPI DUP1 PUSH4 0x16ADA547 EQ PUSH2 0xF0 JUMPI DUP1 PUSH4 0x200D2ED2 EQ PUSH2 0x106 JUMPI DUP1 PUSH4 0x3C20EE6E EQ PUSH2 0x12D JUMPI DUP1 PUSH4 0x481C6A75 EQ PUSH2 0x143 JUMPI DUP1 PUSH4 0x8B5B9CCC EQ PUSH2 0x17B JUMPI JUMPDEST PUSH1 0x0 DUP1 REVERT JUMPDEST CALLVALUE DUP1 ISZERO PUSH2 0xD3 JUMPI PUSH1 0x0 DUP1 REVERT JUMPDEST POP PUSH2 0xDD PUSH1 0x2 SLOAD DUP2 JUMP JUMPDEST PUSH1 0x40 MLOAD SWAP1 DUP2 MSTORE PUSH1 0x20 ADD JUMPDEST PUSH1 0x40 MLOAD DUP1 SWAP2 SUB SWAP1 RETURN JUMPDEST CALLVALUE DUP1 ISZERO PUSH2 0xFC JUMPI PUSH1 0x0 DUP1 REVERT JUMPDEST POP PUSH2 0xDD PUSH1 0x5 SLOAD DUP2 JUMP JUMPDEST CALLVALUE DUP1 ISZERO PUSH2 0x112 JUMPI PUSH1 0x0 DUP1 REVERT JUMPDEST POP PUSH1 0x6 SLOAD PUSH2 0x120 SWAP1 PUSH1 0xFF AND DUP2 JUMP JUMPDEST PUSH1 0x40 MLOAD PUSH2 0xE7 SWAP2 SWAP1 PUSH2 0x88E JUMP JUMPDEST CALLVALUE DUP1 ISZERO PUSH2 0x139 JUMPI PUSH1 0x0 DUP1 REVERT JUMPDEST POP PUSH2 0xDD PUSH1 0x4 SLOAD DUP2 JUMP JUMPDEST CALLVALUE DUP1 ISZERO PUSH2 0x14F JUMPI PUSH1 0x0 DUP1 REVERT JUMPDEST POP PUSH1 0x0 SLOAD PUSH2 0x163 SWAP1 PUSH1 0x1 PUSH1 0x1 PUSH1 0xA0 SHL SUB AND DUP2 JUMP JUMPDEST PUSH1 0x40 MLOAD PUSH1 0x1 PUSH1 0x1 PUSH1 0xA0 SHL SUB SWAP1 SWAP2 AND DUP2 MSTORE PUSH1 0x20 ADD PUSH2 0xE7 JUMP JUMPDEST CALLVALUE DUP1 ISZERO PUSH2 0x187 JUMPI PUSH1 0x0 DUP1 REVERT JUMPDEST POP PUSH2 0x190 PUSH2 0x242 JUMP JUMPDEST PUSH1 0x40 MLOAD PUSH2 0xE7 SWAP2 SWAP1 PUSH2 0x8B6 JUMP JUMPDEST CALLVALUE DUP1 ISZERO PUSH2 0x1A9 JUMPI PUSH1 0x0 DUP1 REVERT JUMPDEST POP PUSH1 0x3 SLOAD PUSH1 0x1 PUSH1 0x1 PUSH1 0xA0 SHL SUB AND PUSH2 0x163 JUMP JUMPDEST CALLVALUE DUP1 ISZERO PUSH2 0x1C7 JUMPI PUSH1 0x0 DUP1 REVERT JUMPDEST POP PUSH2 0x1DB PUSH2 0x1D6 CALLDATASIZE PUSH1 0x4 PUSH2 0x903 JUMP JUMPDEST PUSH2 0x2A4 JUMP JUMPDEST STOP JUMPDEST CALLVALUE DUP1 ISZERO PUSH2 0x1E9 JUMPI PUSH1 0x0 DUP1 REVERT JUMPDEST POP SELFBALANCE PUSH2 0xDD JUMP JUMPDEST PUSH2 0x1DB PUSH2 0x34A JUMP JUMPDEST CALLVALUE DUP1 ISZERO PUSH2 0x204 JUMPI PUSH1 0x0 DUP1 REVERT JUMPDEST POP PUSH2 0xDD PUSH2 0x4E9 JUMP JUMPDEST CALLVALUE DUP1 ISZERO PUSH2 0x219 JUMPI PUSH1 0x0 DUP1 REVERT JUMPDEST POP PUSH2 0x1DB PUSH2 0x588 JUMP JUMPDEST CALLVALUE DUP1 ISZERO PUSH2 0x22E JUMPI PUSH1 0x0 DUP1 REVERT JUMPDEST POP PUSH2 0x163 PUSH2 0x23D CALLDATASIZE PUSH1 0x4 PUSH2 0x903 JUMP JUMPDEST PUSH2 0x734 JUMP JUMPDEST PUSH1 0x60 PUSH1 0x1 DUP1 SLOAD DUP1 PUSH1 0x20 MUL PUSH1 0x20 ADD PUSH1 0x40 MLOAD SWAP1 DUP2 ADD PUSH1 0x40 MSTORE DUP1 SWAP3 SWAP2 SWAP1 DUP2 DUP2 MSTORE PUSH1 0x20 ADD DUP3 DUP1 SLOAD DUP1 ISZERO PUSH2 0x29A JUMPI PUSH1 0x20 MUL DUP3 ADD SWAP2 SWAP1 PUSH1 0x0 MSTORE PUSH1 0x20 PUSH1 0x0 KECCAK256 SWAP1 JUMPDEST DUP2 SLOAD PUSH1 0x1 PUSH1 0x1 PUSH1 0xA0 SHL SUB AND DUP2 MSTORE PUSH1 0x1 SWAP1 SWAP2 ADD SWAP1 PUSH1 0x20 ADD DUP1 DUP4 GT PUSH2 0x27C JUMPI JUMPDEST POP POP POP POP POP SWAP1 POP SWAP1 JUMP JUMPDEST PUSH1 0x0 PUSH1 0x6 SLOAD PUSH1 0xFF AND PUSH1 0x2 DUP2 GT ISZERO PUSH2 0x2BD JUMPI PUSH2 0x2BD PUSH2 0x878 JUMP JUMPDEST EQ PUSH2 0x322 JUMPI PUSH1 0x40 MLOAD PUSH3 0x461BCD PUSH1 0xE5 SHL DUP2 MSTORE PUSH1 0x20 PUSH1 0x4 DUP3 ADD MSTORE PUSH1 0x2A PUSH1 0x24 DUP3 ADD MSTORE PUSH32 0x6C6F74746572792068617320616C7265616479206265656E2073746172746564 PUSH1 0x44 DUP3 ADD MSTORE PUSH10 0x1037B91032B73232B217 PUSH1 0xB1 SHL PUSH1 0x64 DUP3 ADD MSTORE PUSH1 0x84 ADD JUMPDEST PUSH1 0x40 MLOAD DUP1 SWAP2 SUB SWAP1 REVERT JUMPDEST PUSH1 0x6 DUP1 SLOAD PUSH1 0xFF NOT AND PUSH1 0x1 OR SWAP1 SSTORE PUSH2 0x33A DUP2 PUSH1 0x3C PUSH2 0x932 JUMP JUMPDEST PUSH2 0x344 SWAP1 TIMESTAMP PUSH2 0x951 JUMP JUMPDEST PUSH1 0x4 SSTORE POP JUMP JUMPDEST TIMESTAMP PUSH1 0x4 SLOAD LT ISZERO PUSH2 0x38A JUMPI PUSH1 0x40 MLOAD PUSH3 0x461BCD PUSH1 0xE5 SHL DUP2 MSTORE PUSH1 0x20 PUSH1 0x4 DUP3 ADD MSTORE PUSH1 0xB PUSH1 0x24 DUP3 ADD MSTORE PUSH11 0x3A34B6B29034B9903AB817 PUSH1 0xA9 SHL PUSH1 0x44 DUP3 ADD MSTORE PUSH1 0x64 ADD PUSH2 0x319 JUMP JUMPDEST PUSH2 0x393 CALLER PUSH2 0x75E JUMP JUMPDEST ISZERO PUSH2 0x3E0 JUMPI PUSH1 0x40 MLOAD PUSH3 0x461BCD PUSH1 0xE5 SHL DUP2 MSTORE PUSH1 0x20 PUSH1 0x4 DUP3 ADD MSTORE PUSH1 0x1D PUSH1 0x24 DUP3 ADD MSTORE PUSH32 0x796F752061726520616C72656164792061207061727469636970616E74000000 PUSH1 0x44 DUP3 ADD MSTORE PUSH1 0x64 ADD PUSH2 0x319 JUMP JUMPDEST PUSH1 0x2 SLOAD CALLVALUE LT ISZERO PUSH2 0x432 JUMPI PUSH1 0x40 MLOAD PUSH3 0x461BCD PUSH1 0xE5 SHL DUP2 MSTORE PUSH1 0x20 PUSH1 0x4 DUP3 ADD DUP2 SWAP1 MSTORE PUSH1 0x24 DUP3 ADD MSTORE PUSH32 0x656E74727920666565206973206C657373207468656E20302E31206574686572 PUSH1 0x44 DUP3 ADD MSTORE PUSH1 0x64 ADD PUSH2 0x319 JUMP JUMPDEST PUSH1 0x1 PUSH1 0x6 SLOAD PUSH1 0xFF AND PUSH1 0x2 DUP2 GT ISZERO PUSH2 0x44B JUMPI PUSH2 0x44B PUSH2 0x878 JUMP JUMPDEST EQ PUSH2 0x4A6 JUMPI PUSH1 0x40 MLOAD PUSH3 0x461BCD PUSH1 0xE5 SHL DUP2 MSTORE PUSH1 0x20 PUSH1 0x4 DUP3 ADD MSTORE PUSH1 0x25 PUSH1 0x24 DUP3 ADD MSTORE PUSH32 0x6C6F747465727920686173206E6F742073746172746564206F72206974732065 PUSH1 0x44 DUP3 ADD MSTORE PUSH5 0x373232B217 PUSH1 0xD9 SHL PUSH1 0x64 DUP3 ADD MSTORE PUSH1 0x84 ADD PUSH2 0x319 JUMP JUMPDEST PUSH1 0x1 DUP1 SLOAD DUP1 DUP3 ADD DUP3 SSTORE PUSH1 0x0 SWAP2 SWAP1 SWAP2 MSTORE PUSH32 0xB10E2D527612073B26EECDFD717E6A320CF44B4AFAC2B0732D9FCBE2B7FA0CF6 ADD DUP1 SLOAD PUSH1 0x1 PUSH1 0x1 PUSH1 0xA0 SHL SUB NOT AND CALLER OR SWAP1 SSTORE JUMP JUMPDEST PUSH1 0x0 TIMESTAMP PUSH1 0x4 SLOAD GT PUSH2 0x502 JUMPI PUSH2 0x4FC PUSH2 0x588 JUMP JUMPDEST POP PUSH1 0x0 SWAP1 JUMP JUMPDEST PUSH1 0x2 PUSH1 0x6 SLOAD PUSH1 0xFF AND PUSH1 0x2 DUP2 GT ISZERO PUSH2 0x51B JUMPI PUSH2 0x51B PUSH2 0x878 JUMP JUMPDEST EQ ISZERO PUSH2 0x575 JUMPI PUSH1 0x40 MLOAD PUSH3 0x461BCD PUSH1 0xE5 SHL DUP2 MSTORE PUSH1 0x20 PUSH1 0x4 DUP3 ADD MSTORE PUSH1 0x24 DUP1 DUP3 ADD MSTORE PUSH32 0x6C6F7474657279206973206E6F742073746172746564206F722069747320656E PUSH1 0x44 DUP3 ADD MSTORE PUSH4 0x3232B217 PUSH1 0xE1 SHL PUSH1 0x64 DUP3 ADD MSTORE PUSH1 0x84 ADD PUSH2 0x319 JUMP JUMPDEST TIMESTAMP PUSH1 0x4 SLOAD PUSH2 0x583 SWAP2 SWAP1 PUSH2 0x969 JUMP JUMPDEST SWAP1 POP SWAP1 JUMP JUMPDEST PUSH1 0x4 SLOAD TIMESTAMP LT ISZERO PUSH2 0x5E6 JUMPI PUSH1 0x40 MLOAD PUSH3 0x461BCD PUSH1 0xE5 SHL DUP2 MSTORE PUSH1 0x20 PUSH1 0x4 DUP3 ADD MSTORE PUSH1 0x24 DUP1 DUP3 ADD MSTORE PUSH32 0x796F752063616E206E6F7420656E64206C6F7474657279206265666F72652074 PUSH1 0x44 DUP3 ADD MSTORE PUSH4 0x34B6B297 PUSH1 0xE1 SHL PUSH1 0x64 DUP3 ADD MSTORE PUSH1 0x84 ADD PUSH2 0x319 JUMP JUMPDEST PUSH1 0x6 DUP1 SLOAD PUSH1 0xFF NOT AND PUSH1 0x2 OR SWAP1 SSTORE PUSH1 0x1 SLOAD PUSH2 0x633 JUMPI PUSH1 0x40 MLOAD PUSH3 0x461BCD PUSH1 0xE5 SHL DUP2 MSTORE PUSH1 0x20 PUSH1 0x4 DUP3 ADD MSTORE PUSH1 0xE PUSH1 0x24 DUP3 ADD MSTORE PUSH14 0x30207061727469636970616E7473 PUSH1 0x90 SHL PUSH1 0x44 DUP3 ADD MSTORE PUSH1 0x64 ADD PUSH2 0x319 JUMP JUMPDEST PUSH1 0x1 SLOAD PUSH1 0x0 SWAP1 PUSH2 0x641 PUSH2 0x7C8 JUMP JUMPDEST PUSH2 0x64B SWAP2 SWAP1 PUSH2 0x980 JUMP JUMPDEST SWAP1 POP PUSH1 0x1 DUP2 DUP2 SLOAD DUP2 LT PUSH2 0x660 JUMPI PUSH2 0x660 PUSH2 0x9A2 JUMP JUMPDEST PUSH1 0x0 SWAP2 DUP3 MSTORE PUSH1 0x20 DUP3 KECCAK256 ADD SLOAD PUSH1 0x3 DUP1 SLOAD PUSH1 0x1 PUSH1 0x1 PUSH1 0xA0 SHL SUB NOT AND PUSH1 0x1 PUSH1 0x1 PUSH1 0xA0 SHL SUB SWAP1 SWAP3 AND SWAP2 SWAP1 SWAP2 OR SWAP1 SSTORE PUSH2 0x691 SELFBALANCE SWAP1 JUMP JUMPDEST PUSH1 0x3 SLOAD PUSH1 0x40 MLOAD SWAP2 SWAP3 POP PUSH1 0x1 PUSH1 0x1 PUSH1 0xA0 SHL SUB AND SWAP1 SELFBALANCE DUP1 ISZERO PUSH2 0x8FC MUL SWAP2 PUSH1 0x0 DUP2 DUP2 DUP2 DUP6 DUP9 DUP9 CALL SWAP4 POP POP POP POP ISZERO DUP1 ISZERO PUSH2 0x6CB JUMPI RETURNDATASIZE PUSH1 0x0 DUP1 RETURNDATACOPY RETURNDATASIZE PUSH1 0x0 REVERT JUMPDEST POP PUSH1 0x40 DUP1 MLOAD PUSH1 0x0 DUP2 MSTORE PUSH1 0x20 DUP2 ADD SWAP2 DUP3 SWAP1 MSTORE MLOAD PUSH2 0x6E9 SWAP2 PUSH1 0x1 SWAP2 PUSH2 0x7FE JUMP JUMPDEST POP PUSH1 0x3 SLOAD PUSH1 0x40 DUP1 MLOAD PUSH1 0x1 PUSH1 0x1 PUSH1 0xA0 SHL SUB SWAP1 SWAP3 AND DUP3 MSTORE PUSH1 0x20 DUP3 ADD DUP4 SWAP1 MSTORE PUSH32 0x3CF1AF53E79884A92609CE59DB1EC9F584D88E2D14C8EABA43A21DB81318301E SWAP2 ADD PUSH1 0x40 MLOAD DUP1 SWAP2 SUB SWAP1 LOG1 POP POP JUMP JUMPDEST PUSH1 0x1 DUP2 DUP2 SLOAD DUP2 LT PUSH2 0x744 JUMPI PUSH1 0x0 DUP1 REVERT JUMPDEST PUSH1 0x0 SWAP2 DUP3 MSTORE PUSH1 0x20 SWAP1 SWAP2 KECCAK256 ADD SLOAD PUSH1 0x1 PUSH1 0x1 PUSH1 0xA0 SHL SUB AND SWAP1 POP DUP2 JUMP JUMPDEST PUSH1 0x0 DUP1 JUMPDEST PUSH1 0x1 SLOAD DUP2 LT ISZERO PUSH2 0x7BF JUMPI DUP3 PUSH1 0x1 PUSH1 0x1 PUSH1 0xA0 SHL SUB AND PUSH1 0x1 DUP3 DUP2 SLOAD DUP2 LT PUSH2 0x789 JUMPI PUSH2 0x789 PUSH2 0x9A2 JUMP JUMPDEST PUSH1 0x0 SWAP2 DUP3 MSTORE PUSH1 0x20 SWAP1 SWAP2 KECCAK256 ADD SLOAD PUSH1 0x1 PUSH1 0x1 PUSH1 0xA0 SHL SUB AND EQ ISZERO PUSH2 0x7AD JUMPI POP PUSH1 0x1 SWAP3 SWAP2 POP POP JUMP JUMPDEST DUP1 PUSH2 0x7B7 DUP2 PUSH2 0x9B8 JUMP JUMPDEST SWAP2 POP POP PUSH2 0x762 JUMP JUMPDEST POP PUSH1 0x0 SWAP3 SWAP2 POP POP JUMP JUMPDEST PUSH1 0x0 DIFFICULTY TIMESTAMP PUSH1 0x1 PUSH1 0x40 MLOAD PUSH1 0x20 ADD PUSH2 0x7E0 SWAP4 SWAP3 SWAP2 SWAP1 PUSH2 0x9D3 JUMP JUMPDEST PUSH1 0x40 MLOAD PUSH1 0x20 DUP2 DUP4 SUB SUB DUP2 MSTORE SWAP1 PUSH1 0x40 MSTORE DUP1 MLOAD SWAP1 PUSH1 0x20 ADD KECCAK256 PUSH1 0x0 SHR SWAP1 POP SWAP1 JUMP JUMPDEST DUP3 DUP1 SLOAD DUP3 DUP3 SSTORE SWAP1 PUSH1 0x0 MSTORE PUSH1 0x20 PUSH1 0x0 KECCAK256 SWAP1 DUP2 ADD SWAP3 DUP3 ISZERO PUSH2 0x853 JUMPI SWAP2 PUSH1 0x20 MUL DUP3 ADD JUMPDEST DUP3 DUP2 GT ISZERO PUSH2 0x853 JUMPI DUP3 MLOAD DUP3 SLOAD PUSH1 0x1 PUSH1 0x1 PUSH1 0xA0 SHL SUB NOT AND PUSH1 0x1 PUSH1 0x1 PUSH1 0xA0 SHL SUB SWAP1 SWAP2 AND OR DUP3 SSTORE PUSH1 0x20 SWAP1 SWAP3 ADD SWAP2 PUSH1 0x1 SWAP1 SWAP2 ADD SWAP1 PUSH2 0x81E JUMP JUMPDEST POP PUSH2 0x85F SWAP3 SWAP2 POP PUSH2 0x863 JUMP JUMPDEST POP SWAP1 JUMP JUMPDEST JUMPDEST DUP1 DUP3 GT ISZERO PUSH2 0x85F JUMPI PUSH1 0x0 DUP2 SSTORE PUSH1 0x1 ADD PUSH2 0x864 JUMP JUMPDEST PUSH4 0x4E487B71 PUSH1 0xE0 SHL PUSH1 0x0 MSTORE PUSH1 0x21 PUSH1 0x4 MSTORE PUSH1 0x24 PUSH1 0x0 REVERT JUMPDEST PUSH1 0x20 DUP2 ADD PUSH1 0x3 DUP4 LT PUSH2 0x8B0 JUMPI PUSH4 0x4E487B71 PUSH1 0xE0 SHL PUSH1 0x0 MSTORE PUSH1 0x21 PUSH1 0x4 MSTORE PUSH1 0x24 PUSH1 0x0 REVERT JUMPDEST SWAP2 SWAP1 MSTORE SWAP1 JUMP JUMPDEST PUSH1 0x20 DUP1 DUP3 MSTORE DUP3 MLOAD DUP3 DUP3 ADD DUP2 SWAP1 MSTORE PUSH1 0x0 SWAP2 SWAP1 DUP5 DUP3 ADD SWAP1 PUSH1 0x40 DUP6 ADD SWAP1 DUP5 JUMPDEST DUP2 DUP2 LT ISZERO PUSH2 0x8F7 JUMPI DUP4 MLOAD PUSH1 0x1 PUSH1 0x1 PUSH1 0xA0 SHL SUB AND DUP4 MSTORE SWAP3 DUP5 ADD SWAP3 SWAP2 DUP5 ADD SWAP2 PUSH1 0x1 ADD PUSH2 0x8D2 JUMP JUMPDEST POP SWAP1 SWAP7 SWAP6 POP POP POP POP POP POP JUMP JUMPDEST PUSH1 0x0 PUSH1 0x20 DUP3 DUP5 SUB SLT ISZERO PUSH2 0x915 JUMPI PUSH1 0x0 DUP1 REVERT JUMPDEST POP CALLDATALOAD SWAP2 SWAP1 POP JUMP JUMPDEST PUSH4 0x4E487B71 PUSH1 0xE0 SHL PUSH1 0x0 MSTORE PUSH1 0x11 PUSH1 0x4 MSTORE PUSH1 0x24 PUSH1 0x0 REVERT JUMPDEST PUSH1 0x0 DUP2 PUSH1 0x0 NOT DIV DUP4 GT DUP3 ISZERO ISZERO AND ISZERO PUSH2 0x94C JUMPI PUSH2 0x94C PUSH2 0x91C JUMP JUMPDEST POP MUL SWAP1 JUMP JUMPDEST PUSH1 0x0 DUP3 NOT DUP3 GT ISZERO PUSH2 0x964 JUMPI PUSH2 0x964 PUSH2 0x91C JUMP JUMPDEST POP ADD SWAP1 JUMP JUMPDEST PUSH1 0x0 DUP3 DUP3 LT ISZERO PUSH2 0x97B JUMPI PUSH2 0x97B PUSH2 0x91C JUMP JUMPDEST POP SUB SWAP1 JUMP JUMPDEST PUSH1 0x0 DUP3 PUSH2 0x99D JUMPI PUSH4 0x4E487B71 PUSH1 0xE0 SHL PUSH1 0x0 MSTORE PUSH1 0x12 PUSH1 0x4 MSTORE PUSH1 0x24 PUSH1 0x0 REVERT JUMPDEST POP MOD SWAP1 JUMP JUMPDEST PUSH4 0x4E487B71 PUSH1 0xE0 SHL PUSH1 0x0 MSTORE PUSH1 0x32 PUSH1 0x4 MSTORE PUSH1 0x24 PUSH1 0x0 REVERT JUMPDEST PUSH1 0x0 PUSH1 0x0 NOT DUP3 EQ ISZERO PUSH2 0x9CC JUMPI PUSH2 0x9CC PUSH2 0x91C JUMP JUMPDEST POP PUSH1 0x1 ADD SWAP1 JUMP JUMPDEST DUP4 DUP2 MSTORE PUSH1 0x0 PUSH1 0x20 DUP5 DUP2 DUP5 ADD MSTORE PUSH1 0x40 DUP4 ADD DUP5 SLOAD DUP6 PUSH1 0x0 MSTORE DUP3 PUSH1 0x0 KECCAK256 PUSH1 0x0 JUMPDEST DUP3 DUP2 LT ISZERO PUSH2 0xA15 JUMPI DUP2 SLOAD PUSH1 0x1 PUSH1 0x1 PUSH1 0xA0 SHL SUB AND DUP5 MSTORE SWAP3 DUP5 ADD SWAP3 PUSH1 0x1 SWAP2 DUP3 ADD SWAP2 ADD PUSH2 0x9F0 JUMP JUMPDEST POP SWAP2 SWAP9 SWAP8 POP POP POP POP POP POP POP POP JUMP INVALID LOG2 PUSH5 0x6970667358 0x22 SLT KECCAK256 RETURNDATACOPY PUSH14 0x94A50FE9AFDDBE5249154D27492D PUSH16 0xF5B59C86348FEFBDB8BA3662569FB364 PUSH20 0x6F6C634300080A0033A264697066735822122006 0xC8 CALLDATALOAD KECCAK256 0xAA DELEGATECALL RETURN DUP5 0xD3 PUSH26 0xE47E030CD605A60FF5A2E36BE26678AF05B71EC7478264736F6C PUSH4 0x4300080A STOP CALLER "},"gasEstimates":{"creation":{"codeDepositCost":"909000","executionCost":"30189","totalCost":"939189"},"external":{"createLottery(uint256)":"infinite","getLotteries()":"infinite","getLotteryContractDetails()":"infinite","lotteriesContractsAddresses(uint256)":"4625","lotteriesMapping(address)":"6861","manager()":"2327","totalLotteries()":"2361"}},"methodIdentifiers":{"createLottery(uint256)":"8dd8c56d","getLotteries()":"bcc82ec4","getLotteryContractDetails()":"4fb3fce7","lotteriesContractsAddresses(uint256)":"a1bbfcee","lotteriesMapping(address)":"59d23279","manager()":"481c6a75","totalLotteries()":"f530bcab"}},"storageLayout":{"storage":[{"astId":1777,"contract":"contracts/LotteryPool.sol:LotteryPool","label":"lotteriesMapping","offset":0,"slot":"0","type":"t_mapping(t_address,t_struct(lotteryStruct)1772_storage)"},{"astId":1780,"contract":"contracts/LotteryPool.sol:LotteryPool","label":"totalLotteries","offset":0,"slot":"1","type":"t_uint256"},{"astId":1787,"contract":"contracts/LotteryPool.sol:LotteryPool","label":"lotteriesContractsAddresses","offset":0,"slot":"2","type":"t_array(t_address)dyn_storage"},{"astId":1789,"contract":"contracts/LotteryPool.sol:LotteryPool","label":"manager","offset":0,"slot":"3","type":"t_address"}],"types":{"t_address":{"encoding":"inplace","label":"address","numberOfBytes":"20"},"t_array(t_address)dyn_storage":{"base":"t_address","encoding":"dynamic_array","label":"address[]","numberOfBytes":"32"},"t_contract(Lottery)1761":{"encoding":"inplace","label":"contract Lottery","numberOfBytes":"20"},"t_mapping(t_address,t_struct(lotteryStruct)1772_storage)":{"encoding":"mapping","key":"t_address","label":"mapping(address => struct LotteryPool.lotteryStruct)","numberOfBytes":"32","value":"t_struct(lotteryStruct)1772_storage"},"t_struct(lotteryStruct)1772_storage":{"encoding":"inplace","label":"struct LotteryPool.lotteryStruct","members":[{"astId":1767,"contract":"contracts/LotteryPool.sol:LotteryPool","label":"lotteryContract","offset":0,"slot":"0","type":"t_contract(Lottery)1761"},{"astId":1769,"contract":"contracts/LotteryPool.sol:LotteryPool","label":"manager","offset":0,"slot":"1","type":"t_address"},{"astId":1771,"contract":"contracts/LotteryPool.sol:LotteryPool","label":"endedTimeStamp","offset":0,"slot":"2","type":"t_uint256"}],"numberOfBytes":"96"},"t_uint256":{"encoding":"inplace","label":"uint256","numberOfBytes":"32"}}},"userdoc":{"kind":"user","methods":{},"version":1}}}}