{
  "_format": "hh-sol-artifact-1",
  "contractName": "StakingPool",
  "sourceName": "contracts/StakingPool.sol",
  "abi": [
    {
      "inputs": [],
      "stateMutability": "nonpayable",
      "type": "constructor"
    },
    {
      "anonymous": false,
      "inputs": [
        {
          "indexed": false,
          "internalType": "address",
          "name": "investor",
          "type": "address"
        }
      ],
      "name": "NewInvestor",
      "type": "event"
    },
    {
      "inputs": [],
      "name": "admin",
      "outputs": [
        {
          "internalType": "address",
          "name": "",
          "type": "address"
        }
      ],
      "stateMutability": "view",
      "type": "function"
    },
    {
      "inputs": [
        {
          "internalType": "address",
          "name": "",
          "type": "address"
        }
      ],
      "name": "balances",
      "outputs": [
        {
          "internalType": "uint256",
          "name": "",
          "type": "uint256"
        }
      ],
      "stateMutability": "view",
      "type": "function"
    },
    {
      "inputs": [
        {
          "internalType": "address",
          "name": "",
          "type": "address"
        }
      ],
      "name": "changeClaimed",
      "outputs": [
        {
          "internalType": "bool",
          "name": "",
          "type": "bool"
        }
      ],
      "stateMutability": "view",
      "type": "function"
    },
    {
      "inputs": [
        {
          "internalType": "bytes",
          "name": "pubkey",
          "type": "bytes"
        },
        {
          "internalType": "bytes",
          "name": "withdrawal_credentials",
          "type": "bytes"
        },
        {
          "internalType": "bytes",
          "name": "signature",
          "type": "bytes"
        },
        {
          "internalType": "bytes32",
          "name": "deposit_data_root",
          "type": "bytes32"
        }
      ],
      "name": "deposit",
      "outputs": [],
      "stateMutability": "nonpayable",
      "type": "function"
    },
    {
      "inputs": [],
      "name": "depositContract",
      "outputs": [
        {
          "internalType": "contract IDepositContract",
          "name": "",
          "type": "address"
        }
      ],
      "stateMutability": "view",
      "type": "function"
    },
    {
      "inputs": [],
      "name": "end",
      "outputs": [
        {
          "internalType": "uint256",
          "name": "",
          "type": "uint256"
        }
      ],
      "stateMutability": "view",
      "type": "function"
    },
    {
      "inputs": [],
      "name": "finalize",
      "outputs": [],
      "stateMutability": "nonpayable",
      "type": "function"
    },
    {
      "inputs": [],
      "name": "finalized",
      "outputs": [
        {
          "internalType": "bool",
          "name": "",
          "type": "bool"
        }
      ],
      "stateMutability": "view",
      "type": "function"
    },
    {
      "inputs": [],
      "name": "getChange",
      "outputs": [],
      "stateMutability": "nonpayable",
      "type": "function"
    },
    {
      "inputs": [],
      "name": "invest",
      "outputs": [],
      "stateMutability": "payable",
      "type": "function"
    },
    {
      "inputs": [
        {
          "internalType": "bytes",
          "name": "",
          "type": "bytes"
        }
      ],
      "name": "pubkeysUsed",
      "outputs": [
        {
          "internalType": "bool",
          "name": "",
          "type": "bool"
        }
      ],
      "stateMutability": "view",
      "type": "function"
    },
    {
      "inputs": [],
      "name": "totalChange",
      "outputs": [
        {
          "internalType": "uint256",
          "name": "",
          "type": "uint256"
        }
      ],
      "stateMutability": "view",
      "type": "function"
    },
    {
      "inputs": [],
      "name": "totalInvested",
      "outputs": [
        {
          "internalType": "uint256",
          "name": "",
          "type": "uint256"
        }
      ],
      "stateMutability": "view",
      "type": "function"
    }
  ],
  "bytecode": "0x6080604052600280546001600160a01b0319166f219ab540356cbb839cbe05303d7705fa17905534801561003257600080fd5b50600380546001600160a01b031916331790556100524262093a8061005a565b600455610080565b6000821982111561007b57634e487b7160e01b600052601160045260246000fd5b500190565b610a098061008f6000396000f3fe6080604052600436106100c25760003560e01c806391aa47891161007f578063e8b5e51f11610059578063e8b5e51f14610214578063e94ad65b1461021c578063efbe1c1c14610254578063f851a4401461026a57600080fd5b806391aa4789146101aa578063b3f05b97146101e5578063b7ed5abc146101ff57600080fd5b806322895118146100c757806327e235e3146100e95780634bb278f3146101295780635216aeec1461013e5780635411c7bd146101545780637aa8ff191461016a575b600080fd5b3480156100d357600080fd5b506100e76100e2366004610724565b61028a565b005b3480156100f557600080fd5b506101166101043660046107c7565b60006020819052908152604090205481565b6040519081526020015b60405180910390f35b34801561013557600080fd5b506100e7610423565b34801561014a57600080fd5b5061011660065481565b34801561016057600080fd5b5061011660075481565b34801561017657600080fd5b5061019a6101853660046107c7565b60086020526000908152604090205460ff1681565b6040519015158152602001610120565b3480156101b657600080fd5b5061019a6101c536600461080d565b805160208183018101805160018252928201919093012091525460ff1681565b3480156101f157600080fd5b5060055461019a9060ff1681565b34801561020b57600080fd5b506100e76104d1565b6100e7610631565b34801561022857600080fd5b5060025461023c906001600160a01b031681565b6040516001600160a01b039091168152602001610120565b34801561026057600080fd5b5061011660045481565b34801561027657600080fd5b5060035461023c906001600160a01b031681565b60055460ff1615156001146102d25760405162461bcd60e51b8152602060048201526009602482015268746f6f206561726c7960b81b60448201526064015b60405180910390fd5b6003546001600160a01b031633146103195760405162461bcd60e51b815260206004820152600a60248201526937b7363c9030b236b4b760b11b60448201526064016102c9565b6801bc16d674ec80000047101561032f57600080fd5b600187876040516103419291906108be565b9081526040519081900360200190205460ff16156103a15760405162461bcd60e51b815260206004820152601c60248201527f74686973207075626b65792077617320616c726561647920757365640000000060448201526064016102c9565b6002546040516304512a2360e31b81526001600160a01b03909116906322895118906801bc16d674ec800000906103e8908b908b908b908b908b908b908b906004016108f7565b6000604051808303818588803b15801561040157600080fd5b505af1158015610415573d6000803e3d6000fd5b505050505050505050505050565b6004544210156104615760405162461bcd60e51b8152602060048201526009602482015268746f6f206561726c7960b81b60448201526064016102c9565b60055460ff16156104a85760405162461bcd60e51b8152602060048201526011602482015270185b1c9958591e48199a5b985b1a5e9959607a1b60448201526064016102c9565b6005805460ff19166001179055476006556104cc6801bc16d674ec8000004761095e565b600755565b60055460ff1615156001146105185760405162461bcd60e51b815260206004820152600d60248201526c1b9bdd08199a5b985b1a5e9959609a1b60448201526064016102c9565b336000908152602081905260409020546105665760405162461bcd60e51b815260206004820152600f60248201526e3737ba1030b71034b73b32b9ba37b960891b60448201526064016102c9565b3360009081526008602052604090205460ff16156105bf5760405162461bcd60e51b815260206004820152601660248201527518da185b99d948185b1c9958591e4818db185a5b595960521b60448201526064016102c9565b336000908152600860209081526040808320805460ff19166001179055600654918390528220546007546105f39190610988565b6105fd91906109a7565b604051909150339082156108fc029083906000818181858888f1935050505015801561062d573d6000803e3d6000fd5b5050565b600454421061066d5760405162461bcd60e51b8152602060048201526008602482015267746f6f206c61746560c01b60448201526064016102c9565b336000908152602081905260409020546106b5576040513381527f97d33a7365e760e859a3453f70484ea24a4aeb75478205a52ac35174ead0ccf69060200160405180910390a15b33600090815260208190526040812080543492906106d49084906109bb565b9091555050565b60008083601f8401126106ed57600080fd5b50813567ffffffffffffffff81111561070557600080fd5b60208301915083602082850101111561071d57600080fd5b9250929050565b60008060008060008060006080888a03121561073f57600080fd5b873567ffffffffffffffff8082111561075757600080fd5b6107638b838c016106db565b909950975060208a013591508082111561077c57600080fd5b6107888b838c016106db565b909750955060408a01359150808211156107a157600080fd5b506107ae8a828b016106db565b989b979a50959894979596606090950135949350505050565b6000602082840312156107d957600080fd5b81356001600160a01b03811681146107f057600080fd5b9392505050565b634e487b7160e01b600052604160045260246000fd5b60006020828403121561081f57600080fd5b813567ffffffffffffffff8082111561083757600080fd5b818401915084601f83011261084b57600080fd5b81358181111561085d5761085d6107f7565b604051601f8201601f19908116603f01168101908382118183101715610885576108856107f7565b8160405282815287602084870101111561089e57600080fd5b826020860160208301376000928101602001929092525095945050505050565b8183823760009101908152919050565b81835281816020850137506000828201602090810191909152601f909101601f19169091010190565b60808152600061090b60808301898b6108ce565b828103602084015261091e81888a6108ce565b905082810360408401526109338186886108ce565b91505082606083015298975050505050505050565b634e487b7160e01b600052601260045260246000fd5b60008261096d5761096d610948565b500690565b634e487b7160e01b600052601160045260246000fd5b60008160001904831182151516156109a2576109a2610972565b500290565b6000826109b6576109b6610948565b500490565b600082198211156109ce576109ce610972565b50019056fea26469706673582212202d573e0961e3ccef759027a60fd98dafc1398a9c6dad2cb2ab3d8e43ade76a5864736f6c634300080a0033",
  "linkReferences": {},
  "deployedLinkReferences": {}
}