{
  "_format": "hh-sol-artifact-1",
  "contractName": "AiboostToken",
  "sourceName": "contracts/AiboostToken.sol",
  "abi": [
    {
      "anonymous": false,
      "inputs": [
        {
          "indexed": true,
          "internalType": "address",
          "name": "owner",
          "type": "address"
        },
        {
          "indexed": true,
          "internalType": "address",
          "name": "spender",
          "type": "address"
        },
        {
          "indexed": false,
          "internalType": "uint256",
          "name": "value",
          "type": "uint256"
        }
      ],
      "name": "Approval",
      "type": "event"
    },
    {
      "anonymous": false,
      "inputs": [
        {
          "indexed": true,
          "internalType": "address",
          "name": "to",
          "type": "address"
        },
        {
          "indexed": false,
          "internalType": "uint256",
          "name": "amount",
          "type": "uint256"
        }
      ],
      "name": "FundTransfer",
      "type": "event"
    },
    {
      "anonymous": false,
      "inputs": [
        {
          "indexed": false,
          "internalType": "uint8",
          "name": "version",
          "type": "uint8"
        }
      ],
      "name": "Initialized",
      "type": "event"
    },
    {
      "anonymous": false,
      "inputs": [
        {
          "indexed": true,
          "internalType": "address",
          "name": "minter",
          "type": "address"
        }
      ],
      "name": "MinterAdded",
      "type": "event"
    },
    {
      "anonymous": false,
      "inputs": [
        {
          "indexed": true,
          "internalType": "address",
          "name": "minter",
          "type": "address"
        }
      ],
      "name": "MinterRemoved",
      "type": "event"
    },
    {
      "anonymous": false,
      "inputs": [
        {
          "indexed": true,
          "internalType": "address",
          "name": "previousOwner",
          "type": "address"
        },
        {
          "indexed": true,
          "internalType": "address",
          "name": "newOwner",
          "type": "address"
        }
      ],
      "name": "OwnershipTransferred",
      "type": "event"
    },
    {
      "anonymous": false,
      "inputs": [
        {
          "indexed": true,
          "internalType": "address",
          "name": "from",
          "type": "address"
        },
        {
          "indexed": true,
          "internalType": "address",
          "name": "to",
          "type": "address"
        },
        {
          "indexed": false,
          "internalType": "uint256",
          "name": "value",
          "type": "uint256"
        }
      ],
      "name": "Transfer",
      "type": "event"
    },
    {
      "inputs": [
        {
          "internalType": "address",
          "name": "minter",
          "type": "address"
        }
      ],
      "name": "addMinter",
      "outputs": [],
      "stateMutability": "nonpayable",
      "type": "function"
    },
    {
      "inputs": [
        {
          "internalType": "address",
          "name": "owner",
          "type": "address"
        },
        {
          "internalType": "address",
          "name": "spender",
          "type": "address"
        }
      ],
      "name": "allowance",
      "outputs": [
        {
          "internalType": "uint256",
          "name": "",
          "type": "uint256"
        }
      ],
      "stateMutability": "view",
      "type": "function"
    },
    {
      "inputs": [
        {
          "internalType": "address",
          "name": "spender",
          "type": "address"
        },
        {
          "internalType": "uint256",
          "name": "amount",
          "type": "uint256"
        }
      ],
      "name": "approve",
      "outputs": [
        {
          "internalType": "bool",
          "name": "",
          "type": "bool"
        }
      ],
      "stateMutability": "nonpayable",
      "type": "function"
    },
    {
      "inputs": [
        {
          "internalType": "address",
          "name": "account",
          "type": "address"
        }
      ],
      "name": "balanceOf",
      "outputs": [
        {
          "internalType": "uint256",
          "name": "",
          "type": "uint256"
        }
      ],
      "stateMutability": "view",
      "type": "function"
    },
    {
      "inputs": [
        {
          "internalType": "address",
          "name": "account",
          "type": "address"
        },
        {
          "internalType": "uint256",
          "name": "amount",
          "type": "uint256"
        }
      ],
      "name": "burnTokens",
      "outputs": [],
      "stateMutability": "nonpayable",
      "type": "function"
    },
    {
      "inputs": [
        {
          "internalType": "uint256",
          "name": "_tokens",
          "type": "uint256"
        }
      ],
      "name": "buyTokensDirect",
      "outputs": [],
      "stateMutability": "payable",
      "type": "function"
    },
    {
      "inputs": [],
      "name": "decimals",
      "outputs": [
        {
          "internalType": "uint8",
          "name": "",
          "type": "uint8"
        }
      ],
      "stateMutability": "view",
      "type": "function"
    },
    {
      "inputs": [
        {
          "internalType": "address",
          "name": "spender",
          "type": "address"
        },
        {
          "internalType": "uint256",
          "name": "subtractedValue",
          "type": "uint256"
        }
      ],
      "name": "decreaseAllowance",
      "outputs": [
        {
          "internalType": "bool",
          "name": "",
          "type": "bool"
        }
      ],
      "stateMutability": "nonpayable",
      "type": "function"
    },
    {
      "inputs": [
        {
          "internalType": "address",
          "name": "spender",
          "type": "address"
        },
        {
          "internalType": "uint256",
          "name": "addedValue",
          "type": "uint256"
        }
      ],
      "name": "increaseAllowance",
      "outputs": [
        {
          "internalType": "bool",
          "name": "",
          "type": "bool"
        }
      ],
      "stateMutability": "nonpayable",
      "type": "function"
    },
    {
      "inputs": [
        {
          "internalType": "string",
          "name": "name",
          "type": "string"
        },
        {
          "internalType": "string",
          "name": "symbol",
          "type": "string"
        },
        {
          "internalType": "address",
          "name": "_minter",
          "type": "address"
        }
      ],
      "name": "initialize",
      "outputs": [],
      "stateMutability": "nonpayable",
      "type": "function"
    },
    {
      "inputs": [
        {
          "internalType": "address",
          "name": "account",
          "type": "address"
        },
        {
          "internalType": "uint256",
          "name": "amount",
          "type": "uint256"
        }
      ],
      "name": "mintTokens",
      "outputs": [],
      "stateMutability": "nonpayable",
      "type": "function"
    },
    {
      "inputs": [],
      "name": "name",
      "outputs": [
        {
          "internalType": "string",
          "name": "",
          "type": "string"
        }
      ],
      "stateMutability": "view",
      "type": "function"
    },
    {
      "inputs": [],
      "name": "owner",
      "outputs": [
        {
          "internalType": "address",
          "name": "",
          "type": "address"
        }
      ],
      "stateMutability": "view",
      "type": "function"
    },
    {
      "inputs": [
        {
          "internalType": "address",
          "name": "minter",
          "type": "address"
        }
      ],
      "name": "removeMinter",
      "outputs": [],
      "stateMutability": "nonpayable",
      "type": "function"
    },
    {
      "inputs": [],
      "name": "renounceOwnership",
      "outputs": [],
      "stateMutability": "nonpayable",
      "type": "function"
    },
    {
      "inputs": [
        {
          "internalType": "uint256",
          "name": "price",
          "type": "uint256"
        }
      ],
      "name": "setTokenPrice",
      "outputs": [],
      "stateMutability": "nonpayable",
      "type": "function"
    },
    {
      "inputs": [],
      "name": "symbol",
      "outputs": [
        {
          "internalType": "string",
          "name": "",
          "type": "string"
        }
      ],
      "stateMutability": "view",
      "type": "function"
    },
    {
      "inputs": [],
      "name": "tokenPrice",
      "outputs": [
        {
          "internalType": "uint256",
          "name": "",
          "type": "uint256"
        }
      ],
      "stateMutability": "view",
      "type": "function"
    },
    {
      "inputs": [],
      "name": "totalSupply",
      "outputs": [
        {
          "internalType": "uint256",
          "name": "",
          "type": "uint256"
        }
      ],
      "stateMutability": "view",
      "type": "function"
    },
    {
      "inputs": [
        {
          "internalType": "address",
          "name": "to",
          "type": "address"
        },
        {
          "internalType": "uint256",
          "name": "amount",
          "type": "uint256"
        }
      ],
      "name": "transfer",
      "outputs": [
        {
          "internalType": "bool",
          "name": "",
          "type": "bool"
        }
      ],
      "stateMutability": "nonpayable",
      "type": "function"
    },
    {
      "inputs": [
        {
          "internalType": "address",
          "name": "from",
          "type": "address"
        },
        {
          "internalType": "address",
          "name": "to",
          "type": "address"
        },
        {
          "internalType": "uint256",
          "name": "amount",
          "type": "uint256"
        }
      ],
      "name": "transferFrom",
      "outputs": [
        {
          "internalType": "bool",
          "name": "",
          "type": "bool"
        }
      ],
      "stateMutability": "nonpayable",
      "type": "function"
    },
    {
      "inputs": [],
      "name": "transferFundsToOwner",
      "outputs": [],
      "stateMutability": "nonpayable",
      "type": "function"
    },
    {
      "inputs": [
        {
          "internalType": "address",
          "name": "newOwner",
          "type": "address"
        }
      ],
      "name": "transferOwnership",
      "outputs": [],
      "stateMutability": "nonpayable",
      "type": "function"
    },
    {
      "inputs": [
        {
          "internalType": "address",
          "name": "",
          "type": "address"
        }
      ],
      "name": "whitelistedMinters",
      "outputs": [
        {
          "internalType": "bool",
          "name": "",
          "type": "bool"
        }
      ],
      "stateMutability": "view",
      "type": "function"
    }
  ],
  "bytecode": "0x608060405234801561001057600080fd5b506118b7806100206000396000f3fe60806040526004361061014b5760003560e01c80637ff9b596116100b6578063d5b657d31161006f578063d5b657d3146103a6578063dd62ed3e146103b9578063ec8af07d146103d9578063ed1e0085146103ee578063f0dda65c1461041e578063f2fde38b1461043e57600080fd5b80637ff9b596146102f35780638da5cb5b1461030957806395d89b4114610331578063983b2d5614610346578063a457c2d714610366578063a9059cbb1461038657600080fd5b80633092afd5116101085780633092afd51461022c578063313ce5671461024c57806339509351146102685780636a61e5fc1461028857806370a08231146102a8578063715018a6146102de57600080fd5b806306fdde0314610150578063077f224a1461017b578063095ea7b31461019d5780630d1118ce146101cd57806318160ddd146101ed57806323b872dd1461020c575b600080fd5b34801561015c57600080fd5b5061016561045e565b60405161017291906114f3565b60405180910390f35b34801561018757600080fd5b5061019b610196366004611607565b6104f0565b005b3480156101a957600080fd5b506101bd6101b836600461167b565b610643565b6040519015158152602001610172565b3480156101d957600080fd5b5061019b6101e836600461167b565b61065b565b3480156101f957600080fd5b506035545b604051908152602001610172565b34801561021857600080fd5b506101bd6102273660046116a5565b610737565b34801561023857600080fd5b5061019b6102473660046116e1565b61075b565b34801561025857600080fd5b5060405160128152602001610172565b34801561027457600080fd5b506101bd61028336600461167b565b6107ac565b34801561029457600080fd5b5061019b6102a33660046116fc565b6107ce565b3480156102b457600080fd5b506101fe6102c33660046116e1565b6001600160a01b031660009081526033602052604090205490565b3480156102ea57600080fd5b5061019b610837565b3480156102ff57600080fd5b506101fe60c95481565b34801561031557600080fd5b506065546040516001600160a01b039091168152602001610172565b34801561033d57600080fd5b5061016561084b565b34801561035257600080fd5b5061019b6103613660046116e1565b61085a565b34801561037257600080fd5b506101bd61038136600461167b565b6108ae565b34801561039257600080fd5b506101bd6103a136600461167b565b610929565b61019b6103b43660046116fc565b610937565b3480156103c557600080fd5b506101fe6103d4366004611715565b610a4a565b3480156103e557600080fd5b5061019b610a75565b3480156103fa57600080fd5b506101bd6104093660046116e1565b60ca6020526000908152604090205460ff1681565b34801561042a57600080fd5b5061019b61043936600461167b565b610b76565b34801561044a57600080fd5b5061019b6104593660046116e1565b610c4e565b60606036805461046d90611748565b80601f016020809104026020016040519081016040528092919081815260200182805461049990611748565b80156104e65780601f106104bb576101008083540402835291602001916104e6565b820191906000526020600020905b8154815290600101906020018083116104c957829003601f168201915b5050505050905090565b600054610100900460ff16158080156105105750600054600160ff909116105b8061052a5750303b15801561052a575060005460ff166001145b6105925760405162461bcd60e51b815260206004820152602e60248201527f496e697469616c697a61626c653a20636f6e747261637420697320616c72656160448201526d191e481a5b9a5d1a585b1a5e995960921b60648201526084015b60405180910390fd5b6000805460ff1916600117905580156105b5576000805461ff0019166101001790555b6105bf8484610cc4565b6105c7610cf5565b6105cf610d24565b6105e33369021e19e0c9bab2400000610d53565b6105ec8261085a565b66038d7ea4c6800060c955801561063d576000805461ff0019169055604051600181527f7f26b83ff96e1f2b6a682f133852f6798a09c465da95921460cefb38474024989060200160405180910390a15b50505050565b600033610651818585610e14565b5060019392505050565b33600090815260ca602052604090205460ff166106ba5760405162461bcd60e51b815260206004820152601f60248201527f544f4b454e3a204e6f7420612077686974656c6973746564206d696e746572006044820152606401610589565b6001600160a01b0382166107095760405162461bcd60e51b8152602060048201526016602482015275544f4b454e3a20496e76616c6964206164647265737360501b6044820152606401610589565b600081116107295760405162461bcd60e51b815260040161058990611783565b6107338282610f39565b5050565b60003361074585828561106a565b6107508585856110de565b506001949350505050565b610763611289565b6001600160a01b038116600081815260ca6020526040808220805460ff19169055517fe94479a9f7e1952cc78f2d6baab678adc1b772d936c6583def489e524cb666929190a250565b6000336106518185856107bf8383610a4a565b6107c991906117dd565b610e14565b6107d6611289565b600081116108325760405162461bcd60e51b815260206004820152602360248201527f544f4b454e3a205072696365206d75737420626520677265617465722074686160448201526206e20360ec1b6064820152608401610589565b60c955565b61083f611289565b61084960006112e3565b565b60606037805461046d90611748565b610862611289565b6001600160a01b038116600081815260ca6020526040808220805460ff19166001179055517f6ae172837ea30b801fbfcdd4108aa1d5bf8ff775444fd70256b44e6bf3dfc3f69190a250565b600033816108bc8286610a4a565b90508381101561091c5760405162461bcd60e51b815260206004820152602560248201527f45524332303a2064656372656173656420616c6c6f77616e63652062656c6f77604482015264207a65726f60d81b6064820152608401610589565b6107508286868403610e14565b6000336106518185856110de565b61093f611335565b60c95461094d90829061138f565b34101561099c5760405162461bcd60e51b815260206004820152601c60248201527f544f4b454e3a20496e76616c696420746f6b656e2064656d616e642e000000006044820152606401610589565b600034116109bc5760405162461bcd60e51b815260040161058990611783565b600060c95411610a0e5760405162461bcd60e51b815260206004820152601a60248201527f544f4b454e3a20546f6b656e207072696365206e6f74207365740000000000006044820152606401610589565b60c954600090610a3090610a2a34670de0b6b3a764000061138f565b906113a2565b9050610a3c3382610d53565b50610a476001609755565b50565b6001600160a01b03918216600090815260346020908152604080832093909416825291909152205490565b610a7d611289565b6000610a916065546001600160a01b031690565b6001600160a01b03161415610adf5760405162461bcd60e51b81526020600482015260146024820152731513d2d1538e8813dddb995c881b9bdd081cd95d60621b6044820152606401610589565b6000610af36065546001600160a01b031690565b60405190915047906001600160a01b0383169082156108fc029083906000818181858888f19350505050158015610b2e573d6000803e3d6000fd5b50816001600160a01b03167f97c35397cb6acebd9df368c206404479fc4c80dd6034d1b28943aaf58263187082604051610b6a91815260200190565b60405180910390a25050565b33600090815260ca602052604090205460ff16610bd55760405162461bcd60e51b815260206004820152601f60248201527f544f4b454e3a204e6f7420612077686974656c6973746564206d696e746572006044820152606401610589565b6001600160a01b038216610c245760405162461bcd60e51b8152602060048201526016602482015275544f4b454e3a20496e76616c6964206164647265737360501b6044820152606401610589565b60008111610c445760405162461bcd60e51b815260040161058990611783565b6107338282610d53565b610c56611289565b6001600160a01b038116610cbb5760405162461bcd60e51b815260206004820152602660248201527f4f776e61626c653a206e6577206f776e657220697320746865207a65726f206160448201526564647265737360d01b6064820152608401610589565b610a47816112e3565b600054610100900460ff16610ceb5760405162461bcd60e51b8152600401610589906117f5565b61073382826113b5565b600054610100900460ff16610d1c5760405162461bcd60e51b8152600401610589906117f5565b610849611403565b600054610100900460ff16610d4b5760405162461bcd60e51b8152600401610589906117f5565b610849611433565b6001600160a01b038216610da95760405162461bcd60e51b815260206004820152601f60248201527f45524332303a206d696e7420746f20746865207a65726f2061646472657373006044820152606401610589565b8060356000828254610dbb91906117dd565b90915550506001600160a01b0382166000818152603360209081526040808320805486019055518481527fddf252ad1be2c89b69c2b068fc378daa952ba7f163c4a11628f55a4df523b3ef910160405180910390a35050565b6001600160a01b038316610e765760405162461bcd60e51b8152602060048201526024808201527f45524332303a20617070726f76652066726f6d20746865207a65726f206164646044820152637265737360e01b6064820152608401610589565b6001600160a01b038216610ed75760405162461bcd60e51b815260206004820152602260248201527f45524332303a20617070726f766520746f20746865207a65726f206164647265604482015261737360f01b6064820152608401610589565b6001600160a01b0383811660008181526034602090815260408083209487168084529482529182902085905590518481527f8c5be1e5ebec7d5bd14f71427d1e84f3dd0314c0f7b2291e5b200ac8c7c3b92591015b60405180910390a3505050565b6001600160a01b038216610f995760405162461bcd60e51b815260206004820152602160248201527f45524332303a206275726e2066726f6d20746865207a65726f206164647265736044820152607360f81b6064820152608401610589565b6001600160a01b0382166000908152603360205260409020548181101561100d5760405162461bcd60e51b815260206004820152602260248201527f45524332303a206275726e20616d6f756e7420657863656564732062616c616e604482015261636560f01b6064820152608401610589565b6001600160a01b03831660008181526033602090815260408083208686039055603580548790039055518581529192917fddf252ad1be2c89b69c2b068fc378daa952ba7f163c4a11628f55a4df523b3ef9101610f2c565b505050565b60006110768484610a4a565b9050600019811461063d57818110156110d15760405162461bcd60e51b815260206004820152601d60248201527f45524332303a20696e73756666696369656e7420616c6c6f77616e63650000006044820152606401610589565b61063d8484848403610e14565b6001600160a01b0383166111425760405162461bcd60e51b815260206004820152602560248201527f45524332303a207472616e736665722066726f6d20746865207a65726f206164604482015264647265737360d81b6064820152608401610589565b6001600160a01b0382166111a45760405162461bcd60e51b815260206004820152602360248201527f45524332303a207472616e7366657220746f20746865207a65726f206164647260448201526265737360e81b6064820152608401610589565b6001600160a01b0383166000908152603360205260409020548181101561121c5760405162461bcd60e51b815260206004820152602660248201527f45524332303a207472616e7366657220616d6f756e7420657863656564732062604482015265616c616e636560d01b6064820152608401610589565b6001600160a01b0380851660008181526033602052604080822086860390559286168082529083902080548601905591517fddf252ad1be2c89b69c2b068fc378daa952ba7f163c4a11628f55a4df523b3ef9061127c9086815260200190565b60405180910390a361063d565b6065546001600160a01b031633146108495760405162461bcd60e51b815260206004820181905260248201527f4f776e61626c653a2063616c6c6572206973206e6f7420746865206f776e65726044820152606401610589565b606580546001600160a01b038381166001600160a01b0319831681179093556040519116919082907f8be0079c531659141344cd1fd0a4f28419497f9722a3daafe3b4186f6b6457e090600090a35050565b600260975414156113885760405162461bcd60e51b815260206004820152601f60248201527f5265656e7472616e637947756172643a207265656e7472616e742063616c6c006044820152606401610589565b6002609755565b600061139b8284611840565b9392505050565b600061139b828461185f565b6001609755565b600054610100900460ff166113dc5760405162461bcd60e51b8152600401610589906117f5565b81516113ef90603690602085019061145a565b50805161106590603790602084019061145a565b600054610100900460ff1661142a5760405162461bcd60e51b8152600401610589906117f5565b610849336112e3565b600054610100900460ff166113ae5760405162461bcd60e51b8152600401610589906117f5565b82805461146690611748565b90600052602060002090601f01602090048101928261148857600085556114ce565b82601f106114a157805160ff19168380011785556114ce565b828001600101855582156114ce579182015b828111156114ce5782518255916020019190600101906114b3565b506114da9291506114de565b5090565b5b808211156114da57600081556001016114df565b600060208083528351808285015260005b8181101561152057858101830151858201604001528201611504565b81811115611532576000604083870101525b50601f01601f1916929092016040019392505050565b634e487b7160e01b600052604160045260246000fd5b600082601f83011261156f57600080fd5b813567ffffffffffffffff8082111561158a5761158a611548565b604051601f8301601f19908116603f011681019082821181831017156115b2576115b2611548565b816040528381528660208588010111156115cb57600080fd5b836020870160208301376000602085830101528094505050505092915050565b80356001600160a01b038116811461160257600080fd5b919050565b60008060006060848603121561161c57600080fd5b833567ffffffffffffffff8082111561163457600080fd5b6116408783880161155e565b9450602086013591508082111561165657600080fd5b506116638682870161155e565b925050611672604085016115eb565b90509250925092565b6000806040838503121561168e57600080fd5b611697836115eb565b946020939093013593505050565b6000806000606084860312156116ba57600080fd5b6116c3846115eb565b92506116d1602085016115eb565b9150604084013590509250925092565b6000602082840312156116f357600080fd5b61139b826115eb565b60006020828403121561170e57600080fd5b5035919050565b6000806040838503121561172857600080fd5b611731836115eb565b915061173f602084016115eb565b90509250929050565b600181811c9082168061175c57607f821691505b6020821081141561177d57634e487b7160e01b600052602260045260246000fd5b50919050565b60208082526024908201527f544f4b454e3a20416d6f756e74206d75737420626520677265617465722074686040820152630616e20360e41b606082015260800190565b634e487b7160e01b600052601160045260246000fd5b600082198211156117f0576117f06117c7565b500190565b6020808252602b908201527f496e697469616c697a61626c653a20636f6e7472616374206973206e6f74206960408201526a6e697469616c697a696e6760a81b606082015260800190565b600081600019048311821515161561185a5761185a6117c7565b500290565b60008261187c57634e487b7160e01b600052601260045260246000fd5b50049056fea26469706673582212202e3a96b9ad4495a0b535376c079d628155fd73cf85163cb4d239ec9752af3a0364736f6c634300080a0033",
  "linkReferences": {},
  "deployedLinkReferences": {}
}