{
  "address": "0x459CF9a1a496AC928ab0E90a8ef1148d7Acec4B4",
  "abi": [
    {
      "anonymous": false,
      "inputs": [],
      "name": "ICOEnded",
      "type": "event"
    },
    {
      "anonymous": false,
      "inputs": [
        {
          "indexed": false,
          "internalType": "uint256",
          "name": "startTime",
          "type": "uint256"
        },
        {
          "indexed": false,
          "internalType": "uint256",
          "name": "endTime",
          "type": "uint256"
        }
      ],
      "name": "ICOStarted",
      "type": "event"
    },
    {
      "anonymous": false,
      "inputs": [
        {
          "indexed": false,
          "internalType": "uint8",
          "name": "version",
          "type": "uint8"
        }
      ],
      "name": "Initialized",
      "type": "event"
    },
    {
      "anonymous": false,
      "inputs": [
        {
          "indexed": true,
          "internalType": "address",
          "name": "previousOwner",
          "type": "address"
        },
        {
          "indexed": true,
          "internalType": "address",
          "name": "newOwner",
          "type": "address"
        }
      ],
      "name": "OwnershipTransferred",
      "type": "event"
    },
    {
      "anonymous": false,
      "inputs": [
        {
          "indexed": true,
          "internalType": "address",
          "name": "buyer",
          "type": "address"
        },
        {
          "indexed": false,
          "internalType": "uint256",
          "name": "tokensPurchased",
          "type": "uint256"
        },
        {
          "indexed": false,
          "internalType": "uint256",
          "name": "totalPrice",
          "type": "uint256"
        }
      ],
      "name": "TokensPurchased",
      "type": "event"
    },
    {
      "inputs": [
        {
          "internalType": "uint256",
          "name": "_etherAmount",
          "type": "uint256"
        }
      ],
      "name": "buyTokens",
      "outputs": [],
      "stateMutability": "payable",
      "type": "function"
    },
    {
      "inputs": [
        {
          "internalType": "uint256",
          "name": "_etherAmount",
          "type": "uint256"
        }
      ],
      "name": "calculateTokenAmount",
      "outputs": [
        {
          "internalType": "uint256",
          "name": "",
          "type": "uint256"
        }
      ],
      "stateMutability": "view",
      "type": "function"
    },
    {
      "inputs": [],
      "name": "discountRate",
      "outputs": [
        {
          "internalType": "uint256",
          "name": "",
          "type": "uint256"
        }
      ],
      "stateMutability": "view",
      "type": "function"
    },
    {
      "inputs": [],
      "name": "endICO",
      "outputs": [],
      "stateMutability": "nonpayable",
      "type": "function"
    },
    {
      "inputs": [],
      "name": "endTime",
      "outputs": [
        {
          "internalType": "uint256",
          "name": "",
          "type": "uint256"
        }
      ],
      "stateMutability": "view",
      "type": "function"
    },
    {
      "inputs": [
        {
          "internalType": "address",
          "name": "_tokenContract",
          "type": "address"
        },
        {
          "internalType": "uint256",
          "name": "_tokenPrice",
          "type": "uint256"
        },
        {
          "internalType": "uint256",
          "name": "_discountRate",
          "type": "uint256"
        },
        {
          "internalType": "uint256",
          "name": "_minPurchase",
          "type": "uint256"
        },
        {
          "internalType": "uint256",
          "name": "_maxPurchase",
          "type": "uint256"
        },
        {
          "internalType": "uint256",
          "name": "_startTime",
          "type": "uint256"
        },
        {
          "internalType": "uint256",
          "name": "_endTime",
          "type": "uint256"
        }
      ],
      "name": "initialize",
      "outputs": [],
      "stateMutability": "nonpayable",
      "type": "function"
    },
    {
      "inputs": [],
      "name": "isICOActive",
      "outputs": [
        {
          "internalType": "bool",
          "name": "",
          "type": "bool"
        }
      ],
      "stateMutability": "view",
      "type": "function"
    },
    {
      "inputs": [],
      "name": "maxPurchase",
      "outputs": [
        {
          "internalType": "uint256",
          "name": "",
          "type": "uint256"
        }
      ],
      "stateMutability": "view",
      "type": "function"
    },
    {
      "inputs": [],
      "name": "minPurchase",
      "outputs": [
        {
          "internalType": "uint256",
          "name": "",
          "type": "uint256"
        }
      ],
      "stateMutability": "view",
      "type": "function"
    },
    {
      "inputs": [],
      "name": "owner",
      "outputs": [
        {
          "internalType": "address",
          "name": "",
          "type": "address"
        }
      ],
      "stateMutability": "view",
      "type": "function"
    },
    {
      "inputs": [],
      "name": "renounceOwnership",
      "outputs": [],
      "stateMutability": "nonpayable",
      "type": "function"
    },
    {
      "inputs": [
        {
          "internalType": "uint256",
          "name": "_newDiscountRate",
          "type": "uint256"
        }
      ],
      "name": "setDiscountRate",
      "outputs": [],
      "stateMutability": "nonpayable",
      "type": "function"
    },
    {
      "inputs": [],
      "name": "startTime",
      "outputs": [
        {
          "internalType": "uint256",
          "name": "",
          "type": "uint256"
        }
      ],
      "stateMutability": "view",
      "type": "function"
    },
    {
      "inputs": [],
      "name": "tokenContract",
      "outputs": [
        {
          "internalType": "contract IERC20Upgradeable",
          "name": "",
          "type": "address"
        }
      ],
      "stateMutability": "view",
      "type": "function"
    },
    {
      "inputs": [],
      "name": "tokenPrice",
      "outputs": [
        {
          "internalType": "uint256",
          "name": "",
          "type": "uint256"
        }
      ],
      "stateMutability": "view",
      "type": "function"
    },
    {
      "inputs": [],
      "name": "tokensSold",
      "outputs": [
        {
          "internalType": "uint256",
          "name": "",
          "type": "uint256"
        }
      ],
      "stateMutability": "view",
      "type": "function"
    },
    {
      "inputs": [
        {
          "internalType": "address",
          "name": "newOwner",
          "type": "address"
        }
      ],
      "name": "transferOwnership",
      "outputs": [],
      "stateMutability": "nonpayable",
      "type": "function"
    }
  ],
  "transactionHash": "0x8500406129f0d9fdd705f3517a64d271484e9bfdc28cf785cd82cf61645e40db",
  "args": [],
  "numDeployments": 1,
  "solcInputHash": "ee4944647d1946ef30fe7ea1c3f68710",
  "bytecode": "0x608060405234801561001057600080fd5b5061119a806100206000396000f3fe6080604052600436106100fe5760003560e01c80637c69febd11610095578063977b055b11610064578063977b055b14610259578063a24bcf461461026f578063e6c0e6d51461028f578063f2fde38b146102a5578063f6933c7d146102c557600080fd5b80637c69febd146101e55780637ff9b596146102055780638142951a1461021b5780638da5cb5b1461023b57600080fd5b8063518ab2a8116100d1578063518ab2a81461016c57806355a373d614610182578063715018a6146101ba57806378e97925146101cf57600080fd5b80633197cbb61461010357806333b5b62e1461012c5780633610724e146101425780634f24840914610157575b600080fd5b34801561010f57600080fd5b50610119606c5481565b6040519081526020015b60405180910390f35b34801561013857600080fd5b5061011960695481565b610155610150366004610e66565b6102ef565b005b34801561016357600080fd5b50610155610546565b34801561017857600080fd5b5061011960675481565b34801561018e57600080fd5b506065546101a2906001600160a01b031681565b6040516001600160a01b039091168152602001610123565b3480156101c657600080fd5b506101556106cd565b3480156101db57600080fd5b50610119606b5481565b3480156101f157600080fd5b50610155610200366004610e66565b6106e1565b34801561021157600080fd5b5061011960665481565b34801561022757600080fd5b50610155610236366004610e9b565b61077c565b34801561024757600080fd5b506033546001600160a01b03166101a2565b34801561026557600080fd5b50610119606a5481565b34801561027b57600080fd5b5061011961028a366004610e66565b61090c565b34801561029b57600080fd5b5061011960685481565b3480156102b157600080fd5b506101556102c0366004610eee565b61099b565b3480156102d157600080fd5b50606d546102df9060ff1681565b6040519015158152602001610123565b606d5460ff1661033a5760405162461bcd60e51b815260206004820152601160248201527049434f206973206e6f742061637469766560781b60448201526064015b60405180910390fd5b606b54421015801561034e5750606c544211155b61038e5760405162461bcd60e51b815260206004820152601160248201527049434f206973206e6f742061637469766560781b6044820152606401610331565b6069548110156103b05760405162461bcd60e51b815260040161033190610f09565b606a548111156103d25760405162461bcd60e51b815260040161033190610f51565b60006103dd8261090c565b9050600081116104265760405162461bcd60e51b8152602060048201526014602482015273125b9d985b1a59081d1bdad95b88185b5bdd5b9d60621b6044820152606401610331565b6065546040516370a0823160e01b815230600482015282916001600160a01b0316906370a0823190602401602060405180830381865afa15801561046e573d6000803e3d6000fd5b505050506040513d601f19601f820116820180604052508101906104929190610f94565b10156104e05760405162461bcd60e51b815260206004820152601b60248201527f4e6f7420656e6f75676820746f6b656e7320617661696c61626c6500000000006044820152606401610331565b6067546104ed9082610a11565b606755606554610507906001600160a01b03163383610a1d565b604080518281526020810184905233917f8fafebcaf9d154343dad25669bfa277f4fbacd7ac6b0c4fed522580e040a0f33910160405180910390a25050565b6033546001600160a01b031633146105705760405162461bcd60e51b815260040161033190610fad565b606c544210156105b85760405162461bcd60e51b815260206004820152601360248201527249434f206973207374696c6c2061637469766560681b6044820152606401610331565b606d805460ff191690556040517f62d9c267e3294582be7ffc2c372b78d98e14b84950ace43674b44642ff3ca0ad90600090a16065546040516370a0823160e01b81523060048201526000916001600160a01b0316906370a0823190602401602060405180830381865afa158015610634573d6000803e3d6000fd5b505050506040513d601f19601f820116820180604052508101906106589190610f94565b9050600081116106a25760405162461bcd60e51b81526020600482015260156024820152742737903a37b5b2b739903a37903a3930b739b332b960591b6044820152606401610331565b6106ca6106b76033546001600160a01b031690565b6065546001600160a01b03169083610a1d565b50565b6106d5610a74565b6106df6000610ace565b565b6033546001600160a01b0316331461070b5760405162461bcd60e51b815260040161033190610fad565b6127108111156107775760405162461bcd60e51b815260206004820152603160248201527f446973636f756e7420726174652073686f756c6420626520696e20626173697360448201527020706f696e74732028302d31303030302960781b6064820152608401610331565b606855565b600054610100900460ff161580801561079c5750600054600160ff909116105b806107b65750303b1580156107b6575060005460ff166001145b6108195760405162461bcd60e51b815260206004820152602e60248201527f496e697469616c697a61626c653a20636f6e747261637420697320616c72656160448201526d191e481a5b9a5d1a585b1a5e995960921b6064820152608401610331565b6000805460ff19166001179055801561083c576000805461ff0019166101001790555b610844610b20565b606580546001600160a01b0319166001600160a01b038a16179055606687905560688690556069859055606a849055606b839055606c829055606d805460ff19169055604080518082019091526015815274028282925b9a5d1a585b1a5e995c8818d85b1b1959605a1b60208201526108bc90610b4f565b8015610902576000805461ff0019169055604051600181527f7f26b83ff96e1f2b6a682f133852f6798a09c465da95921460cefb38474024989060200160405180910390a15b5050505050505050565b60006069548210156109305760405162461bcd60e51b815260040161033190610f09565b606a548211156109525760405162461bcd60e51b815260040161033190610f51565b600061097c61271061097660685461271061096d9190611008565b60665490610b92565b90610b9e565b90506109948161097685670de0b6b3a7640000610b92565b9392505050565b6109a3610a74565b6001600160a01b038116610a085760405162461bcd60e51b815260206004820152602660248201527f4f776e61626c653a206e6577206f776e657220697320746865207a65726f206160448201526564647265737360d01b6064820152608401610331565b6106ca81610ace565b6000610994828461101f565b604080516001600160a01b038416602482015260448082018490528251808303909101815260649091019091526020810180516001600160e01b031663a9059cbb60e01b179052610a6f908490610baa565b505050565b6033546001600160a01b031633146106df5760405162461bcd60e51b815260206004820181905260248201527f4f776e61626c653a2063616c6c6572206973206e6f7420746865206f776e65726044820152606401610331565b603380546001600160a01b038381166001600160a01b0319831681179093556040519116919082907f8be0079c531659141344cd1fd0a4f28419497f9722a3daafe3b4186f6b6457e090600090a35050565b600054610100900460ff16610b475760405162461bcd60e51b815260040161033190611037565b6106df610c7f565b6106ca81604051602401610b6391906110b2565b60408051601f198184030181529190526020810180516001600160e01b031663104c13eb60e21b179052610caf565b600061099482846110e5565b60006109948284611104565b6000610bff826040518060400160405280602081526020017f5361666545524332303a206c6f772d6c6576656c2063616c6c206661696c6564815250856001600160a01b0316610cb89092919063ffffffff16565b9050805160001480610c20575080806020019051810190610c209190611126565b610a6f5760405162461bcd60e51b815260206004820152602a60248201527f5361666545524332303a204552433230206f7065726174696f6e20646964206e6044820152691bdd081cdd58d8d9595960b21b6064820152608401610331565b600054610100900460ff16610ca65760405162461bcd60e51b815260040161033190611037565b6106df33610ace565b6106ca81610ccf565b6060610cc78484600085610cf0565b949350505050565b60006a636f6e736f6c652e6c6f679050600080835160208501845afa505050565b606082471015610d515760405162461bcd60e51b815260206004820152602660248201527f416464726573733a20696e73756666696369656e742062616c616e636520666f6044820152651c8818d85b1b60d21b6064820152608401610331565b600080866001600160a01b03168587604051610d6d9190611148565b60006040518083038185875af1925050503d8060008114610daa576040519150601f19603f3d011682016040523d82523d6000602084013e610daf565b606091505b5091509150610dc087838387610dcb565b979650505050505050565b60608315610e37578251610e30576001600160a01b0385163b610e305760405162461bcd60e51b815260206004820152601d60248201527f416464726573733a2063616c6c20746f206e6f6e2d636f6e74726163740000006044820152606401610331565b5081610cc7565b610cc78383815115610e4c5781518083602001fd5b8060405162461bcd60e51b815260040161033191906110b2565b600060208284031215610e7857600080fd5b5035919050565b80356001600160a01b0381168114610e9657600080fd5b919050565b600080600080600080600060e0888a031215610eb657600080fd5b610ebf88610e7f565b9960208901359950604089013598606081013598506080810135975060a0810135965060c00135945092505050565b600060208284031215610f0057600080fd5b61099482610e7f565b60208082526028908201527f416d6f756e74206973206c657373207468616e20746865206d696e696d756d20604082015267707572636861736560c01b606082015260800190565b60208082526023908201527f416d6f756e74206578636565647320746865206d6178696d756d20707572636860408201526261736560e81b606082015260800190565b600060208284031215610fa657600080fd5b5051919050565b60208082526025908201527f4f6e6c792061646d696e2063616e20706572666f726d2074686973206f70657260408201526430ba34b7b760d91b606082015260800190565b634e487b7160e01b600052601160045260246000fd5b60008282101561101a5761101a610ff2565b500390565b6000821982111561103257611032610ff2565b500190565b6020808252602b908201527f496e697469616c697a61626c653a20636f6e7472616374206973206e6f74206960408201526a6e697469616c697a696e6760a81b606082015260800190565b60005b8381101561109d578181015183820152602001611085565b838111156110ac576000848401525b50505050565b60208152600082518060208401526110d1816040850160208701611082565b601f01601f19169190910160400192915050565b60008160001904831182151516156110ff576110ff610ff2565b500290565b60008261112157634e487b7160e01b600052601260045260246000fd5b500490565b60006020828403121561113857600080fd5b8151801515811461099457600080fd5b6000825161115a818460208701611082565b919091019291505056fea26469706673582212203ff26144ac5376709708110b66bd41e75848e38553bd59b552f334e0456361c864736f6c634300080a0033",
  "devdoc": {
    "kind": "dev",
    "methods": {
      "buyTokens(uint256)": {
        "details": "Allows users to purchase tokens during the ICO.",
        "params": {
          "_etherAmount": "The amount in wei to spend on token purchase."
        }
      },
      "calculateTokenAmount(uint256)": {
        "details": "Calculates the token amount based on the ether amount.",
        "params": {
          "_etherAmount": "The amount in wei sent for the purchase."
        },
        "returns": {
          "_0": "The number of tokens that can be purchased."
        }
      },
      "endICO()": {
        "details": "Ends the ICO and transfers any remaining tokens to the owner."
      },
      "initialize(address,uint256,uint256,uint256,uint256,uint256,uint256)": {
        "details": "Initializes the ICO contract.",
        "params": {
          "_discountRate": "The initial discount rate for the ICO in basis points (0-10000).",
          "_endTime": "The end time of the ICO.",
          "_maxPurchase": "The maximum purchase amount in wei.",
          "_minPurchase": "The minimum purchase amount in wei.",
          "_startTime": "The start time of the ICO.",
          "_tokenContract": "The address of the ERC20 token contract.",
          "_tokenPrice": "The base price of one token in wei."
        }
      },
      "owner()": {
        "details": "Returns the address of the current owner."
      },
      "renounceOwnership()": {
        "details": "Leaves the contract without owner. It will not be possible to call `onlyOwner` functions. Can only be called by the current owner. NOTE: Renouncing ownership will leave the contract without an owner, thereby disabling any functionality that is only available to the owner."
      },
      "setDiscountRate(uint256)": {
        "details": "Sets the discount rate for the ICO.",
        "params": {
          "_newDiscountRate": "The new discount rate in basis points (0-10000)."
        }
      },
      "transferOwnership(address)": {
        "details": "Transfers ownership of the contract to a new account (`newOwner`). Can only be called by the current owner."
      }
    },
    "title": "ICO - An upgradeable ICO (Initial Coin Offering) contract for selling tokens.",
    "version": 1
  },
  "userdoc": {
    "kind": "user",
    "methods": {},
    "version": 1
  },
  "storageLayout": {
    "storage": [
      {
        "astId": 138,
        "contract": "contracts/TokenSale.sol:ICO",
        "label": "_initialized",
        "offset": 0,
        "slot": "0",
        "type": "t_uint8"
      },
      {
        "astId": 141,
        "contract": "contracts/TokenSale.sol:ICO",
        "label": "_initializing",
        "offset": 1,
        "slot": "0",
        "type": "t_bool"
      },
      {
        "astId": 1161,
        "contract": "contracts/TokenSale.sol:ICO",
        "label": "__gap",
        "offset": 0,
        "slot": "1",
        "type": "t_array(t_uint256)50_storage"
      },
      {
        "astId": 10,
        "contract": "contracts/TokenSale.sol:ICO",
        "label": "_owner",
        "offset": 0,
        "slot": "51",
        "type": "t_address"
      },
      {
        "astId": 130,
        "contract": "contracts/TokenSale.sol:ICO",
        "label": "__gap",
        "offset": 0,
        "slot": "52",
        "type": "t_array(t_uint256)49_storage"
      },
      {
        "astId": 1497,
        "contract": "contracts/TokenSale.sol:ICO",
        "label": "tokenContract",
        "offset": 0,
        "slot": "101",
        "type": "t_contract(IERC20Upgradeable)378"
      },
      {
        "astId": 1499,
        "contract": "contracts/TokenSale.sol:ICO",
        "label": "tokenPrice",
        "offset": 0,
        "slot": "102",
        "type": "t_uint256"
      },
      {
        "astId": 1501,
        "contract": "contracts/TokenSale.sol:ICO",
        "label": "tokensSold",
        "offset": 0,
        "slot": "103",
        "type": "t_uint256"
      },
      {
        "astId": 1503,
        "contract": "contracts/TokenSale.sol:ICO",
        "label": "discountRate",
        "offset": 0,
        "slot": "104",
        "type": "t_uint256"
      },
      {
        "astId": 1505,
        "contract": "contracts/TokenSale.sol:ICO",
        "label": "minPurchase",
        "offset": 0,
        "slot": "105",
        "type": "t_uint256"
      },
      {
        "astId": 1507,
        "contract": "contracts/TokenSale.sol:ICO",
        "label": "maxPurchase",
        "offset": 0,
        "slot": "106",
        "type": "t_uint256"
      },
      {
        "astId": 1509,
        "contract": "contracts/TokenSale.sol:ICO",
        "label": "startTime",
        "offset": 0,
        "slot": "107",
        "type": "t_uint256"
      },
      {
        "astId": 1511,
        "contract": "contracts/TokenSale.sol:ICO",
        "label": "endTime",
        "offset": 0,
        "slot": "108",
        "type": "t_uint256"
      },
      {
        "astId": 1513,
        "contract": "contracts/TokenSale.sol:ICO",
        "label": "isICOActive",
        "offset": 0,
        "slot": "109",
        "type": "t_bool"
      }
    ],
    "types": {
      "t_address": {
        "encoding": "inplace",
        "label": "address",
        "numberOfBytes": "20"
      },
      "t_array(t_uint256)49_storage": {
        "base": "t_uint256",
        "encoding": "inplace",
        "label": "uint256[49]",
        "numberOfBytes": "1568"
      },
      "t_array(t_uint256)50_storage": {
        "base": "t_uint256",
        "encoding": "inplace",
        "label": "uint256[50]",
        "numberOfBytes": "1600"
      },
      "t_bool": {
        "encoding": "inplace",
        "label": "bool",
        "numberOfBytes": "1"
      },
      "t_contract(IERC20Upgradeable)378": {
        "encoding": "inplace",
        "label": "contract IERC20Upgradeable",
        "numberOfBytes": "20"
      },
      "t_uint256": {
        "encoding": "inplace",
        "label": "uint256",
        "numberOfBytes": "32"
      },
      "t_uint8": {
        "encoding": "inplace",
        "label": "uint8",
        "numberOfBytes": "1"
      }
    }
  }
}