{
  "_format": "hh-sol-artifact-1",
  "contractName": "Transactions",
  "sourceName": "contracts/Transactions.sol",
  "abi": [
    {
      "anonymous": false,
      "inputs": [
        {
          "indexed": false,
          "internalType": "address",
          "name": "from",
          "type": "address"
        },
        {
          "indexed": false,
          "internalType": "address",
          "name": "receiver",
          "type": "address"
        },
        {
          "indexed": false,
          "internalType": "uint256",
          "name": "amount",
          "type": "uint256"
        },
        {
          "indexed": false,
          "internalType": "string",
          "name": "message",
          "type": "string"
        },
        {
          "indexed": false,
          "internalType": "uint256",
          "name": "timestamp",
          "type": "uint256"
        },
        {
          "indexed": false,
          "internalType": "string",
          "name": "keyword",
          "type": "string"
        }
      ],
      "name": "Transfer",
      "type": "event"
    },
    {
      "inputs": [
        {
          "internalType": "address payable",
          "name": "receiver",
          "type": "address"
        },
        {
          "internalType": "uint256",
          "name": "amount",
          "type": "uint256"
        },
        {
          "internalType": "string",
          "name": "message",
          "type": "string"
        },
        {
          "internalType": "string",
          "name": "keyword",
          "type": "string"
        }
      ],
      "name": "addTransaction",
      "outputs": [],
      "stateMutability": "nonpayable",
      "type": "function"
    },
    {
      "inputs": [],
      "name": "getTransactions",
      "outputs": [
        {
          "components": [
            {
              "internalType": "address",
              "name": "sender",
              "type": "address"
            },
            {
              "internalType": "address payable",
              "name": "receiver",
              "type": "address"
            },
            {
              "internalType": "uint256",
              "name": "amount",
              "type": "uint256"
            },
            {
              "internalType": "string",
              "name": "message",
              "type": "string"
            },
            {
              "internalType": "uint256",
              "name": "timestamp",
              "type": "uint256"
            },
            {
              "internalType": "string",
              "name": "keyword",
              "type": "string"
            }
          ],
          "internalType": "struct Transactions.TransferStruct[]",
          "name": "",
          "type": "tuple[]"
        }
      ],
      "stateMutability": "view",
      "type": "function"
    },
    {
      "inputs": [],
      "name": "transactionCount",
      "outputs": [
        {
          "internalType": "uint256",
          "name": "",
          "type": "uint256"
        }
      ],
      "stateMutability": "view",
      "type": "function"
    },
    {
      "inputs": [
        {
          "internalType": "uint256",
          "name": "",
          "type": "uint256"
        }
      ],
      "name": "transactions",
      "outputs": [
        {
          "internalType": "address",
          "name": "sender",
          "type": "address"
        },
        {
          "internalType": "address payable",
          "name": "receiver",
          "type": "address"
        },
        {
          "internalType": "uint256",
          "name": "amount",
          "type": "uint256"
        },
        {
          "internalType": "string",
          "name": "message",
          "type": "string"
        },
        {
          "internalType": "uint256",
          "name": "timestamp",
          "type": "uint256"
        },
        {
          "internalType": "string",
          "name": "keyword",
          "type": "string"
        }
      ],
      "stateMutability": "view",
      "type": "function"
    }
  ],
  "bytecode": "0x608060405234801561001057600080fd5b50610e9c806100206000396000f3fe608060405234801561001057600080fd5b506004361061004c5760003560e01c80636d1b6bb11461005157806383920e901461006d5780639ace38c21461008b578063b77bf600146100c0575b600080fd5b61006b600480360381019061006691906107ba565b6100de565b005b6100756102a0565b6040516100829190610b48565b60405180910390f35b6100a560048036038101906100a0919061084d565b6104e3565b6040516100b796959493929190610a6a565b60405180910390f35b6100c861067f565b6040516100d59190610b6a565b60405180910390f35b60016000808282546100f09190610c4c565b9250508190555060016040518060c001604052803373ffffffffffffffffffffffffffffffffffffffff1681526020018673ffffffffffffffffffffffffffffffffffffffff16815260200185815260200184815260200142815260200183815250908060018154018082558091505060019003906000526020600020906006020160009091909190915060008201518160000160006101000a81548173ffffffffffffffffffffffffffffffffffffffff021916908373ffffffffffffffffffffffffffffffffffffffff16021790555060208201518160010160006101000a81548173ffffffffffffffffffffffffffffffffffffffff021916908373ffffffffffffffffffffffffffffffffffffffff16021790555060408201518160020155606082015181600301908051906020019061022f929190610685565b506080820151816004015560a0820151816005019080519060200190610256929190610685565b5050507f416cfa4330a4565f45c2fd2dd4826a83a37443aba2ce6f79477c7355afac35fa33858585428660405161029296959493929190610ad9565b60405180910390a150505050565b60606001805480602002602001604051908101604052809291908181526020016000905b828210156104da57838290600052602060002090600602016040518060c00160405290816000820160009054906101000a900473ffffffffffffffffffffffffffffffffffffffff1673ffffffffffffffffffffffffffffffffffffffff1673ffffffffffffffffffffffffffffffffffffffff1681526020016001820160009054906101000a900473ffffffffffffffffffffffffffffffffffffffff1673ffffffffffffffffffffffffffffffffffffffff1673ffffffffffffffffffffffffffffffffffffffff168152602001600282015481526020016003820180546103ad90610d68565b80601f01602080910402602001604051908101604052809291908181526020018280546103d990610d68565b80156104265780601f106103fb57610100808354040283529160200191610426565b820191906000526020600020905b81548152906001019060200180831161040957829003601f168201915b505050505081526020016004820154815260200160058201805461044990610d68565b80601f016020809104026020016040519081016040528092919081815260200182805461047590610d68565b80156104c25780601f10610497576101008083540402835291602001916104c2565b820191906000526020600020905b8154815290600101906020018083116104a557829003601f168201915b505050505081525050815260200190600101906102c4565b50505050905090565b600181815481106104f357600080fd5b90600052602060002090600602016000915090508060000160009054906101000a900473ffffffffffffffffffffffffffffffffffffffff16908060010160009054906101000a900473ffffffffffffffffffffffffffffffffffffffff169080600201549080600301805461056890610d68565b80601f016020809104026020016040519081016040528092919081815260200182805461059490610d68565b80156105e15780601f106105b6576101008083540402835291602001916105e1565b820191906000526020600020905b8154815290600101906020018083116105c457829003601f168201915b5050505050908060040154908060050180546105fc90610d68565b80601f016020809104026020016040519081016040528092919081815260200182805461062890610d68565b80156106755780601f1061064a57610100808354040283529160200191610675565b820191906000526020600020905b81548152906001019060200180831161065857829003601f168201915b5050505050905086565b60005481565b82805461069190610d68565b90600052602060002090601f0160209004810192826106b357600085556106fa565b82601f106106cc57805160ff19168380011785556106fa565b828001600101855582156106fa579182015b828111156106f95782518255916020019190600101906106de565b5b509050610707919061070b565b5090565b5b8082111561072457600081600090555060010161070c565b5090565b600061073b61073684610bb6565b610b85565b90508281526020810184848401111561075357600080fd5b61075e848285610d26565b509392505050565b60008135905061077581610e38565b92915050565b600082601f83011261078c57600080fd5b813561079c848260208601610728565b91505092915050565b6000813590506107b481610e4f565b92915050565b600080600080608085870312156107d057600080fd5b60006107de87828801610766565b94505060206107ef878288016107a5565b935050604085013567ffffffffffffffff81111561080c57600080fd5b6108188782880161077b565b925050606085013567ffffffffffffffff81111561083557600080fd5b6108418782880161077b565b91505092959194509250565b60006020828403121561085f57600080fd5b600061086d848285016107a5565b91505092915050565b600061088283836109bc565b905092915050565b61089381610cf0565b82525050565b6108a281610cb4565b82525050565b6108b181610cb4565b82525050565b6108c081610ca2565b82525050565b6108cf81610ca2565b82525050565b60006108e082610bf6565b6108ea8185610c19565b9350836020820285016108fc85610be6565b8060005b8581101561093857848403895281516109198582610876565b945061092483610c0c565b925060208a01995050600181019050610900565b50829750879550505050505092915050565b600061095582610c01565b61095f8185610c2a565b935061096f818560208601610d35565b61097881610e27565b840191505092915050565b600061098e82610c01565b6109988185610c3b565b93506109a8818560208601610d35565b6109b181610e27565b840191505092915050565b600060c0830160008301516109d460008601826108b7565b5060208301516109e76020860182610899565b5060408301516109fa6040860182610a4c565b5060608301518482036060860152610a12828261094a565b9150506080830151610a276080860182610a4c565b5060a083015184820360a0860152610a3f828261094a565b9150508091505092915050565b610a5581610ce6565b82525050565b610a6481610ce6565b82525050565b600060c082019050610a7f60008301896108c6565b610a8c60208301886108a8565b610a996040830187610a5b565b8181036060830152610aab8186610983565b9050610aba6080830185610a5b565b81810360a0830152610acc8184610983565b9050979650505050505050565b600060c082019050610aee60008301896108c6565b610afb602083018861088a565b610b086040830187610a5b565b8181036060830152610b1a8186610983565b9050610b296080830185610a5b565b81810360a0830152610b3b8184610983565b9050979650505050505050565b60006020820190508181036000830152610b6281846108d5565b905092915050565b6000602082019050610b7f6000830184610a5b565b92915050565b6000604051905081810181811067ffffffffffffffff82111715610bac57610bab610df8565b5b8060405250919050565b600067ffffffffffffffff821115610bd157610bd0610df8565b5b601f19601f8301169050602081019050919050565b6000819050602082019050919050565b600081519050919050565b600081519050919050565b6000602082019050919050565b600082825260208201905092915050565b600082825260208201905092915050565b600082825260208201905092915050565b6000610c5782610ce6565b9150610c6283610ce6565b9250827fffffffffffffffffffffffffffffffffffffffffffffffffffffffffffffffff03821115610c9757610c96610d9a565b5b828201905092915050565b6000610cad82610cc6565b9050919050565b6000610cbf82610cc6565b9050919050565b600073ffffffffffffffffffffffffffffffffffffffff82169050919050565b6000819050919050565b6000610cfb82610d02565b9050919050565b6000610d0d82610d14565b9050919050565b6000610d1f82610cc6565b9050919050565b82818337600083830152505050565b60005b83811015610d53578082015181840152602081019050610d38565b83811115610d62576000848401525b50505050565b60006002820490506001821680610d8057607f821691505b60208210811415610d9457610d93610dc9565b5b50919050565b7f4e487b7100000000000000000000000000000000000000000000000000000000600052601160045260246000fd5b7f4e487b7100000000000000000000000000000000000000000000000000000000600052602260045260246000fd5b7f4e487b7100000000000000000000000000000000000000000000000000000000600052604160045260246000fd5b6000601f19601f8301169050919050565b610e4181610cb4565b8114610e4c57600080fd5b50565b610e5881610ce6565b8114610e6357600080fd5b5056fea2646970667358221220800a69ce1463c66a92ca9b25ab36a0cda1abc945dcf1aa23381be5c1304d871064736f6c63430008000033",
  "linkReferences": {},
  "deployedLinkReferences": {}
}