{
  "_format": "hh-sol-artifact-1",
  "contractName": "Transactions",
  "sourceName": "contracts/Transactions.sol",
  "abi": [
    {
      "anonymous": false,
      "inputs": [
        {
          "indexed": false,
          "internalType": "address",
          "name": "from",
          "type": "address"
        },
        {
          "indexed": false,
          "internalType": "address",
          "name": "receiver",
          "type": "address"
        },
        {
          "indexed": false,
          "internalType": "uint256",
          "name": "amount",
          "type": "uint256"
        },
        {
          "indexed": false,
          "internalType": "string",
          "name": "message",
          "type": "string"
        },
        {
          "indexed": false,
          "internalType": "uint256",
          "name": "timestamp",
          "type": "uint256"
        }
      ],
      "name": "Transfer",
      "type": "event"
    },
    {
      "inputs": [
        {
          "internalType": "address payable",
          "name": "receiver",
          "type": "address"
        },
        {
          "internalType": "uint256",
          "name": "amount",
          "type": "uint256"
        },
        {
          "internalType": "string",
          "name": "message",
          "type": "string"
        }
      ],
      "name": "addTransaction",
      "outputs": [],
      "stateMutability": "nonpayable",
      "type": "function"
    },
    {
      "inputs": [],
      "name": "getTransactions",
      "outputs": [
        {
          "components": [
            {
              "internalType": "address",
              "name": "sender",
              "type": "address"
            },
            {
              "internalType": "address payable",
              "name": "receiver",
              "type": "address"
            },
            {
              "internalType": "uint256",
              "name": "amount",
              "type": "uint256"
            },
            {
              "internalType": "string",
              "name": "message",
              "type": "string"
            },
            {
              "internalType": "uint256",
              "name": "timestamp",
              "type": "uint256"
            }
          ],
          "internalType": "struct Transactions.TransferStruct[]",
          "name": "",
          "type": "tuple[]"
        }
      ],
      "stateMutability": "view",
      "type": "function"
    },
    {
      "inputs": [],
      "name": "transactionCount",
      "outputs": [
        {
          "internalType": "uint256",
          "name": "",
          "type": "uint256"
        }
      ],
      "stateMutability": "view",
      "type": "function"
    },
    {
      "inputs": [
        {
          "internalType": "uint256",
          "name": "",
          "type": "uint256"
        }
      ],
      "name": "transactions",
      "outputs": [
        {
          "internalType": "address",
          "name": "sender",
          "type": "address"
        },
        {
          "internalType": "address payable",
          "name": "receiver",
          "type": "address"
        },
        {
          "internalType": "uint256",
          "name": "amount",
          "type": "uint256"
        },
        {
          "internalType": "string",
          "name": "message",
          "type": "string"
        },
        {
          "internalType": "uint256",
          "name": "timestamp",
          "type": "uint256"
        }
      ],
      "stateMutability": "view",
      "type": "function"
    }
  ],
  "bytecode": "0x608060405234801561001057600080fd5b506107ac806100206000396000f3fe608060405234801561001057600080fd5b506004361061004c5760003560e01c8063090c85a41461005157806383920e90146100665780639ace38c214610084578063b77bf600146100a8575b600080fd5b61006461005f3660046104eb565b6100bf565b005b61006e610239565b60405161007b9190610611565b60405180910390f35b6100976100923660046106b7565b610362565b60405161007b9594939291906106d0565b6100b160005481565b60405190815260200161007b565b60016000808282546100d19190610715565b90915550506040805160a0810182523381526001600160a01b03858116602080840191825293830186815260608401868152426080860152600180548082018255600091909152855160059091027fb10e2d527612073b26eecdfd717e6a320cf44b4afac2b0732d9fcbe2b7fa0cf6810180549287166001600160a01b031993841617815594517fb10e2d527612073b26eecdfd717e6a320cf44b4afac2b0732d9fcbe2b7fa0cf7820180549190971692169190911790945590517fb10e2d527612073b26eecdfd717e6a320cf44b4afac2b0732d9fcbe2b7fa0cf8840155518051939491936101e8937fb10e2d527612073b26eecdfd717e6a320cf44b4afac2b0732d9fcbe2b7fa0cf90192919091019061043c565b506080820151816004015550507fc4b32d7ff75a51e487f3cbb5d3202f2efecca1f4c2b987e0039c1d3220b48a83338484844260405161022c9594939291906106d0565b60405180910390a1505050565b60606001805480602002602001604051908101604052809291908181526020016000905b828210156103595760008481526020908190206040805160a0810182526005860290920180546001600160a01b039081168452600182015416938301939093526002830154908201526003820180549192916060840191906102be9061073b565b80601f01602080910402602001604051908101604052809291908181526020018280546102ea9061073b565b80156103375780601f1061030c57610100808354040283529160200191610337565b820191906000526020600020905b81548152906001019060200180831161031a57829003601f168201915b505050505081526020016004820154815250508152602001906001019061025d565b50505050905090565b6001818154811061037257600080fd5b600091825260209091206005909102018054600182015460028301546003840180546001600160a01b0394851696509290931693909290916103b39061073b565b80601f01602080910402602001604051908101604052809291908181526020018280546103df9061073b565b801561042c5780601f106104015761010080835404028352916020019161042c565b820191906000526020600020905b81548152906001019060200180831161040f57829003601f168201915b5050505050908060040154905085565b8280546104489061073b565b90600052602060002090601f01602090048101928261046a57600085556104b0565b82601f1061048357805160ff19168380011785556104b0565b828001600101855582156104b0579182015b828111156104b0578251825591602001919060010190610495565b506104bc9291506104c0565b5090565b5b808211156104bc57600081556001016104c1565b634e487b7160e01b600052604160045260246000fd5b60008060006060848603121561050057600080fd5b83356001600160a01b038116811461051757600080fd5b925060208401359150604084013567ffffffffffffffff8082111561053b57600080fd5b818601915086601f83011261054f57600080fd5b813581811115610561576105616104d5565b604051601f8201601f19908116603f01168101908382118183101715610589576105896104d5565b816040528281528960208487010111156105a257600080fd5b8260208601602083013760006020848301015280955050505050509250925092565b6000815180845260005b818110156105ea576020818501810151868301820152016105ce565b818111156105fc576000602083870101525b50601f01601f19169290920160200192915050565b60006020808301818452808551808352604092508286019150828160051b87010184880160005b838110156106a957888303603f19018552815180516001600160a01b039081168552888201511688850152868101518785015260608082015160a08287018190529190610687838801826105c4565b6080948501519790940196909652505094870194925090860190600101610638565b509098975050505050505050565b6000602082840312156106c957600080fd5b5035919050565b6001600160a01b038681168252851660208201526040810184905260a060608201819052600090610703908301856105c4565b90508260808301529695505050505050565b6000821982111561073657634e487b7160e01b600052601160045260246000fd5b500190565b600181811c9082168061074f57607f821691505b6020821081141561077057634e487b7160e01b600052602260045260246000fd5b5091905056fea264697066735822122089b4c490467ce43f215087a227109d013b5aa1eba493a63e3ec8fc148bc9fb6464736f6c634300080a0033",
  "linkReferences": {},
  "deployedLinkReferences": {}
}