{
  "_format": "hh-sol-artifact-1",
  "contractName": "ICO",
  "sourceName": "contracts/ICO.sol",
  "abi": [
    {
      "anonymous": false,
      "inputs": [],
      "name": "ICOEnded",
      "type": "event"
    },
    {
      "anonymous": false,
      "inputs": [
        {
          "indexed": false,
          "internalType": "uint256",
          "name": "startTime",
          "type": "uint256"
        },
        {
          "indexed": false,
          "internalType": "uint256",
          "name": "endTime",
          "type": "uint256"
        }
      ],
      "name": "ICOStarted",
      "type": "event"
    },
    {
      "anonymous": false,
      "inputs": [
        {
          "indexed": false,
          "internalType": "uint8",
          "name": "version",
          "type": "uint8"
        }
      ],
      "name": "Initialized",
      "type": "event"
    },
    {
      "anonymous": false,
      "inputs": [
        {
          "indexed": true,
          "internalType": "address",
          "name": "previousOwner",
          "type": "address"
        },
        {
          "indexed": true,
          "internalType": "address",
          "name": "newOwner",
          "type": "address"
        }
      ],
      "name": "OwnershipTransferred",
      "type": "event"
    },
    {
      "anonymous": false,
      "inputs": [
        {
          "indexed": true,
          "internalType": "address",
          "name": "buyer",
          "type": "address"
        },
        {
          "indexed": false,
          "internalType": "uint256",
          "name": "tokensPurchased",
          "type": "uint256"
        },
        {
          "indexed": false,
          "internalType": "uint256",
          "name": "totalPrice",
          "type": "uint256"
        }
      ],
      "name": "TokensPurchased",
      "type": "event"
    },
    {
      "inputs": [
        {
          "internalType": "uint256",
          "name": "_etherAmount",
          "type": "uint256"
        }
      ],
      "name": "buyTokens",
      "outputs": [],
      "stateMutability": "payable",
      "type": "function"
    },
    {
      "inputs": [
        {
          "internalType": "uint256",
          "name": "_etherAmount",
          "type": "uint256"
        }
      ],
      "name": "calculateTokenAmount",
      "outputs": [
        {
          "internalType": "uint256",
          "name": "",
          "type": "uint256"
        }
      ],
      "stateMutability": "view",
      "type": "function"
    },
    {
      "inputs": [],
      "name": "discountRate",
      "outputs": [
        {
          "internalType": "uint256",
          "name": "",
          "type": "uint256"
        }
      ],
      "stateMutability": "view",
      "type": "function"
    },
    {
      "inputs": [],
      "name": "endICO",
      "outputs": [],
      "stateMutability": "nonpayable",
      "type": "function"
    },
    {
      "inputs": [],
      "name": "endTime",
      "outputs": [
        {
          "internalType": "uint256",
          "name": "",
          "type": "uint256"
        }
      ],
      "stateMutability": "view",
      "type": "function"
    },
    {
      "inputs": [
        {
          "internalType": "address",
          "name": "_tokenContract",
          "type": "address"
        },
        {
          "internalType": "uint256",
          "name": "_tokenPrice",
          "type": "uint256"
        },
        {
          "internalType": "uint256",
          "name": "_discountRate",
          "type": "uint256"
        },
        {
          "internalType": "uint256",
          "name": "_startTime",
          "type": "uint256"
        },
        {
          "internalType": "uint256",
          "name": "_endTime",
          "type": "uint256"
        }
      ],
      "name": "initialize",
      "outputs": [],
      "stateMutability": "nonpayable",
      "type": "function"
    },
    {
      "inputs": [],
      "name": "isICOActive",
      "outputs": [
        {
          "internalType": "bool",
          "name": "",
          "type": "bool"
        }
      ],
      "stateMutability": "view",
      "type": "function"
    },
    {
      "inputs": [],
      "name": "owner",
      "outputs": [
        {
          "internalType": "address",
          "name": "",
          "type": "address"
        }
      ],
      "stateMutability": "view",
      "type": "function"
    },
    {
      "inputs": [],
      "name": "renounceOwnership",
      "outputs": [],
      "stateMutability": "nonpayable",
      "type": "function"
    },
    {
      "inputs": [
        {
          "internalType": "uint256",
          "name": "_newDiscountRate",
          "type": "uint256"
        }
      ],
      "name": "setDiscountRate",
      "outputs": [],
      "stateMutability": "nonpayable",
      "type": "function"
    },
    {
      "inputs": [],
      "name": "startTime",
      "outputs": [
        {
          "internalType": "uint256",
          "name": "",
          "type": "uint256"
        }
      ],
      "stateMutability": "view",
      "type": "function"
    },
    {
      "inputs": [],
      "name": "tokenContract",
      "outputs": [
        {
          "internalType": "contract IAiboost",
          "name": "",
          "type": "address"
        }
      ],
      "stateMutability": "view",
      "type": "function"
    },
    {
      "inputs": [],
      "name": "tokenPrice",
      "outputs": [
        {
          "internalType": "uint256",
          "name": "",
          "type": "uint256"
        }
      ],
      "stateMutability": "view",
      "type": "function"
    },
    {
      "inputs": [],
      "name": "tokensSold",
      "outputs": [
        {
          "internalType": "uint256",
          "name": "",
          "type": "uint256"
        }
      ],
      "stateMutability": "view",
      "type": "function"
    },
    {
      "inputs": [
        {
          "internalType": "address",
          "name": "newOwner",
          "type": "address"
        }
      ],
      "name": "transferOwnership",
      "outputs": [],
      "stateMutability": "nonpayable",
      "type": "function"
    }
  ],
  "bytecode": "0x608060405234801561001057600080fd5b5061102f806100206000396000f3fe6080604052600436106100e85760003560e01c80637c69febd1161008a578063e6c0e6d511610059578063e6c0e6d51461022d578063f2fde38b14610243578063f6933c7d14610263578063f92ad2191461028d57600080fd5b80637c69febd146101b95780637ff9b596146101d95780638da5cb5b146101ef578063a24bcf461461020d57600080fd5b8063518ab2a8116100c6578063518ab2a81461014057806355a373d614610156578063715018a61461018e57806378e97925146101a357600080fd5b80633197cbb6146100ed5780633610724e146101165780634f2484091461012b575b600080fd5b3480156100f957600080fd5b50610103606a5481565b6040519081526020015b60405180910390f35b610129610124366004610d69565b6102ad565b005b34801561013757600080fd5b506101296104c6565b34801561014c57600080fd5b5061010360675481565b34801561016257600080fd5b50606554610176906001600160a01b031681565b6040516001600160a01b03909116815260200161010d565b34801561019a57600080fd5b5061012961064d565b3480156101af57600080fd5b5061010360695481565b3480156101c557600080fd5b506101296101d4366004610d69565b610661565b3480156101e557600080fd5b5061010360665481565b3480156101fb57600080fd5b506033546001600160a01b0316610176565b34801561021957600080fd5b50610103610228366004610d69565b6106fc565b34801561023957600080fd5b5061010360685481565b34801561024f57600080fd5b5061012961025e366004610d9e565b610746565b34801561026f57600080fd5b50606b5461027d9060ff1681565b604051901515815260200161010d565b34801561029957600080fd5b506101296102a8366004610db9565b6107bc565b606b5460ff166102f85760405162461bcd60e51b815260206004820152601160248201527049434f206973206e6f742061637469766560781b60448201526064015b60405180910390fd5b606954421015801561030c5750606a544211155b61034c5760405162461bcd60e51b815260206004820152601160248201527049434f206973206e6f742061637469766560781b60448201526064016102ef565b61038060405180604001604052806012815260200171101250d3ce8817d95d1a195c905b5bdd5b9d60721b8152508261090e565b600061038b826106fc565b90506103cc6040518060400160405280601a81526020017f4049434f3a2063616c63756c617465546f6b656e416d6f756e740000000000008152508261090e565b600081116104135760405162461bcd60e51b8152602060048201526014602482015273125b9d985b1a59081d1bdad95b88185b5bdd5b9d60621b60448201526064016102ef565b6067546104209082610957565b606755606554604051633c37699760e21b8152336004820152602481018390526001600160a01b039091169063f0dda65c90604401600060405180830381600087803b15801561046f57600080fd5b505af1158015610483573d6000803e3d6000fd5b505060408051848152602081018690523393507f8fafebcaf9d154343dad25669bfa277f4fbacd7ac6b0c4fed522580e040a0f3392500160405180910390a25050565b6033546001600160a01b031633146104f05760405162461bcd60e51b81526004016102ef90610dfb565b606a544210156105385760405162461bcd60e51b815260206004820152601360248201527249434f206973207374696c6c2061637469766560681b60448201526064016102ef565b606b805460ff191690556040517f62d9c267e3294582be7ffc2c372b78d98e14b84950ace43674b44642ff3ca0ad90600090a16065546040516370a0823160e01b81523060048201526000916001600160a01b0316906370a0823190602401602060405180830381865afa1580156105b4573d6000803e3d6000fd5b505050506040513d601f19601f820116820180604052508101906105d89190610e40565b9050600081116106225760405162461bcd60e51b81526020600482015260156024820152742737903a37b5b2b739903a37903a3930b739b332b960591b60448201526064016102ef565b61064a6106376033546001600160a01b031690565b6065546001600160a01b03169083610963565b50565b6106556109ba565b61065f6000610a14565b565b6033546001600160a01b0316331461068b5760405162461bcd60e51b81526004016102ef90610dfb565b6127108111156106f75760405162461bcd60e51b815260206004820152603160248201527f446973636f756e7420726174652073686f756c6420626520696e20626173697360448201527020706f696e74732028302d31303030302960781b60648201526084016102ef565b606855565b6000806107276127106107216068546127106107189190610e6f565b60665490610a66565b90610a72565b905061073f8161072185670de0b6b3a7640000610a66565b9392505050565b61074e6109ba565b6001600160a01b0381166107b35760405162461bcd60e51b815260206004820152602660248201527f4f776e61626c653a206e6577206f776e657220697320746865207a65726f206160448201526564647265737360d01b60648201526084016102ef565b61064a81610a14565b600054610100900460ff16158080156107dc5750600054600160ff909116105b806107f65750303b1580156107f6575060005460ff166001145b6108595760405162461bcd60e51b815260206004820152602e60248201527f496e697469616c697a61626c653a20636f6e747261637420697320616c72656160448201526d191e481a5b9a5d1a585b1a5e995960921b60648201526084016102ef565b6000805460ff19166001179055801561087c576000805461ff0019166101001790555b610884610a7e565b606580546001600160a01b0319166001600160a01b038816179055606685905560688490556069839055606a829055606b805460ff191660011790558015610906576000805461ff0019169055604051600181527f7f26b83ff96e1f2b6a682f133852f6798a09c465da95921460cefb38474024989060200160405180910390a15b505050505050565b6109538282604051602401610924929190610ee2565b60408051601f198184030181529190526020810180516001600160e01b0316632d839cb360e21b179052610aad565b5050565b600061073f8284610f04565b604080516001600160a01b038416602482015260448082018490528251808303909101815260649091019091526020810180516001600160e01b031663a9059cbb60e01b1790526109b5908490610ab6565b505050565b6033546001600160a01b0316331461065f5760405162461bcd60e51b815260206004820181905260248201527f4f776e61626c653a2063616c6c6572206973206e6f7420746865206f776e657260448201526064016102ef565b603380546001600160a01b038381166001600160a01b0319831681179093556040519116919082907f8be0079c531659141344cd1fd0a4f28419497f9722a3daafe3b4186f6b6457e090600090a35050565b600061073f8284610f1c565b600061073f8284610f3b565b600054610100900460ff16610aa55760405162461bcd60e51b81526004016102ef90610f5d565b61065f610b8b565b61064a81610bbb565b6000610b0b826040518060400160405280602081526020017f5361666545524332303a206c6f772d6c6576656c2063616c6c206661696c6564815250856001600160a01b0316610bdc9092919063ffffffff16565b9050805160001480610b2c575080806020019051810190610b2c9190610fa8565b6109b55760405162461bcd60e51b815260206004820152602a60248201527f5361666545524332303a204552433230206f7065726174696f6e20646964206e6044820152691bdd081cdd58d8d9595960b21b60648201526084016102ef565b600054610100900460ff16610bb25760405162461bcd60e51b81526004016102ef90610f5d565b61065f33610a14565b60006a636f6e736f6c652e6c6f679050600080835160208501845afa505050565b6060610beb8484600085610bf3565b949350505050565b606082471015610c545760405162461bcd60e51b815260206004820152602660248201527f416464726573733a20696e73756666696369656e742062616c616e636520666f6044820152651c8818d85b1b60d21b60648201526084016102ef565b600080866001600160a01b03168587604051610c709190610fca565b60006040518083038185875af1925050503d8060008114610cad576040519150601f19603f3d011682016040523d82523d6000602084013e610cb2565b606091505b5091509150610cc387838387610cce565b979650505050505050565b60608315610d3a578251610d33576001600160a01b0385163b610d335760405162461bcd60e51b815260206004820152601d60248201527f416464726573733a2063616c6c20746f206e6f6e2d636f6e747261637400000060448201526064016102ef565b5081610beb565b610beb8383815115610d4f5781518083602001fd5b8060405162461bcd60e51b81526004016102ef9190610fe6565b600060208284031215610d7b57600080fd5b5035919050565b80356001600160a01b0381168114610d9957600080fd5b919050565b600060208284031215610db057600080fd5b61073f82610d82565b600080600080600060a08688031215610dd157600080fd5b610dda86610d82565b97602087013597506040870135966060810135965060800135945092505050565b60208082526025908201527f4f6e6c792061646d696e2063616e20706572666f726d2074686973206f70657260408201526430ba34b7b760d91b606082015260800190565b600060208284031215610e5257600080fd5b5051919050565b634e487b7160e01b600052601160045260246000fd5b600082821015610e8157610e81610e59565b500390565b60005b83811015610ea1578181015183820152602001610e89565b83811115610eb0576000848401525b50505050565b60008151808452610ece816020860160208601610e86565b601f01601f19169290920160200192915050565b604081526000610ef56040830185610eb6565b90508260208301529392505050565b60008219821115610f1757610f17610e59565b500190565b6000816000190483118215151615610f3657610f36610e59565b500290565b600082610f5857634e487b7160e01b600052601260045260246000fd5b500490565b6020808252602b908201527f496e697469616c697a61626c653a20636f6e7472616374206973206e6f74206960408201526a6e697469616c697a696e6760a81b606082015260800190565b600060208284031215610fba57600080fd5b8151801515811461073f57600080fd5b60008251610fdc818460208701610e86565b9190910192915050565b60208152600061073f6020830184610eb656fea26469706673582212204c452d5a4d4c0900b86ff527b7e4693bde1d75fb9aa8e51686177fc3cbc3289464736f6c634300080a0033",
  "linkReferences": {},
  "deployedLinkReferences": {}
}