{
  "_format": "hh-sol-artifact-1",
  "contractName": "Lottery",
  "sourceName": "contracts/Lottery.sol",
  "abi": [
    {
      "inputs": [
        {
          "internalType": "address",
          "name": "_manager",
          "type": "address"
        }
      ],
      "stateMutability": "nonpayable",
      "type": "constructor"
    },
    {
      "anonymous": false,
      "inputs": [
        {
          "indexed": false,
          "internalType": "uint256",
          "name": "amount",
          "type": "uint256"
        }
      ],
      "name": "CommissionWithdrawn",
      "type": "event"
    },
    {
      "anonymous": false,
      "inputs": [
        {
          "indexed": true,
          "internalType": "address",
          "name": "previousOwner",
          "type": "address"
        },
        {
          "indexed": true,
          "internalType": "address",
          "name": "newOwner",
          "type": "address"
        }
      ],
      "name": "OwnershipTransferred",
      "type": "event"
    },
    {
      "anonymous": false,
      "inputs": [
        {
          "indexed": false,
          "internalType": "address",
          "name": "winner",
          "type": "address"
        },
        {
          "indexed": false,
          "internalType": "uint256",
          "name": "winningPrize",
          "type": "uint256"
        }
      ],
      "name": "WinnerDeclared",
      "type": "event"
    },
    {
      "inputs": [
        {
          "internalType": "uint256",
          "name": "_newFee",
          "type": "uint256"
        }
      ],
      "name": "changeEntryFee",
      "outputs": [],
      "stateMutability": "nonpayable",
      "type": "function"
    },
    {
      "inputs": [],
      "name": "closeIfEnded",
      "outputs": [],
      "stateMutability": "nonpayable",
      "type": "function"
    },
    {
      "inputs": [],
      "name": "commissionBasisPoints",
      "outputs": [
        {
          "internalType": "uint256",
          "name": "",
          "type": "uint256"
        }
      ],
      "stateMutability": "view",
      "type": "function"
    },
    {
      "inputs": [],
      "name": "end",
      "outputs": [],
      "stateMutability": "nonpayable",
      "type": "function"
    },
    {
      "inputs": [],
      "name": "endTime",
      "outputs": [
        {
          "internalType": "uint256",
          "name": "",
          "type": "uint256"
        }
      ],
      "stateMutability": "view",
      "type": "function"
    },
    {
      "inputs": [],
      "name": "enter",
      "outputs": [],
      "stateMutability": "payable",
      "type": "function"
    },
    {
      "inputs": [],
      "name": "entryFee",
      "outputs": [
        {
          "internalType": "uint256",
          "name": "",
          "type": "uint256"
        }
      ],
      "stateMutability": "view",
      "type": "function"
    },
    {
      "inputs": [],
      "name": "getAllPlayers",
      "outputs": [
        {
          "internalType": "address[]",
          "name": "",
          "type": "address[]"
        }
      ],
      "stateMutability": "view",
      "type": "function"
    },
    {
      "inputs": [],
      "name": "getRemainingTime",
      "outputs": [
        {
          "internalType": "uint256",
          "name": "",
          "type": "uint256"
        }
      ],
      "stateMutability": "view",
      "type": "function"
    },
    {
      "inputs": [],
      "name": "lotteryStatus",
      "outputs": [
        {
          "internalType": "enum Lottery.LotteryStatus",
          "name": "",
          "type": "uint8"
        }
      ],
      "stateMutability": "view",
      "type": "function"
    },
    {
      "inputs": [],
      "name": "manager",
      "outputs": [
        {
          "internalType": "address",
          "name": "",
          "type": "address"
        }
      ],
      "stateMutability": "view",
      "type": "function"
    },
    {
      "inputs": [],
      "name": "owner",
      "outputs": [
        {
          "internalType": "address",
          "name": "",
          "type": "address"
        }
      ],
      "stateMutability": "view",
      "type": "function"
    },
    {
      "inputs": [
        {
          "internalType": "uint256",
          "name": "",
          "type": "uint256"
        }
      ],
      "name": "players",
      "outputs": [
        {
          "internalType": "address",
          "name": "",
          "type": "address"
        }
      ],
      "stateMutability": "view",
      "type": "function"
    },
    {
      "inputs": [],
      "name": "renounceOwnership",
      "outputs": [],
      "stateMutability": "nonpayable",
      "type": "function"
    },
    {
      "inputs": [
        {
          "internalType": "uint256",
          "name": "_basisPoints",
          "type": "uint256"
        }
      ],
      "name": "setCommissionBasisPoints",
      "outputs": [],
      "stateMutability": "nonpayable",
      "type": "function"
    },
    {
      "inputs": [
        {
          "internalType": "uint256",
          "name": "_timeInMinutes",
          "type": "uint256"
        }
      ],
      "name": "start",
      "outputs": [],
      "stateMutability": "nonpayable",
      "type": "function"
    },
    {
      "inputs": [
        {
          "internalType": "address",
          "name": "newOwner",
          "type": "address"
        }
      ],
      "name": "transferOwnership",
      "outputs": [],
      "stateMutability": "nonpayable",
      "type": "function"
    },
    {
      "inputs": [],
      "name": "winner",
      "outputs": [
        {
          "internalType": "address",
          "name": "",
          "type": "address"
        }
      ],
      "stateMutability": "view",
      "type": "function"
    },
    {
      "inputs": [],
      "name": "withdrawRemainingFunds",
      "outputs": [],
      "stateMutability": "nonpayable",
      "type": "function"
    }
  ],
  "bytecode": "0x608060405267016345785d8a00006002556101f460065534801561002257600080fd5b506040516110d23803806110d2833981016040819052610041916100ce565b61004a3361007e565b6007805460ff19166002179055600580546001600160a01b03929092166001600160a01b03199092169190911790556100fe565b600080546001600160a01b038381166001600160a01b0319831681178455604051919092169283917f8be0079c531659141344cd1fd0a4f28419497f9722a3daafe3b4186f6b6457e09190a35050565b6000602082840312156100e057600080fd5b81516001600160a01b03811681146100f757600080fd5b9392505050565b610fc58061010d6000396000f3fe6080604052600436106101145760003560e01c8063dfbf53ae116100a0578063efbe1c1c11610064578063efbe1c1c146102ab578063f00f6921146102c0578063f2fde38b146102e0578063f71d96cb14610300578063f7d978a21461032057600080fd5b8063dfbf53ae14610237578063e97dcb6214610257578063ef86ce8e1461025f578063efa1c48214610274578063efb98bcf1461029657600080fd5b8063481c6a75116100e7578063481c6a7514610196578063715018a6146101ce57806389fdfd05146101e35780638da5cb5b146101f957806395805dad1461021757600080fd5b8063072ea61c146101195780630d683dd9146101425780630ded5dcf146101695780633197cbb614610180575b600080fd5b34801561012557600080fd5b5061012f60025481565b6040519081526020015b60405180910390f35b34801561014e57600080fd5b5060075461015c9060ff1681565b6040516101399190610d54565b34801561017557600080fd5b5061017e610340565b005b34801561018c57600080fd5b5061012f60045481565b3480156101a257600080fd5b506005546101b6906001600160a01b031681565b6040516001600160a01b039091168152602001610139565b3480156101da57600080fd5b5061017e610384565b3480156101ef57600080fd5b5061012f60065481565b34801561020557600080fd5b506000546001600160a01b03166101b6565b34801561022357600080fd5b5061017e610232366004610d7c565b610396565b34801561024357600080fd5b506003546101b6906001600160a01b031681565b61017e610463565b34801561026b57600080fd5b5061017e6105e3565b34801561028057600080fd5b506102896106ae565b6040516101399190610d95565b3480156102a257600080fd5b5061012f61077b565b3480156102b757600080fd5b5061017e6107c4565b3480156102cc57600080fd5b5061017e6102db366004610d7c565b610a5b565b3480156102ec57600080fd5b5061017e6102fb366004610de2565b610acd565b34801561030c57600080fd5b506101b661031b366004610d7c565b610b46565b34801561032c57600080fd5b5061017e61033b366004610d7c565b610b70565b4260045411158015610353575060015415155b80156103755750600160075460ff16600281111561037357610373610d3e565b145b15610382576103826107c4565b565b61038c610bcd565b6103826000610c27565b61039e610bcd565b60028060075460ff1660028111156103b8576103b8610d3e565b146103de5760405162461bcd60e51b81526004016103d590610e0b565b60405180910390fd5b6000821161043a5760405162461bcd60e51b8152602060048201526024808201527f54696d65206475726174696f6e206d75737420626520677265617465722074686044820152630616e20360e41b60648201526084016103d5565b6007805460ff1916600117905561045c61045583603c610c77565b4290610c8a565b6004555050565b600160075460ff16600281111561047c5761047c610d3e565b146104bf5760405162461bcd60e51b8152602060048201526013602482015272131bdd1d195c9e481b9bdd081cdd185c9d1959606a1b60448201526064016103d5565b6002543410156105055760405162461bcd60e51b8152602060048201526011602482015270456e74727920666565206973206c65737360781b60448201526064016103d5565b42600454116105445760405162461bcd60e51b815260206004820152600b60248201526a2a34b6b29034b9903ab81760a91b60448201526064016103d5565b61054d33610c96565b1561059a5760405162461bcd60e51b815260206004820152601d60248201527f596f752061726520616c72656164792061207061727469636970616e7400000060448201526064016103d5565b6001805480820182556000919091527fb10e2d527612073b26eecdfd717e6a320cf44b4afac2b0732d9fcbe2b7fa0cf60180546001600160a01b03191633179055610382610340565b6105eb610bcd565b60028060075460ff16600281111561060557610605610d3e565b146106225760405162461bcd60e51b81526004016103d590610e0b565b47806106705760405162461bcd60e51b815260206004820152601e60248201527f4e6f2072656d61696e696e672066756e647320746f207769746864726177000060448201526064016103d5565b600080546040516001600160a01b039091169183156108fc02918491818181858888f193505050501580156106a9573d6000803e3d6000fd5b505050565b60015460609060009067ffffffffffffffff8111156106cf576106cf610e3b565b6040519080825280602002602001820160405280156106f8578160200160208202803683370190505b50905060005b600154811015610775576001818154811061071b5761071b610e51565b9060005260206000200160009054906101000a90046001600160a01b031682828151811061074b5761074b610e51565b6001600160a01b03909216602092830291909101909101528061076d81610e7d565b9150506106fe565b50919050565b6000600160075460ff16600281111561079657610796610d3e565b14156107be5742600454116107ab5750600090565b426004546107b99190610e98565b905090565b50600090565b60018060075460ff1660028111156107de576107de610d3e565b146107fb5760405162461bcd60e51b81526004016103d590610e0b565b4260045411156108605760405162461bcd60e51b815260206004820152602a60248201527f596f752063616e6e6f7420656e6420746865206c6f7474657279206265666f7260448201526965207468652074696d6560b01b60648201526084016103d5565b6001546108a15760405162461bcd60e51b815260206004820152600f60248201526e4e6f207061727469636970616e747360881b60448201526064016103d5565b6007805460ff19166002179055600180546040516000926108ca91449142913390602001610eaf565b6040516020818303038152906040528051906020012060001c6108ed9190610f30565b90506001818154811061090257610902610e51565b6000918252602082200154600380546001600160a01b0319166001600160a01b0390921691909117905560065447919061094b9061271090610945908590610c77565b90610d00565b905060006109598284610e98565b6003546040519192506001600160a01b03169082156108fc029083906000818181858888f19350505050158015610994573d6000803e3d6000fd5b506109a160016000610d0c565b600354604080516001600160a01b039092168252602082018390527f3cf1af53e79884a92609ce59db1ec9f584d88e2d14c8eaba43a21db81318301e910160405180910390a16040518281527fc2bb3206848157e57e737eec7e141f06f5de585e2f1c0f0ec60a04f45a2c00319060200160405180910390a1600080546040516001600160a01b039091169184156108fc02918591818181858888f19350505050158015610a53573d6000803e3d6000fd5b505050505050565b610a63610bcd565b612710811115610ac85760405162461bcd60e51b815260206004820152602a60248201527f436f6d6d697373696f6e20626173697320706f696e74732063616e6e6f7420656044820152697863656564203130302560b01b60648201526084016103d5565b600655565b610ad5610bcd565b6001600160a01b038116610b3a5760405162461bcd60e51b815260206004820152602660248201527f4f776e61626c653a206e6577206f776e657220697320746865207a65726f206160448201526564647265737360d01b60648201526084016103d5565b610b4381610c27565b50565b60018181548110610b5657600080fd5b6000918252602090912001546001600160a01b0316905081565b610b78610bcd565b60008111610bc85760405162461bcd60e51b815260206004820181905260248201527f456e74727920666565206d7573742062652067726561746572207468616e203060448201526064016103d5565b600255565b6000546001600160a01b031633146103825760405162461bcd60e51b815260206004820181905260248201527f4f776e61626c653a2063616c6c6572206973206e6f7420746865206f776e657260448201526064016103d5565b600080546001600160a01b038381166001600160a01b0319831681178455604051919092169283917f8be0079c531659141344cd1fd0a4f28419497f9722a3daafe3b4186f6b6457e09190a35050565b6000610c838284610f44565b9392505050565b6000610c838284610f63565b6000805b600154811015610cf757826001600160a01b031660018281548110610cc157610cc1610e51565b6000918252602090912001546001600160a01b03161415610ce55750600192915050565b80610cef81610e7d565b915050610c9a565b50600092915050565b6000610c838284610f7b565b5080546000825590600052602060002090810190610b4391905b80821115610d3a5760008155600101610d26565b5090565b634e487b7160e01b600052602160045260246000fd5b6020810160038310610d7657634e487b7160e01b600052602160045260246000fd5b91905290565b600060208284031215610d8e57600080fd5b5035919050565b6020808252825182820181905260009190848201906040850190845b81811015610dd65783516001600160a01b031683529284019291840191600101610db1565b50909695505050505050565b600060208284031215610df457600080fd5b81356001600160a01b0381168114610c8357600080fd5b602080825260169082015275496e76616c6964206c6f74746572792073746174757360501b604082015260600190565b634e487b7160e01b600052604160045260246000fd5b634e487b7160e01b600052603260045260246000fd5b634e487b7160e01b600052601160045260246000fd5b6000600019821415610e9157610e91610e67565b5060010190565b600082821015610eaa57610eaa610e67565b500390565b848152600060208581840152604083018554866000528260002060005b82811015610ef15781546001600160a01b031684529284019260019182019101610ecc565b50505060609490941b6bffffffffffffffffffffffff1916845250506014909101949350505050565b634e487b7160e01b600052601260045260246000fd5b600082610f3f57610f3f610f1a565b500690565b6000816000190483118215151615610f5e57610f5e610e67565b500290565b60008219821115610f7657610f76610e67565b500190565b600082610f8a57610f8a610f1a565b50049056fea26469706673582212201aee489e90a8935a95172435b41f55205ff5b92c476eec67044bb936a25d680b64736f6c634300080a0033",
  "linkReferences": {},
  "deployedLinkReferences": {}
}