{
  "_format": "hh-sol-artifact-1",
  "contractName": "Lottery",
  "sourceName": "contracts/Lottery.sol",
  "abi": [
    {
      "inputs": [],
      "stateMutability": "nonpayable",
      "type": "constructor"
    },
    {
      "anonymous": false,
      "inputs": [
        {
          "indexed": false,
          "internalType": "address",
          "name": "winner",
          "type": "address"
        },
        {
          "indexed": false,
          "internalType": "uint256",
          "name": "winningPrice",
          "type": "uint256"
        }
      ],
      "name": "WinnerDeclared",
      "type": "event"
    },
    {
      "inputs": [],
      "name": "end",
      "outputs": [],
      "stateMutability": "nonpayable",
      "type": "function"
    },
    {
      "inputs": [],
      "name": "enter",
      "outputs": [],
      "stateMutability": "payable",
      "type": "function"
    },
    {
      "inputs": [],
      "name": "entryFee",
      "outputs": [
        {
          "internalType": "uint256",
          "name": "",
          "type": "uint256"
        }
      ],
      "stateMutability": "view",
      "type": "function"
    },
    {
      "inputs": [],
      "name": "getPlayers",
      "outputs": [
        {
          "internalType": "address[]",
          "name": "",
          "type": "address[]"
        }
      ],
      "stateMutability": "view",
      "type": "function"
    },
    {
      "inputs": [],
      "name": "getRemainingTime",
      "outputs": [
        {
          "internalType": "uint256",
          "name": "",
          "type": "uint256"
        }
      ],
      "stateMutability": "view",
      "type": "function"
    },
    {
      "inputs": [],
      "name": "manager",
      "outputs": [
        {
          "internalType": "address",
          "name": "",
          "type": "address"
        }
      ],
      "stateMutability": "view",
      "type": "function"
    },
    {
      "inputs": [
        {
          "internalType": "uint256",
          "name": "",
          "type": "uint256"
        }
      ],
      "name": "players",
      "outputs": [
        {
          "internalType": "address",
          "name": "",
          "type": "address"
        }
      ],
      "stateMutability": "view",
      "type": "function"
    },
    {
      "inputs": [
        {
          "internalType": "uint256",
          "name": "_timeInMinutes",
          "type": "uint256"
        }
      ],
      "name": "start",
      "outputs": [],
      "stateMutability": "nonpayable",
      "type": "function"
    },
    {
      "inputs": [],
      "name": "status",
      "outputs": [
        {
          "internalType": "enum Lottery.LotteryStatus",
          "name": "",
          "type": "uint8"
        }
      ],
      "stateMutability": "view",
      "type": "function"
    },
    {
      "inputs": [],
      "name": "winningPrice",
      "outputs": [
        {
          "internalType": "uint256",
          "name": "",
          "type": "uint256"
        }
      ],
      "stateMutability": "view",
      "type": "function"
    }
  ],
  "bytecode": "0x608060405267016345785d8a00006002556000600560006101000a81548160ff0219169083600281111561005c577f4e487b7100000000000000000000000000000000000000000000000000000000600052602160045260246000fd5b021790555034801561006d57600080fd5b50336000806101000a81548173ffffffffffffffffffffffffffffffffffffffff021916908373ffffffffffffffffffffffffffffffffffffffff160217905550611794806100bd6000396000f3fe6080604052600436106100915760003560e01c8063c1f5260411610059578063c1f526041461016b578063e97dcb6214610196578063efb98bcf146101a0578063efbe1c1c146101cb578063f71d96cb146101e257610091565b8063072ea61c14610096578063200d2ed2146100c1578063481c6a75146100ec5780638b5b9ccc1461011757806395805dad14610142575b600080fd5b3480156100a257600080fd5b506100ab61021f565b6040516100b891906113e6565b60405180910390f35b3480156100cd57600080fd5b506100d6610225565b6040516100e3919061128b565b60405180910390f35b3480156100f857600080fd5b50610101610238565b60405161010e9190611225565b60405180910390f35b34801561012357600080fd5b5061012c61025c565b6040516101399190611269565b60405180910390f35b34801561014e57600080fd5b5061016960048036038101906101649190610d56565b6102ea565b005b34801561017757600080fd5b506101806104ac565b60405161018d91906113e6565b60405180910390f35b61019e6104b4565b005b3480156101ac57600080fd5b506101b56106ae565b6040516101c291906113e6565b60405180910390f35b3480156101d757600080fd5b506101e06107c9565b005b3480156101ee57600080fd5b5061020960048036038101906102049190610d56565b610b50565b6040516102169190611225565b60405180910390f35b60025481565b600560009054906101000a900460ff1681565b60008054906101000a900473ffffffffffffffffffffffffffffffffffffffff1681565b606060018054806020026020016040519081016040528092919081815260200182805480156102e057602002820191906000526020600020905b8160009054906101000a900473ffffffffffffffffffffffffffffffffffffffff1673ffffffffffffffffffffffffffffffffffffffff1681526020019060010190808311610296575b5050505050905090565b60008054906101000a900473ffffffffffffffffffffffffffffffffffffffff1673ffffffffffffffffffffffffffffffffffffffff163373ffffffffffffffffffffffffffffffffffffffff1614610378576040517f08c379a000000000000000000000000000000000000000000000000000000000815260040161036f906113a6565b60405180910390fd5b600060028111156103b2577f4e487b7100000000000000000000000000000000000000000000000000000000600052602160045260246000fd5b600560009054906101000a900460ff1660028111156103fa577f4e487b7100000000000000000000000000000000000000000000000000000000600052602160045260246000fd5b1461043a576040517f08c379a0000000000000000000000000000000000000000000000000000000008152600401610431906112c6565b60405180910390fd5b6001600560006101000a81548160ff02191690836002811115610486577f4e487b7100000000000000000000000000000000000000000000000000000000600052602160045260246000fd5b0217905550603c8161049891906114d9565b426104a39190611483565b60048190555050565b600047905090565b4260045410156104f9576040517f08c379a00000000000000000000000000000000000000000000000000000000081526004016104f0906112e6565b60405180910390fd5b61050233610b8f565b15610542576040517f08c379a000000000000000000000000000000000000000000000000000000000815260040161053990611346565b60405180910390fd5b600254341015610587576040517f08c379a000000000000000000000000000000000000000000000000000000000815260040161057e90611326565b60405180910390fd5b600160028111156105c1577f4e487b7100000000000000000000000000000000000000000000000000000000600052602160045260246000fd5b600560009054906101000a900460ff166002811115610609577f4e487b7100000000000000000000000000000000000000000000000000000000600052602160045260246000fd5b14610649576040517f08c379a0000000000000000000000000000000000000000000000000000000008152600401610640906112a6565b60405180910390fd5b6001339080600181540180825580915050600190039060005260206000200160009091909190916101000a81548173ffffffffffffffffffffffffffffffffffffffff021916908373ffffffffffffffffffffffffffffffffffffffff160217905550565b600042600454116106f4576040517f08c379a00000000000000000000000000000000000000000000000000000000081526004016106eb906113c6565b60405180910390fd5b60028081111561072d577f4e487b7100000000000000000000000000000000000000000000000000000000600052602160045260246000fd5b600560009054906101000a900460ff166002811115610775577f4e487b7100000000000000000000000000000000000000000000000000000000600052602160045260246000fd5b14156107b6576040517f08c379a00000000000000000000000000000000000000000000000000000000081526004016107ad90611366565b60405180910390fd5b426004546107c49190611533565b905090565b60008054906101000a900473ffffffffffffffffffffffffffffffffffffffff1673ffffffffffffffffffffffffffffffffffffffff163373ffffffffffffffffffffffffffffffffffffffff1614610857576040517f08c379a000000000000000000000000000000000000000000000000000000000815260040161084e906113a6565b60405180910390fd5b60045442101561089c576040517f08c379a000000000000000000000000000000000000000000000000000000000815260040161089390611306565b60405180910390fd5b6002600560006101000a81548160ff021916908360028111156108e8577f4e487b7100000000000000000000000000000000000000000000000000000000600052602160045260246000fd5b0217905550600060018054905011610935576040517f08c379a000000000000000000000000000000000000000000000000000000000815260040161092c90611386565b60405180910390fd5b6000600180549050610945610c64565b61094f9190611655565b90506001818154811061098b577f4e487b7100000000000000000000000000000000000000000000000000000000600052603260045260246000fd5b9060005260206000200160009054906101000a900473ffffffffffffffffffffffffffffffffffffffff16600360006101000a81548173ffffffffffffffffffffffffffffffffffffffff021916908373ffffffffffffffffffffffffffffffffffffffff1602179055506000610a006104ac565b9050600360009054906101000a900473ffffffffffffffffffffffffffffffffffffffff1673ffffffffffffffffffffffffffffffffffffffff166108fc479081150290604051600060405180830381858888f19350505050158015610a6a573d6000803e3d6000fd5b50600067ffffffffffffffff811115610aac577f4e487b7100000000000000000000000000000000000000000000000000000000600052604160045260246000fd5b604051908082528060200260200182016040528015610ada5781602001602082028036833780820191505090505b5060019080519060200190610af0929190610c9a565b507f3cf1af53e79884a92609ce59db1ec9f584d88e2d14c8eaba43a21db81318301e600360009054906101000a900473ffffffffffffffffffffffffffffffffffffffff1682604051610b44929190611240565b60405180910390a15050565b60018181548110610b6057600080fd5b906000526020600020016000915054906101000a900473ffffffffffffffffffffffffffffffffffffffff1681565b600080600090505b600180549050811015610c59578273ffffffffffffffffffffffffffffffffffffffff1660018281548110610bf5577f4e487b7100000000000000000000000000000000000000000000000000000000600052603260045260246000fd5b9060005260206000200160009054906101000a900473ffffffffffffffffffffffffffffffffffffffff1673ffffffffffffffffffffffffffffffffffffffff161415610c46576001915050610c5f565b8080610c5190611602565b915050610b97565b50600090505b919050565b600044426001604051602001610c7c939291906111ec565b6040516020818303038152906040528051906020012060001c905090565b828054828255906000526020600020908101928215610d13579160200282015b82811115610d125782518260006101000a81548173ffffffffffffffffffffffffffffffffffffffff021916908373ffffffffffffffffffffffffffffffffffffffff16021790555091602001919060010190610cba565b5b509050610d209190610d24565b5090565b5b80821115610d3d576000816000905550600101610d25565b5090565b600081359050610d5081611747565b92915050565b600060208284031215610d6857600080fd5b6000610d7684828501610d41565b91505092915050565b6000610d8b8383610daf565b60208301905092915050565b6000610da38383610dcd565b60208301905092915050565b610db881611587565b82525050565b610dc781611587565b82525050565b610dd681611587565b82525050565b6000610de782611426565b610df18185611456565b9350610dfc83611401565b8060005b83811015610e2d578151610e148882610d7f565b9750610e1f8361143c565b925050600181019050610e00565b5085935050505092915050565b6000610e4582611431565b610e4f8185611467565b9350610e5a83611411565b8060005b83811015610e9257610e6f82611713565b610e798882610d97565b9750610e8483611449565b925050600181019050610e5e565b5085935050505092915050565b610ea8816115d6565b82525050565b6000610ebb602583611472565b91507f6c6f747465727920686173206e6f742073746172746564206f7220697473206560008301527f6e6465642e0000000000000000000000000000000000000000000000000000006020830152604082019050919050565b6000610f21602a83611472565b91507f6c6f74746572792068617320616c7265616479206265656e207374617274656460008301527f206f7220656e6465642e000000000000000000000000000000000000000000006020830152604082019050919050565b6000610f87600b83611472565b91507f74696d652069732075702e0000000000000000000000000000000000000000006000830152602082019050919050565b6000610fc7602483611472565b91507f796f752063616e206e6f7420656e64206c6f7474657279206265666f7265207460008301527f696d652e000000000000000000000000000000000000000000000000000000006020830152604082019050919050565b600061102d602083611472565b91507f656e74727920666565206973206c657373207468656e20302e312065746865726000830152602082019050919050565b600061106d601d83611472565b91507f796f752061726520616c72656164792061207061727469636970616e740000006000830152602082019050919050565b60006110ad602483611472565b91507f6c6f7474657279206973206e6f742073746172746564206f722069747320656e60008301527f6465642e000000000000000000000000000000000000000000000000000000006020830152604082019050919050565b6000611113600e83611472565b91507f30207061727469636970616e74730000000000000000000000000000000000006000830152602082019050919050565b6000611153601783611472565b91507f796f7520617265206e6f7420746865206d616e616765720000000000000000006000830152602082019050919050565b6000611193601283611472565b91507f74696d6520697320616c726561647920757000000000000000000000000000006000830152602082019050919050565b6111cf816115cc565b82525050565b6111e66111e1826115cc565b61164b565b82525050565b60006111f882866111d5565b60208201915061120882856111d5565b6020820191506112188284610e3a565b9150819050949350505050565b600060208201905061123a6000830184610dbe565b92915050565b60006040820190506112556000830185610dbe565b61126260208301846111c6565b9392505050565b600060208201905081810360008301526112838184610ddc565b905092915050565b60006020820190506112a06000830184610e9f565b92915050565b600060208201905081810360008301526112bf81610eae565b9050919050565b600060208201905081810360008301526112df81610f14565b9050919050565b600060208201905081810360008301526112ff81610f7a565b9050919050565b6000602082019050818103600083015261131f81610fba565b9050919050565b6000602082019050818103600083015261133f81611020565b9050919050565b6000602082019050818103600083015261135f81611060565b9050919050565b6000602082019050818103600083015261137f816110a0565b9050919050565b6000602082019050818103600083015261139f81611106565b9050919050565b600060208201905081810360008301526113bf81611146565b9050919050565b600060208201905081810360008301526113df81611186565b9050919050565b60006020820190506113fb60008301846111c6565b92915050565b6000819050602082019050919050565b60008190508160005260206000209050919050565b600081519050919050565b600081549050919050565b6000602082019050919050565b6000600182019050919050565b600082825260208201905092915050565b600081905092915050565b600082825260208201905092915050565b600061148e826115cc565b9150611499836115cc565b9250827fffffffffffffffffffffffffffffffffffffffffffffffffffffffffffffffff038211156114ce576114cd611686565b5b828201905092915050565b60006114e4826115cc565b91506114ef836115cc565b9250817fffffffffffffffffffffffffffffffffffffffffffffffffffffffffffffffff048311821515161561152857611527611686565b5b828202905092915050565b600061153e826115cc565b9150611549836115cc565b92508282101561155c5761155b611686565b5b828203905092915050565b600073ffffffffffffffffffffffffffffffffffffffff82169050919050565b6000611592826115ac565b9050919050565b60008190506115a782611733565b919050565b600073ffffffffffffffffffffffffffffffffffffffff82169050919050565b6000819050919050565b60006115e182611599565b9050919050565b60006115fb6115f683611726565b611567565b9050919050565b600061160d826115cc565b91507fffffffffffffffffffffffffffffffffffffffffffffffffffffffffffffffff8214156116405761163f611686565b5b600182019050919050565b6000819050919050565b6000611660826115cc565b915061166b836115cc565b92508261167b5761167a6116b5565b5b828206905092915050565b7f4e487b7100000000000000000000000000000000000000000000000000000000600052601160045260246000fd5b7f4e487b7100000000000000000000000000000000000000000000000000000000600052601260045260246000fd5b7f4e487b7100000000000000000000000000000000000000000000000000000000600052602160045260246000fd5b600061171f82546115e8565b9050919050565b60008160001c9050919050565b60038110611744576117436116e4565b5b50565b611750816115cc565b811461175b57600080fd5b5056fea2646970667358221220be6e4f4aebd258a3a114f3cfcb8dc98f4625ca8e7df2fbc0dedd39f8938e930964736f6c63430008000033",
  "linkReferences": {},
  "deployedLinkReferences": {}
}