{
  "_format": "hh-sol-artifact-1",
  "contractName": "Lottery",
  "sourceName": "contracts/Lottery.sol",
  "abi": [
    {
      "inputs": [],
      "stateMutability": "nonpayable",
      "type": "constructor"
    },
    {
      "anonymous": false,
      "inputs": [
        {
          "indexed": false,
          "internalType": "address",
          "name": "winner",
          "type": "address"
        },
        {
          "indexed": false,
          "internalType": "uint256",
          "name": "winningPrice",
          "type": "uint256"
        }
      ],
      "name": "WinnerDeclared",
      "type": "event"
    },
    {
      "inputs": [],
      "name": "end",
      "outputs": [],
      "stateMutability": "nonpayable",
      "type": "function"
    },
    {
      "inputs": [],
      "name": "enter",
      "outputs": [],
      "stateMutability": "payable",
      "type": "function"
    },
    {
      "inputs": [],
      "name": "entryFee",
      "outputs": [
        {
          "internalType": "uint256",
          "name": "",
          "type": "uint256"
        }
      ],
      "stateMutability": "view",
      "type": "function"
    },
    {
      "inputs": [],
      "name": "getPlayers",
      "outputs": [
        {
          "internalType": "address[]",
          "name": "",
          "type": "address[]"
        }
      ],
      "stateMutability": "view",
      "type": "function"
    },
    {
      "inputs": [],
      "name": "getWinner",
      "outputs": [
        {
          "internalType": "address",
          "name": "",
          "type": "address"
        }
      ],
      "stateMutability": "view",
      "type": "function"
    },
    {
      "inputs": [],
      "name": "manager",
      "outputs": [
        {
          "internalType": "address",
          "name": "",
          "type": "address"
        }
      ],
      "stateMutability": "view",
      "type": "function"
    },
    {
      "inputs": [
        {
          "internalType": "uint256",
          "name": "",
          "type": "uint256"
        }
      ],
      "name": "players",
      "outputs": [
        {
          "internalType": "address",
          "name": "",
          "type": "address"
        }
      ],
      "stateMutability": "view",
      "type": "function"
    },
    {
      "inputs": [],
      "name": "start",
      "outputs": [],
      "stateMutability": "nonpayable",
      "type": "function"
    },
    {
      "inputs": [],
      "name": "status",
      "outputs": [
        {
          "internalType": "enum Lottery.LotteryStatus",
          "name": "",
          "type": "uint8"
        }
      ],
      "stateMutability": "view",
      "type": "function"
    },
    {
      "inputs": [],
      "name": "winningPrice",
      "outputs": [
        {
          "internalType": "uint256",
          "name": "",
          "type": "uint256"
        }
      ],
      "stateMutability": "view",
      "type": "function"
    }
  ],
  "bytecode": "0x608060405267016345785d8a00006002556000600560006101000a81548160ff0219169083600281111561005c577f4e487b7100000000000000000000000000000000000000000000000000000000600052602160045260246000fd5b021790555034801561006d57600080fd5b50336000806101000a81548173ffffffffffffffffffffffffffffffffffffffff021916908373ffffffffffffffffffffffffffffffffffffffff160217905550611338806100bd6000396000f3fe6080604052600436106100915760003560e01c8063be9a655511610059578063be9a65551461016d578063c1f5260414610184578063e97dcb62146101af578063efbe1c1c146101b9578063f71d96cb146101d057610091565b8063072ea61c14610096578063200d2ed2146100c1578063481c6a75146100ec5780638b5b9ccc146101175780638e7ea5b214610142575b600080fd5b3480156100a257600080fd5b506100ab61020d565b6040516100b8919061106e565b60405180910390f35b3480156100cd57600080fd5b506100d6610213565b6040516100e39190610f93565b60405180910390f35b3480156100f857600080fd5b50610101610226565b60405161010e9190610f2d565b60405180910390f35b34801561012357600080fd5b5061012c61024a565b6040516101399190610f71565b60405180910390f35b34801561014e57600080fd5b506101576102d8565b6040516101649190610f2d565b60405180910390f35b34801561017957600080fd5b50610182610302565b005b34801561019057600080fd5b506101996104a5565b6040516101a6919061106e565b60405180910390f35b6101b76104ad565b005b3480156101c557600080fd5b506101ce610662565b005b3480156101dc57600080fd5b506101f760048036038101906101f29190610baa565b6109a4565b6040516102049190610f2d565b60405180910390f35b60025481565b600560009054906101000a900460ff1681565b60008054906101000a900473ffffffffffffffffffffffffffffffffffffffff1681565b606060018054806020026020016040519081016040528092919081815260200182805480156102ce57602002820191906000526020600020905b8160009054906101000a900473ffffffffffffffffffffffffffffffffffffffff1673ffffffffffffffffffffffffffffffffffffffff1681526020019060010190808311610284575b5050505050905090565b6000600360009054906101000a900473ffffffffffffffffffffffffffffffffffffffff16905090565b60008054906101000a900473ffffffffffffffffffffffffffffffffffffffff1673ffffffffffffffffffffffffffffffffffffffff163373ffffffffffffffffffffffffffffffffffffffff1614610390576040517f08c379a00000000000000000000000000000000000000000000000000000000081526004016103879061102e565b60405180910390fd5b600060028111156103ca577f4e487b7100000000000000000000000000000000000000000000000000000000600052602160045260246000fd5b600560009054906101000a900460ff166002811115610412577f4e487b7100000000000000000000000000000000000000000000000000000000600052602160045260246000fd5b14610452576040517f08c379a00000000000000000000000000000000000000000000000000000000081526004016104499061104e565b60405180910390fd5b6001600560006101000a81548160ff0219169083600281111561049e577f4e487b7100000000000000000000000000000000000000000000000000000000600052602160045260246000fd5b0217905550565b600047905090565b6104b6336109e3565b156104f6576040517f08c379a00000000000000000000000000000000000000000000000000000000081526004016104ed90610fae565b60405180910390fd5b60025434101561053b576040517f08c379a000000000000000000000000000000000000000000000000000000000815260040161053290610fce565b60405180910390fd5b60016002811115610575577f4e487b7100000000000000000000000000000000000000000000000000000000600052602160045260246000fd5b600560009054906101000a900460ff1660028111156105bd577f4e487b7100000000000000000000000000000000000000000000000000000000600052602160045260246000fd5b146105fd576040517f08c379a00000000000000000000000000000000000000000000000000000000081526004016105f490610fee565b60405180910390fd5b6001339080600181540180825580915050600190039060005260206000200160009091909190916101000a81548173ffffffffffffffffffffffffffffffffffffffff021916908373ffffffffffffffffffffffffffffffffffffffff160217905550565b60008054906101000a900473ffffffffffffffffffffffffffffffffffffffff1673ffffffffffffffffffffffffffffffffffffffff163373ffffffffffffffffffffffffffffffffffffffff16146106f0576040517f08c379a00000000000000000000000000000000000000000000000000000000081526004016106e79061102e565b60405180910390fd5b6002600560006101000a81548160ff0219169083600281111561073c577f4e487b7100000000000000000000000000000000000000000000000000000000600052602160045260246000fd5b0217905550600060018054905011610789576040517f08c379a00000000000000000000000000000000000000000000000000000000081526004016107809061100e565b60405180910390fd5b6000600180549050610799610ab8565b6107a391906111f9565b9050600181815481106107df577f4e487b7100000000000000000000000000000000000000000000000000000000600052603260045260246000fd5b9060005260206000200160009054906101000a900473ffffffffffffffffffffffffffffffffffffffff16600360006101000a81548173ffffffffffffffffffffffffffffffffffffffff021916908373ffffffffffffffffffffffffffffffffffffffff16021790555060006108546104a5565b9050600360009054906101000a900473ffffffffffffffffffffffffffffffffffffffff1673ffffffffffffffffffffffffffffffffffffffff166108fc479081150290604051600060405180830381858888f193505050501580156108be573d6000803e3d6000fd5b50600067ffffffffffffffff811115610900577f4e487b7100000000000000000000000000000000000000000000000000000000600052604160045260246000fd5b60405190808252806020026020018201604052801561092e5781602001602082028036833780820191505090505b5060019080519060200190610944929190610aee565b507f3cf1af53e79884a92609ce59db1ec9f584d88e2d14c8eaba43a21db81318301e600360009054906101000a900473ffffffffffffffffffffffffffffffffffffffff1682604051610998929190610f48565b60405180910390a15050565b600181815481106109b457600080fd5b906000526020600020016000915054906101000a900473ffffffffffffffffffffffffffffffffffffffff1681565b600080600090505b600180549050811015610aad578273ffffffffffffffffffffffffffffffffffffffff1660018281548110610a49577f4e487b7100000000000000000000000000000000000000000000000000000000600052603260045260246000fd5b9060005260206000200160009054906101000a900473ffffffffffffffffffffffffffffffffffffffff1673ffffffffffffffffffffffffffffffffffffffff161415610a9a576001915050610ab3565b8080610aa5906111a6565b9150506109eb565b50600090505b919050565b600044426001604051602001610ad093929190610ef4565b6040516020818303038152906040528051906020012060001c905090565b828054828255906000526020600020908101928215610b67579160200282015b82811115610b665782518260006101000a81548173ffffffffffffffffffffffffffffffffffffffff021916908373ffffffffffffffffffffffffffffffffffffffff16021790555091602001919060010190610b0e565b5b509050610b749190610b78565b5090565b5b80821115610b91576000816000905550600101610b79565b5090565b600081359050610ba4816112eb565b92915050565b600060208284031215610bbc57600080fd5b6000610bca84828501610b95565b91505092915050565b6000610bdf8383610c03565b60208301905092915050565b6000610bf78383610c21565b60208301905092915050565b610c0c8161112b565b82525050565b610c1b8161112b565b82525050565b610c2a8161112b565b82525050565b6000610c3b826110ae565b610c4581856110de565b9350610c5083611089565b8060005b83811015610c81578151610c688882610bd3565b9750610c73836110c4565b925050600181019050610c54565b5085935050505092915050565b6000610c99826110b9565b610ca381856110ef565b9350610cae83611099565b8060005b83811015610ce657610cc3826112b7565b610ccd8882610beb565b9750610cd8836110d1565b925050600181019050610cb2565b5085935050505092915050565b610cfc8161117a565b82525050565b6000610d0f601d836110fa565b91507f596f752061726520616c72656164792061207061727469636970616e740000006000830152602082019050919050565b6000610d4f6020836110fa565b91507f456e74727920666565206973206c657373207468656e20302e312065746865726000830152602082019050919050565b6000610d8f6025836110fa565b91507f4c6f747465727920686173206e6f742073746172746564206f7220697473206560008301527f6e6465642e0000000000000000000000000000000000000000000000000000006020830152604082019050919050565b6000610df5600e836110fa565b91507f30207061727469636970616e74730000000000000000000000000000000000006000830152602082019050919050565b6000610e356017836110fa565b91507f596f7520617265206e6f7420746865206d616e616765720000000000000000006000830152602082019050919050565b6000610e75602a836110fa565b91507f4c6f74746572792068617320616c7265616479206265656e207374617274656460008301527f206f7220656e6465642e000000000000000000000000000000000000000000006020830152604082019050919050565b610ed781611170565b82525050565b610eee610ee982611170565b6111ef565b82525050565b6000610f008286610edd565b602082019150610f108285610edd565b602082019150610f208284610c8e565b9150819050949350505050565b6000602082019050610f426000830184610c12565b92915050565b6000604082019050610f5d6000830185610c12565b610f6a6020830184610ece565b9392505050565b60006020820190508181036000830152610f8b8184610c30565b905092915050565b6000602082019050610fa86000830184610cf3565b92915050565b60006020820190508181036000830152610fc781610d02565b9050919050565b60006020820190508181036000830152610fe781610d42565b9050919050565b6000602082019050818103600083015261100781610d82565b9050919050565b6000602082019050818103600083015261102781610de8565b9050919050565b6000602082019050818103600083015261104781610e28565b9050919050565b6000602082019050818103600083015261106781610e68565b9050919050565b60006020820190506110836000830184610ece565b92915050565b6000819050602082019050919050565b60008190508160005260206000209050919050565b600081519050919050565b600081549050919050565b6000602082019050919050565b6000600182019050919050565b600082825260208201905092915050565b600081905092915050565b600082825260208201905092915050565b600073ffffffffffffffffffffffffffffffffffffffff82169050919050565b600061113682611150565b9050919050565b600081905061114b826112d7565b919050565b600073ffffffffffffffffffffffffffffffffffffffff82169050919050565b6000819050919050565b60006111858261113d565b9050919050565b600061119f61119a836112ca565b61110b565b9050919050565b60006111b182611170565b91507fffffffffffffffffffffffffffffffffffffffffffffffffffffffffffffffff8214156111e4576111e361122a565b5b600182019050919050565b6000819050919050565b600061120482611170565b915061120f83611170565b92508261121f5761121e611259565b5b828206905092915050565b7f4e487b7100000000000000000000000000000000000000000000000000000000600052601160045260246000fd5b7f4e487b7100000000000000000000000000000000000000000000000000000000600052601260045260246000fd5b7f4e487b7100000000000000000000000000000000000000000000000000000000600052602160045260246000fd5b60006112c3825461118c565b9050919050565b60008160001c9050919050565b600381106112e8576112e7611288565b5b50565b6112f481611170565b81146112ff57600080fd5b5056fea264697066735822122005f3100abdf3b8c8fea2bb8b0b812fff270c4fe7588e9249cd16e55cffe7ee3764736f6c63430008000033",
  "linkReferences": {},
  "deployedLinkReferences": {}
}