{
  "_format": "hh-sol-artifact-1",
  "contractName": "Lottery",
  "sourceName": "contracts/Lottery.sol",
  "abi": [
    {
      "inputs": [],
      "stateMutability": "nonpayable",
      "type": "constructor"
    },
    {
      "anonymous": false,
      "inputs": [
        {
          "indexed": false,
          "internalType": "address",
          "name": "winner",
          "type": "address"
        },
        {
          "indexed": false,
          "internalType": "uint256",
          "name": "winningPrice",
          "type": "uint256"
        }
      ],
      "name": "WinnerDeclared",
      "type": "event"
    },
    {
      "inputs": [],
      "name": "end",
      "outputs": [],
      "stateMutability": "nonpayable",
      "type": "function"
    },
    {
      "inputs": [],
      "name": "enter",
      "outputs": [],
      "stateMutability": "payable",
      "type": "function"
    },
    {
      "inputs": [],
      "name": "entryFee",
      "outputs": [
        {
          "internalType": "uint256",
          "name": "",
          "type": "uint256"
        }
      ],
      "stateMutability": "view",
      "type": "function"
    },
    {
      "inputs": [],
      "name": "getPlayers",
      "outputs": [
        {
          "internalType": "address[]",
          "name": "",
          "type": "address[]"
        }
      ],
      "stateMutability": "view",
      "type": "function"
    },
    {
      "inputs": [],
      "name": "getRemainingTime",
      "outputs": [
        {
          "internalType": "uint256",
          "name": "",
          "type": "uint256"
        }
      ],
      "stateMutability": "view",
      "type": "function"
    },
    {
      "inputs": [],
      "name": "manager",
      "outputs": [
        {
          "internalType": "address",
          "name": "",
          "type": "address"
        }
      ],
      "stateMutability": "view",
      "type": "function"
    },
    {
      "inputs": [
        {
          "internalType": "uint256",
          "name": "",
          "type": "uint256"
        }
      ],
      "name": "players",
      "outputs": [
        {
          "internalType": "address",
          "name": "",
          "type": "address"
        }
      ],
      "stateMutability": "view",
      "type": "function"
    },
    {
      "inputs": [
        {
          "internalType": "uint256",
          "name": "_timeInMinutes",
          "type": "uint256"
        }
      ],
      "name": "start",
      "outputs": [],
      "stateMutability": "nonpayable",
      "type": "function"
    },
    {
      "inputs": [],
      "name": "status",
      "outputs": [
        {
          "internalType": "enum Lottery.LotteryStatus",
          "name": "",
          "type": "uint8"
        }
      ],
      "stateMutability": "view",
      "type": "function"
    },
    {
      "inputs": [],
      "name": "winningPrice",
      "outputs": [
        {
          "internalType": "uint256",
          "name": "",
          "type": "uint256"
        }
      ],
      "stateMutability": "view",
      "type": "function"
    }
  ],
  "bytecode": "0x608060405267016345785d8a00006002556000600560006101000a81548160ff0219169083600281111561005c577f4e487b7100000000000000000000000000000000000000000000000000000000600052602160045260246000fd5b021790555034801561006d57600080fd5b50336000806101000a81548173ffffffffffffffffffffffffffffffffffffffff021916908373ffffffffffffffffffffffffffffffffffffffff1602179055506117ba806100bd6000396000f3fe6080604052600436106100915760003560e01c8063c1f5260411610059578063c1f526041461016b578063e97dcb6214610196578063efb98bcf146101a0578063efbe1c1c146101cb578063f71d96cb146101e257610091565b8063072ea61c14610096578063200d2ed2146100c1578063481c6a75146100ec5780638b5b9ccc1461011757806395805dad14610142575b600080fd5b3480156100a257600080fd5b506100ab61021f565b6040516100b8919061140c565b60405180910390f35b3480156100cd57600080fd5b506100d6610225565b6040516100e391906112b1565b60405180910390f35b3480156100f857600080fd5b50610101610238565b60405161010e919061124b565b60405180910390f35b34801561012357600080fd5b5061012c61025c565b604051610139919061128f565b60405180910390f35b34801561014e57600080fd5b5061016960048036038101906101649190610d56565b6102ea565b005b34801561017757600080fd5b506101806104ac565b60405161018d919061140c565b60405180910390f35b61019e6104b4565b005b3480156101ac57600080fd5b506101b56106ae565b6040516101c2919061140c565b60405180910390f35b3480156101d757600080fd5b506101e06107c9565b005b3480156101ee57600080fd5b5061020960048036038101906102049190610d56565b610b50565b604051610216919061124b565b60405180910390f35b60025481565b600560009054906101000a900460ff1681565b60008054906101000a900473ffffffffffffffffffffffffffffffffffffffff1681565b606060018054806020026020016040519081016040528092919081815260200182805480156102e057602002820191906000526020600020905b8160009054906101000a900473ffffffffffffffffffffffffffffffffffffffff1673ffffffffffffffffffffffffffffffffffffffff1681526020019060010190808311610296575b5050505050905090565b60008054906101000a900473ffffffffffffffffffffffffffffffffffffffff1673ffffffffffffffffffffffffffffffffffffffff163373ffffffffffffffffffffffffffffffffffffffff1614610378576040517f08c379a000000000000000000000000000000000000000000000000000000000815260040161036f906113ec565b60405180910390fd5b600060028111156103b2577f4e487b7100000000000000000000000000000000000000000000000000000000600052602160045260246000fd5b600560009054906101000a900460ff1660028111156103fa577f4e487b7100000000000000000000000000000000000000000000000000000000600052602160045260246000fd5b1461043a576040517f08c379a0000000000000000000000000000000000000000000000000000000008152600401610431906112ec565b60405180910390fd5b6001600560006101000a81548160ff02191690836002811115610486577f4e487b7100000000000000000000000000000000000000000000000000000000600052602160045260246000fd5b0217905550603c8161049891906114ff565b426104a391906114a9565b60048190555050565b600047905090565b4260045410156104f9576040517f08c379a00000000000000000000000000000000000000000000000000000000081526004016104f09061130c565b60405180910390fd5b61050233610b8f565b15610542576040517f08c379a00000000000000000000000000000000000000000000000000000000081526004016105399061138c565b60405180910390fd5b600254341015610587576040517f08c379a000000000000000000000000000000000000000000000000000000000815260040161057e9061136c565b60405180910390fd5b600160028111156105c1577f4e487b7100000000000000000000000000000000000000000000000000000000600052602160045260246000fd5b600560009054906101000a900460ff166002811115610609577f4e487b7100000000000000000000000000000000000000000000000000000000600052602160045260246000fd5b14610649576040517f08c379a0000000000000000000000000000000000000000000000000000000008152600401610640906112cc565b60405180910390fd5b6001339080600181540180825580915050600190039060005260206000200160009091909190916101000a81548173ffffffffffffffffffffffffffffffffffffffff021916908373ffffffffffffffffffffffffffffffffffffffff160217905550565b600042600454116106f4576040517f08c379a00000000000000000000000000000000000000000000000000000000081526004016106eb9061132c565b60405180910390fd5b60028081111561072d577f4e487b7100000000000000000000000000000000000000000000000000000000600052602160045260246000fd5b600560009054906101000a900460ff166002811115610775577f4e487b7100000000000000000000000000000000000000000000000000000000600052602160045260246000fd5b14156107b6576040517f08c379a00000000000000000000000000000000000000000000000000000000081526004016107ad906113ac565b60405180910390fd5b426004546107c49190611559565b905090565b60008054906101000a900473ffffffffffffffffffffffffffffffffffffffff1673ffffffffffffffffffffffffffffffffffffffff163373ffffffffffffffffffffffffffffffffffffffff1614610857576040517f08c379a000000000000000000000000000000000000000000000000000000000815260040161084e906113ec565b60405180910390fd5b60045442101561089c576040517f08c379a00000000000000000000000000000000000000000000000000000000081526004016108939061134c565b60405180910390fd5b6002600560006101000a81548160ff021916908360028111156108e8577f4e487b7100000000000000000000000000000000000000000000000000000000600052602160045260246000fd5b0217905550600060018054905011610935576040517f08c379a000000000000000000000000000000000000000000000000000000000815260040161092c906113cc565b60405180910390fd5b6000600180549050610945610c64565b61094f919061167b565b90506001818154811061098b577f4e487b7100000000000000000000000000000000000000000000000000000000600052603260045260246000fd5b9060005260206000200160009054906101000a900473ffffffffffffffffffffffffffffffffffffffff16600360006101000a81548173ffffffffffffffffffffffffffffffffffffffff021916908373ffffffffffffffffffffffffffffffffffffffff1602179055506000610a006104ac565b9050600360009054906101000a900473ffffffffffffffffffffffffffffffffffffffff1673ffffffffffffffffffffffffffffffffffffffff166108fc479081150290604051600060405180830381858888f19350505050158015610a6a573d6000803e3d6000fd5b50600067ffffffffffffffff811115610aac577f4e487b7100000000000000000000000000000000000000000000000000000000600052604160045260246000fd5b604051908082528060200260200182016040528015610ada5781602001602082028036833780820191505090505b5060019080519060200190610af0929190610c9a565b507f3cf1af53e79884a92609ce59db1ec9f584d88e2d14c8eaba43a21db81318301e600360009054906101000a900473ffffffffffffffffffffffffffffffffffffffff1682604051610b44929190611266565b60405180910390a15050565b60018181548110610b6057600080fd5b906000526020600020016000915054906101000a900473ffffffffffffffffffffffffffffffffffffffff1681565b600080600090505b600180549050811015610c59578273ffffffffffffffffffffffffffffffffffffffff1660018281548110610bf5577f4e487b7100000000000000000000000000000000000000000000000000000000600052603260045260246000fd5b9060005260206000200160009054906101000a900473ffffffffffffffffffffffffffffffffffffffff1673ffffffffffffffffffffffffffffffffffffffff161415610c46576001915050610c5f565b8080610c5190611628565b915050610b97565b50600090505b919050565b600044426001604051602001610c7c93929190611212565b6040516020818303038152906040528051906020012060001c905090565b828054828255906000526020600020908101928215610d13579160200282015b82811115610d125782518260006101000a81548173ffffffffffffffffffffffffffffffffffffffff021916908373ffffffffffffffffffffffffffffffffffffffff16021790555091602001919060010190610cba565b5b509050610d209190610d24565b5090565b5b80821115610d3d576000816000905550600101610d25565b5090565b600081359050610d508161176d565b92915050565b600060208284031215610d6857600080fd5b6000610d7684828501610d41565b91505092915050565b6000610d8b8383610daf565b60208301905092915050565b6000610da38383610dcd565b60208301905092915050565b610db8816115ad565b82525050565b610dc7816115ad565b82525050565b610dd6816115ad565b82525050565b6000610de78261144c565b610df1818561147c565b9350610dfc83611427565b8060005b83811015610e2d578151610e148882610d7f565b9750610e1f83611462565b925050600181019050610e00565b5085935050505092915050565b6000610e4582611457565b610e4f818561148d565b9350610e5a83611437565b8060005b83811015610e9257610e6f82611739565b610e798882610d97565b9750610e848361146f565b925050600181019050610e5e565b5085935050505092915050565b610ea8816115fc565b82525050565b6000610ebb602583611498565b91507f6c6f747465727920686173206e6f742073746172746564206f7220697473206560008301527f6e6465642e0000000000000000000000000000000000000000000000000000006020830152604082019050919050565b6000610f21602a83611498565b91507f6c6f74746572792068617320616c7265616479206265656e207374617274656460008301527f206f7220656e6465642e000000000000000000000000000000000000000000006020830152604082019050919050565b6000610f87600b83611498565b91507f74696d652069732075702e0000000000000000000000000000000000000000006000830152602082019050919050565b6000610fc7603283611498565b91507f74696d6520697320616c7265616479207570206f72206c6f747465727920686160008301527f73206e6f742073746172746564207965742e00000000000000000000000000006020830152604082019050919050565b600061102d602483611498565b91507f796f752063616e206e6f7420656e64206c6f7474657279206265666f7265207460008301527f696d652e000000000000000000000000000000000000000000000000000000006020830152604082019050919050565b6000611093602083611498565b91507f656e74727920666565206973206c657373207468656e20302e312065746865726000830152602082019050919050565b60006110d3601d83611498565b91507f796f752061726520616c72656164792061207061727469636970616e740000006000830152602082019050919050565b6000611113602483611498565b91507f6c6f7474657279206973206e6f742073746172746564206f722069747320656e60008301527f6465642e000000000000000000000000000000000000000000000000000000006020830152604082019050919050565b6000611179600e83611498565b91507f30207061727469636970616e74730000000000000000000000000000000000006000830152602082019050919050565b60006111b9601783611498565b91507f796f7520617265206e6f7420746865206d616e616765720000000000000000006000830152602082019050919050565b6111f5816115f2565b82525050565b61120c611207826115f2565b611671565b82525050565b600061121e82866111fb565b60208201915061122e82856111fb565b60208201915061123e8284610e3a565b9150819050949350505050565b60006020820190506112606000830184610dbe565b92915050565b600060408201905061127b6000830185610dbe565b61128860208301846111ec565b9392505050565b600060208201905081810360008301526112a98184610ddc565b905092915050565b60006020820190506112c66000830184610e9f565b92915050565b600060208201905081810360008301526112e581610eae565b9050919050565b6000602082019050818103600083015261130581610f14565b9050919050565b6000602082019050818103600083015261132581610f7a565b9050919050565b6000602082019050818103600083015261134581610fba565b9050919050565b6000602082019050818103600083015261136581611020565b9050919050565b6000602082019050818103600083015261138581611086565b9050919050565b600060208201905081810360008301526113a5816110c6565b9050919050565b600060208201905081810360008301526113c581611106565b9050919050565b600060208201905081810360008301526113e58161116c565b9050919050565b60006020820190508181036000830152611405816111ac565b9050919050565b600060208201905061142160008301846111ec565b92915050565b6000819050602082019050919050565b60008190508160005260206000209050919050565b600081519050919050565b600081549050919050565b6000602082019050919050565b6000600182019050919050565b600082825260208201905092915050565b600081905092915050565b600082825260208201905092915050565b60006114b4826115f2565b91506114bf836115f2565b9250827fffffffffffffffffffffffffffffffffffffffffffffffffffffffffffffffff038211156114f4576114f36116ac565b5b828201905092915050565b600061150a826115f2565b9150611515836115f2565b9250817fffffffffffffffffffffffffffffffffffffffffffffffffffffffffffffffff048311821515161561154e5761154d6116ac565b5b828202905092915050565b6000611564826115f2565b915061156f836115f2565b925082821015611582576115816116ac565b5b828203905092915050565b600073ffffffffffffffffffffffffffffffffffffffff82169050919050565b60006115b8826115d2565b9050919050565b60008190506115cd82611759565b919050565b600073ffffffffffffffffffffffffffffffffffffffff82169050919050565b6000819050919050565b6000611607826115bf565b9050919050565b600061162161161c8361174c565b61158d565b9050919050565b6000611633826115f2565b91507fffffffffffffffffffffffffffffffffffffffffffffffffffffffffffffffff821415611666576116656116ac565b5b600182019050919050565b6000819050919050565b6000611686826115f2565b9150611691836115f2565b9250826116a1576116a06116db565b5b828206905092915050565b7f4e487b7100000000000000000000000000000000000000000000000000000000600052601160045260246000fd5b7f4e487b7100000000000000000000000000000000000000000000000000000000600052601260045260246000fd5b7f4e487b7100000000000000000000000000000000000000000000000000000000600052602160045260246000fd5b6000611745825461160e565b9050919050565b60008160001c9050919050565b6003811061176a5761176961170a565b5b50565b611776816115f2565b811461178157600080fd5b5056fea2646970667358221220dc5166936410f05c500f14a6add3a67744f2d6e5bebc3ef77466aa4472a2fdab64736f6c63430008000033",
  "linkReferences": {},
  "deployedLinkReferences": {}
}