{
  "_format": "hh-sol-artifact-1",
  "contractName": "Lottery",
  "sourceName": "contracts/Lottery.sol",
  "abi": [
    {
      "inputs": [
        {
          "internalType": "address",
          "name": "_manager",
          "type": "address"
        }
      ],
      "stateMutability": "nonpayable",
      "type": "constructor"
    },
    {
      "anonymous": false,
      "inputs": [
        {
          "indexed": false,
          "internalType": "uint256",
          "name": "amount",
          "type": "uint256"
        }
      ],
      "name": "CommissionWithdrawn",
      "type": "event"
    },
    {
      "anonymous": false,
      "inputs": [
        {
          "indexed": true,
          "internalType": "address",
          "name": "previousOwner",
          "type": "address"
        },
        {
          "indexed": true,
          "internalType": "address",
          "name": "newOwner",
          "type": "address"
        }
      ],
      "name": "OwnershipTransferred",
      "type": "event"
    },
    {
      "anonymous": false,
      "inputs": [
        {
          "indexed": false,
          "internalType": "address",
          "name": "winner",
          "type": "address"
        },
        {
          "indexed": false,
          "internalType": "uint256",
          "name": "winningPrize",
          "type": "uint256"
        }
      ],
      "name": "WinnerDeclared",
      "type": "event"
    },
    {
      "inputs": [
        {
          "internalType": "uint256",
          "name": "_newFee",
          "type": "uint256"
        }
      ],
      "name": "changeEntryFee",
      "outputs": [],
      "stateMutability": "nonpayable",
      "type": "function"
    },
    {
      "inputs": [],
      "name": "commissionBasisPoints",
      "outputs": [
        {
          "internalType": "uint256",
          "name": "",
          "type": "uint256"
        }
      ],
      "stateMutability": "view",
      "type": "function"
    },
    {
      "inputs": [],
      "name": "end",
      "outputs": [],
      "stateMutability": "nonpayable",
      "type": "function"
    },
    {
      "inputs": [],
      "name": "endTime",
      "outputs": [
        {
          "internalType": "uint256",
          "name": "",
          "type": "uint256"
        }
      ],
      "stateMutability": "view",
      "type": "function"
    },
    {
      "inputs": [],
      "name": "enter",
      "outputs": [],
      "stateMutability": "payable",
      "type": "function"
    },
    {
      "inputs": [],
      "name": "entryFee",
      "outputs": [
        {
          "internalType": "uint256",
          "name": "",
          "type": "uint256"
        }
      ],
      "stateMutability": "view",
      "type": "function"
    },
    {
      "inputs": [],
      "name": "getAllPlayers",
      "outputs": [
        {
          "internalType": "address[]",
          "name": "",
          "type": "address[]"
        }
      ],
      "stateMutability": "view",
      "type": "function"
    },
    {
      "inputs": [],
      "name": "getRemainingTime",
      "outputs": [
        {
          "internalType": "uint256",
          "name": "",
          "type": "uint256"
        }
      ],
      "stateMutability": "view",
      "type": "function"
    },
    {
      "inputs": [],
      "name": "lotteryStatus",
      "outputs": [
        {
          "internalType": "enum Lottery.LotteryStatus",
          "name": "",
          "type": "uint8"
        }
      ],
      "stateMutability": "view",
      "type": "function"
    },
    {
      "inputs": [],
      "name": "manager",
      "outputs": [
        {
          "internalType": "address",
          "name": "",
          "type": "address"
        }
      ],
      "stateMutability": "view",
      "type": "function"
    },
    {
      "inputs": [],
      "name": "owner",
      "outputs": [
        {
          "internalType": "address",
          "name": "",
          "type": "address"
        }
      ],
      "stateMutability": "view",
      "type": "function"
    },
    {
      "inputs": [
        {
          "internalType": "uint256",
          "name": "",
          "type": "uint256"
        }
      ],
      "name": "players",
      "outputs": [
        {
          "internalType": "address",
          "name": "",
          "type": "address"
        }
      ],
      "stateMutability": "view",
      "type": "function"
    },
    {
      "inputs": [],
      "name": "renounceOwnership",
      "outputs": [],
      "stateMutability": "nonpayable",
      "type": "function"
    },
    {
      "inputs": [
        {
          "internalType": "uint256",
          "name": "_basisPoints",
          "type": "uint256"
        }
      ],
      "name": "setCommissionBasisPoints",
      "outputs": [],
      "stateMutability": "nonpayable",
      "type": "function"
    },
    {
      "inputs": [
        {
          "internalType": "uint256",
          "name": "_timeInMinutes",
          "type": "uint256"
        }
      ],
      "name": "start",
      "outputs": [],
      "stateMutability": "nonpayable",
      "type": "function"
    },
    {
      "inputs": [
        {
          "internalType": "address",
          "name": "newOwner",
          "type": "address"
        }
      ],
      "name": "transferOwnership",
      "outputs": [],
      "stateMutability": "nonpayable",
      "type": "function"
    },
    {
      "inputs": [],
      "name": "winner",
      "outputs": [
        {
          "internalType": "address",
          "name": "",
          "type": "address"
        }
      ],
      "stateMutability": "view",
      "type": "function"
    },
    {
      "inputs": [],
      "name": "withdrawRemainingFunds",
      "outputs": [],
      "stateMutability": "nonpayable",
      "type": "function"
    }
  ],
  "bytecode": "0x608060405267016345785d8a00006002556101f460065534801561002257600080fd5b50604051611072380380611072833981016040819052610041916100ce565b61004a3361007e565b6007805460ff19166002179055600580546001600160a01b03929092166001600160a01b03199092169190911790556100fe565b600080546001600160a01b038381166001600160a01b0319831681178455604051919092169283917f8be0079c531659141344cd1fd0a4f28419497f9722a3daafe3b4186f6b6457e09190a35050565b6000602082840312156100e057600080fd5b81516001600160a01b03811681146100f757600080fd5b9392505050565b610f658061010d6000396000f3fe6080604052600436106101095760003560e01c8063e97dcb6211610095578063efbe1c1c11610064578063efbe1c1c1461028b578063f00f6921146102a0578063f2fde38b146102c0578063f71d96cb146102e0578063f7d978a21461030057600080fd5b8063e97dcb6214610237578063ef86ce8e1461023f578063efa1c48214610254578063efb98bcf1461027657600080fd5b8063715018a6116100dc578063715018a6146101ac57806389fdfd05146101c35780638da5cb5b146101d957806395805dad146101f7578063dfbf53ae1461021757600080fd5b8063072ea61c1461010e5780630d683dd9146101375780633197cbb61461015e578063481c6a7514610174575b600080fd5b34801561011a57600080fd5b5061012460025481565b6040519081526020015b60405180910390f35b34801561014357600080fd5b506007546101519060ff1681565b60405161012e9190610cf4565b34801561016a57600080fd5b5061012460045481565b34801561018057600080fd5b50600554610194906001600160a01b031681565b6040516001600160a01b03909116815260200161012e565b3480156101b857600080fd5b506101c1610320565b005b3480156101cf57600080fd5b5061012460065481565b3480156101e557600080fd5b506000546001600160a01b0316610194565b34801561020357600080fd5b506101c1610212366004610d1c565b610334565b34801561022357600080fd5b50600354610194906001600160a01b031681565b6101c1610401565b34801561024b57600080fd5b506101c161057b565b34801561026057600080fd5b50610269610646565b60405161012e9190610d35565b34801561028257600080fd5b50610124610713565b34801561029757600080fd5b506101c161075c565b3480156102ac57600080fd5b506101c16102bb366004610d1c565b6109fb565b3480156102cc57600080fd5b506101c16102db366004610d82565b610a6d565b3480156102ec57600080fd5b506101946102fb366004610d1c565b610ae6565b34801561030c57600080fd5b506101c161031b366004610d1c565b610b10565b610328610b6d565b6103326000610bc7565b565b61033c610b6d565b60028060075460ff16600281111561035657610356610cde565b1461037c5760405162461bcd60e51b815260040161037390610dab565b60405180910390fd5b600082116103d85760405162461bcd60e51b8152602060048201526024808201527f54696d65206475726174696f6e206d75737420626520677265617465722074686044820152630616e20360e41b6064820152608401610373565b6007805460ff191660011790556103fa6103f383603c610c17565b4290610c2a565b6004555050565b600160075460ff16600281111561041a5761041a610cde565b1461045d5760405162461bcd60e51b8152602060048201526013602482015272131bdd1d195c9e481b9bdd081cdd185c9d1959606a1b6044820152606401610373565b6002543410156104a35760405162461bcd60e51b8152602060048201526011602482015270456e74727920666565206973206c65737360781b6044820152606401610373565b42600454116104e25760405162461bcd60e51b815260206004820152600b60248201526a2a34b6b29034b9903ab81760a91b6044820152606401610373565b6104eb33610c36565b156105385760405162461bcd60e51b815260206004820152601d60248201527f596f752061726520616c72656164792061207061727469636970616e740000006044820152606401610373565b6001805480820182556000919091527fb10e2d527612073b26eecdfd717e6a320cf44b4afac2b0732d9fcbe2b7fa0cf60180546001600160a01b03191633179055565b610583610b6d565b60028060075460ff16600281111561059d5761059d610cde565b146105ba5760405162461bcd60e51b815260040161037390610dab565b47806106085760405162461bcd60e51b815260206004820152601e60248201527f4e6f2072656d61696e696e672066756e647320746f20776974686472617700006044820152606401610373565b600080546040516001600160a01b039091169183156108fc02918491818181858888f19350505050158015610641573d6000803e3d6000fd5b505050565b60015460609060009067ffffffffffffffff81111561066757610667610ddb565b604051908082528060200260200182016040528015610690578160200160208202803683370190505b50905060005b60015481101561070d57600181815481106106b3576106b3610df1565b9060005260206000200160009054906101000a90046001600160a01b03168282815181106106e3576106e3610df1565b6001600160a01b03909216602092830291909101909101528061070581610e1d565b915050610696565b50919050565b6000600160075460ff16600281111561072e5761072e610cde565b14156107565742600454116107435750600090565b426004546107519190610e38565b905090565b50600090565b610764610b6d565b60018060075460ff16600281111561077e5761077e610cde565b1461079b5760405162461bcd60e51b815260040161037390610dab565b4260045411156108005760405162461bcd60e51b815260206004820152602a60248201527f596f752063616e6e6f7420656e6420746865206c6f7474657279206265666f7260448201526965207468652074696d6560b01b6064820152608401610373565b6001546108415760405162461bcd60e51b815260206004820152600f60248201526e4e6f207061727469636970616e747360881b6044820152606401610373565b6007805460ff191660021790556001805460405160009261086a91449142913390602001610e4f565b6040516020818303038152906040528051906020012060001c61088d9190610ed0565b9050600181815481106108a2576108a2610df1565b6000918252602082200154600380546001600160a01b0319166001600160a01b039092169190911790556006544791906108eb90612710906108e5908590610c17565b90610ca0565b905060006108f98284610e38565b6003546040519192506001600160a01b03169082156108fc029083906000818181858888f19350505050158015610934573d6000803e3d6000fd5b5061094160016000610cac565b600354604080516001600160a01b039092168252602082018390527f3cf1af53e79884a92609ce59db1ec9f584d88e2d14c8eaba43a21db81318301e910160405180910390a16040518281527fc2bb3206848157e57e737eec7e141f06f5de585e2f1c0f0ec60a04f45a2c00319060200160405180910390a1600080546040516001600160a01b039091169184156108fc02918591818181858888f193505050501580156109f3573d6000803e3d6000fd5b505050505050565b610a03610b6d565b612710811115610a685760405162461bcd60e51b815260206004820152602a60248201527f436f6d6d697373696f6e20626173697320706f696e74732063616e6e6f7420656044820152697863656564203130302560b01b6064820152608401610373565b600655565b610a75610b6d565b6001600160a01b038116610ada5760405162461bcd60e51b815260206004820152602660248201527f4f776e61626c653a206e6577206f776e657220697320746865207a65726f206160448201526564647265737360d01b6064820152608401610373565b610ae381610bc7565b50565b60018181548110610af657600080fd5b6000918252602090912001546001600160a01b0316905081565b610b18610b6d565b60008111610b685760405162461bcd60e51b815260206004820181905260248201527f456e74727920666565206d7573742062652067726561746572207468616e20306044820152606401610373565b600255565b6000546001600160a01b031633146103325760405162461bcd60e51b815260206004820181905260248201527f4f776e61626c653a2063616c6c6572206973206e6f7420746865206f776e65726044820152606401610373565b600080546001600160a01b038381166001600160a01b0319831681178455604051919092169283917f8be0079c531659141344cd1fd0a4f28419497f9722a3daafe3b4186f6b6457e09190a35050565b6000610c238284610ee4565b9392505050565b6000610c238284610f03565b6000805b600154811015610c9757826001600160a01b031660018281548110610c6157610c61610df1565b6000918252602090912001546001600160a01b03161415610c855750600192915050565b80610c8f81610e1d565b915050610c3a565b50600092915050565b6000610c238284610f1b565b5080546000825590600052602060002090810190610ae391905b80821115610cda5760008155600101610cc6565b5090565b634e487b7160e01b600052602160045260246000fd5b6020810160038310610d1657634e487b7160e01b600052602160045260246000fd5b91905290565b600060208284031215610d2e57600080fd5b5035919050565b6020808252825182820181905260009190848201906040850190845b81811015610d765783516001600160a01b031683529284019291840191600101610d51565b50909695505050505050565b600060208284031215610d9457600080fd5b81356001600160a01b0381168114610c2357600080fd5b602080825260169082015275496e76616c6964206c6f74746572792073746174757360501b604082015260600190565b634e487b7160e01b600052604160045260246000fd5b634e487b7160e01b600052603260045260246000fd5b634e487b7160e01b600052601160045260246000fd5b6000600019821415610e3157610e31610e07565b5060010190565b600082821015610e4a57610e4a610e07565b500390565b848152600060208581840152604083018554866000528260002060005b82811015610e915781546001600160a01b031684529284019260019182019101610e6c565b50505060609490941b6bffffffffffffffffffffffff1916845250506014909101949350505050565b634e487b7160e01b600052601260045260246000fd5b600082610edf57610edf610eba565b500690565b6000816000190483118215151615610efe57610efe610e07565b500290565b60008219821115610f1657610f16610e07565b500190565b600082610f2a57610f2a610eba565b50049056fea264697066735822122094db6d466fdc42fceabff6b12f8190ed7f0a9bf6bcf4c6df5da8bf901b97ccd164736f6c634300080a0033",
  "linkReferences": {},
  "deployedLinkReferences": {}
}