{
  "_format": "hh-sol-artifact-1",
  "contractName": "LotteryPool",
  "sourceName": "contracts/LotteryPool.sol",
  "abi": [
    {
      "inputs": [],
      "stateMutability": "nonpayable",
      "type": "constructor"
    },
    {
      "anonymous": false,
      "inputs": [
        {
          "indexed": true,
          "internalType": "address",
          "name": "lotteryAddress",
          "type": "address"
        },
        {
          "indexed": true,
          "internalType": "address",
          "name": "manager",
          "type": "address"
        },
        {
          "indexed": false,
          "internalType": "uint256",
          "name": "endTime",
          "type": "uint256"
        }
      ],
      "name": "LotteryCreated",
      "type": "event"
    },
    {
      "stateMutability": "nonpayable",
      "type": "fallback"
    },
    {
      "inputs": [
        {
          "internalType": "address",
          "name": "_newOwner",
          "type": "address"
        }
      ],
      "name": "changeOwner",
      "outputs": [],
      "stateMutability": "nonpayable",
      "type": "function"
    },
    {
      "inputs": [
        {
          "internalType": "uint256",
          "name": "_timeInMinutes",
          "type": "uint256"
        }
      ],
      "name": "createLottery",
      "outputs": [],
      "stateMutability": "nonpayable",
      "type": "function"
    },
    {
      "inputs": [],
      "name": "getLotteries",
      "outputs": [
        {
          "internalType": "address[]",
          "name": "",
          "type": "address[]"
        }
      ],
      "stateMutability": "view",
      "type": "function"
    },
    {
      "inputs": [
        {
          "internalType": "address",
          "name": "_lotteryAddress",
          "type": "address"
        }
      ],
      "name": "getLotteryContractDetails",
      "outputs": [
        {
          "components": [
            {
              "internalType": "contract Lottery",
              "name": "lotteryContract",
              "type": "address"
            },
            {
              "internalType": "address",
              "name": "manager",
              "type": "address"
            },
            {
              "internalType": "uint256",
              "name": "endTime",
              "type": "uint256"
            },
            {
              "internalType": "uint256",
              "name": "totalPlayers",
              "type": "uint256"
            }
          ],
          "internalType": "struct LotteryPool.LotteryInfo",
          "name": "",
          "type": "tuple"
        }
      ],
      "stateMutability": "view",
      "type": "function"
    },
    {
      "inputs": [],
      "name": "getLotteryContractsCount",
      "outputs": [
        {
          "internalType": "uint256",
          "name": "",
          "type": "uint256"
        }
      ],
      "stateMutability": "view",
      "type": "function"
    },
    {
      "inputs": [],
      "name": "getLotteryContractsDetails",
      "outputs": [
        {
          "components": [
            {
              "internalType": "contract Lottery",
              "name": "lotteryContract",
              "type": "address"
            },
            {
              "internalType": "address",
              "name": "manager",
              "type": "address"
            },
            {
              "internalType": "uint256",
              "name": "endTime",
              "type": "uint256"
            },
            {
              "internalType": "uint256",
              "name": "totalPlayers",
              "type": "uint256"
            }
          ],
          "internalType": "struct LotteryPool.LotteryInfo[]",
          "name": "",
          "type": "tuple[]"
        }
      ],
      "stateMutability": "view",
      "type": "function"
    },
    {
      "inputs": [
        {
          "internalType": "uint256",
          "name": "",
          "type": "uint256"
        }
      ],
      "name": "lotteriesContractsAddresses",
      "outputs": [
        {
          "internalType": "address",
          "name": "",
          "type": "address"
        }
      ],
      "stateMutability": "view",
      "type": "function"
    },
    {
      "inputs": [
        {
          "internalType": "address",
          "name": "",
          "type": "address"
        }
      ],
      "name": "lotteriesMapping",
      "outputs": [
        {
          "internalType": "contract Lottery",
          "name": "lotteryContract",
          "type": "address"
        },
        {
          "internalType": "address",
          "name": "manager",
          "type": "address"
        },
        {
          "internalType": "uint256",
          "name": "endTime",
          "type": "uint256"
        },
        {
          "internalType": "uint256",
          "name": "totalPlayers",
          "type": "uint256"
        }
      ],
      "stateMutability": "view",
      "type": "function"
    },
    {
      "inputs": [],
      "name": "owner",
      "outputs": [
        {
          "internalType": "address",
          "name": "",
          "type": "address"
        }
      ],
      "stateMutability": "view",
      "type": "function"
    },
    {
      "inputs": [
        {
          "internalType": "address",
          "name": "_lotteryAddress",
          "type": "address"
        }
      ],
      "name": "withdrawRemainingFunds",
      "outputs": [],
      "stateMutability": "nonpayable",
      "type": "function"
    },
    {
      "stateMutability": "payable",
      "type": "receive"
    }
  ],
  "bytecode": "0x608060405234801561001057600080fd5b506001600055600380546001600160a01b03191633179055611ca7806100376000396000f3fe6080604052600436106100955760003560e01c806398d5abbb1161005957806398d5abbb14610219578063a1bbfcee14610237578063a6f9dae114610257578063b3b5a9c914610277578063bcc82ec4146102975761009c565b8063296df292146100eb578063386021b51461012157806359d23279146101435780638da5cb5b146101bf5780638dd8c56d146101f75761009c565b3661009c57005b3480156100a857600080fd5b5060405162461bcd60e51b8152602060048201526012602482015271115d1a195c881b9bdd081858d8d95c1d195960721b60448201526064015b60405180910390fd5b3480156100f757600080fd5b5061010b6101063660046109e8565b6102b9565b6040516101189190610a18565b60405180910390f35b34801561012d57600080fd5b50610136610312565b6040516101189190610a51565b34801561014f57600080fd5b5061019461015e3660046109e8565b600160208190526000918252604090912080549181015460028201546003909201546001600160a01b0393841693909116919084565b604080516001600160a01b039586168152949093166020850152918301526060820152608001610118565b3480156101cb57600080fd5b506003546101df906001600160a01b031681565b6040516001600160a01b039091168152602001610118565b34801561020357600080fd5b50610217610212366004610acb565b610426565b005b34801561022557600080fd5b50600254604051908152602001610118565b34801561024357600080fd5b506101df610252366004610acb565b610656565b34801561026357600080fd5b506102176102723660046109e8565b610680565b34801561028357600080fd5b506102176102923660046109e8565b610722565b3480156102a357600080fd5b506102ac6108c4565b6040516101189190610ae4565b6102c16109a1565b506001600160a01b0390811660009081526001602081815260409283902083516080810185528154861681529281015490941690820152600283015491810191909152600390910154606082015290565b60025460609060009067ffffffffffffffff81111561033357610333610b25565b60405190808252806020026020018201604052801561036c57816020015b6103596109a1565b8152602001906001900390816103515790505b50905060005b6002548110156104205760006002828154811061039157610391610b3b565b60009182526020808320909101546001600160a01b0390811680845260018084526040948590208551608081018752815485168152918101549093169381019390935260028201549383019390935260030154606082015284519192509084908490811061040157610401610b3b565b602002602001018190525050808061041890610b67565b915050610372565b50919050565b6003546001600160a01b031633146104505760405162461bcd60e51b81526004016100e290610b82565b610458610926565b600081116104a85760405162461bcd60e51b815260206004820152601f60248201527f4475726174696f6e206d7573742062652067726561746572207468616e20300060448201526064016100e2565b6000336040516104b7906109db565b6001600160a01b039091168152602001604051809103906000f0801580156104e3573d6000803e3d6000fd5b506040516395805dad60e01b8152600481018490529091506001600160a01b038216906395805dad90602401600060405180830381600087803b15801561052957600080fd5b505af115801561053d573d6000803e3d6000fd5b50505050600061056161055a603c8561098090919063ffffffff16565b4290610995565b604080516080810182526001600160a01b0385811680835233602080850182815285870188815260006060880181815286825260018086528a832099518a54908a166001600160a01b0319918216178b5594518a8201805491909a169086161790985591516002808a01919091559151600390980197909755805495860181559095527f405787fa12a823e0f2b7631cc41b3ba8828b3321ca811111fa75cd3aa3bb5ace90930180549094168217909355925184815293945090927fadb31808e993e3fdb94e6cb53cd5613030fbcaf5d5491b9a181a3d495995135b910160405180910390a350506106536001600055565b50565b6002818154811061066657600080fd5b6000918252602090912001546001600160a01b0316905081565b6003546001600160a01b031633146106aa5760405162461bcd60e51b81526004016100e290610b82565b6001600160a01b0381166107005760405162461bcd60e51b815260206004820152601960248201527f496e76616c6964206e6577206f776e657220616464726573730000000000000060448201526064016100e2565b600380546001600160a01b0319166001600160a01b0392909216919091179055565b6003546001600160a01b0316331461074c5760405162461bcd60e51b81526004016100e290610b82565b610754610926565b6001600160a01b0381166107aa5760405162461bcd60e51b815260206004820152601760248201527f496e76616c6964206c6f7474657279206164647265737300000000000000000060448201526064016100e2565b6001600160a01b038116600090815260016020526040902060028101544210156108165760405162461bcd60e51b815260206004820152601960248201527f4c6f747465727920686173206e6f7420656e646564207965740000000000000060448201526064016100e2565b600081600301541161085c5760405162461bcd60e51b815260206004820152600f60248201526e4e6f207061727469636970616e747360881b60448201526064016100e2565b8054604080516377c3674760e11b815290516001600160a01b039092169163ef86ce8e9160048082019260009290919082900301818387803b1580156108a157600080fd5b505af11580156108b5573d6000803e3d6000fd5b50505050506106536001600055565b6060600280548060200260200160405190810160405280929190818152602001828054801561091c57602002820191906000526020600020905b81546001600160a01b031681526001909101906020018083116108fe575b5050505050905090565b600260005414156109795760405162461bcd60e51b815260206004820152601f60248201527f5265656e7472616e637947756172643a207265656e7472616e742063616c6c0060448201526064016100e2565b6002600055565b600061098c8284610bc8565b90505b92915050565b600061098c8284610be7565b604051806080016040528060006001600160a01b0316815260200160006001600160a01b0316815260200160008152602001600081525090565b61107280610c0083390190565b6000602082840312156109fa57600080fd5b81356001600160a01b0381168114610a1157600080fd5b9392505050565b81516001600160a01b0390811682526020808401519091169082015260408083015190820152606080830151908201526080810161098f565b6020808252825182820181905260009190848201906040850190845b81811015610abf57610aac83855180516001600160a01b0390811683526020808301519091169083015260408082015190830152606090810151910152565b9284019260809290920191600101610a6d565b50909695505050505050565b600060208284031215610add57600080fd5b5035919050565b6020808252825182820181905260009190848201906040850190845b81811015610abf5783516001600160a01b031683529284019291840191600101610b00565b634e487b7160e01b600052604160045260246000fd5b634e487b7160e01b600052603260045260246000fd5b634e487b7160e01b600052601160045260246000fd5b6000600019821415610b7b57610b7b610b51565b5060010190565b60208082526026908201527f4f6e6c7920746865206f776e65722063616e20706572666f726d20746869732060408201526530b1ba34b7b760d11b606082015260800190565b6000816000190483118215151615610be257610be2610b51565b500290565b60008219821115610bfa57610bfa610b51565b50019056fe608060405267016345785d8a00006002556101f460065534801561002257600080fd5b50604051611072380380611072833981016040819052610041916100ce565b61004a3361007e565b6007805460ff19166002179055600580546001600160a01b03929092166001600160a01b03199092169190911790556100fe565b600080546001600160a01b038381166001600160a01b0319831681178455604051919092169283917f8be0079c531659141344cd1fd0a4f28419497f9722a3daafe3b4186f6b6457e09190a35050565b6000602082840312156100e057600080fd5b81516001600160a01b03811681146100f757600080fd5b9392505050565b610f658061010d6000396000f3fe6080604052600436106101095760003560e01c8063e97dcb6211610095578063efbe1c1c11610064578063efbe1c1c1461028b578063f00f6921146102a0578063f2fde38b146102c0578063f71d96cb146102e0578063f7d978a21461030057600080fd5b8063e97dcb6214610237578063ef86ce8e1461023f578063efa1c48214610254578063efb98bcf1461027657600080fd5b8063715018a6116100dc578063715018a6146101ac57806389fdfd05146101c35780638da5cb5b146101d957806395805dad146101f7578063dfbf53ae1461021757600080fd5b8063072ea61c1461010e5780630d683dd9146101375780633197cbb61461015e578063481c6a7514610174575b600080fd5b34801561011a57600080fd5b5061012460025481565b6040519081526020015b60405180910390f35b34801561014357600080fd5b506007546101519060ff1681565b60405161012e9190610cf4565b34801561016a57600080fd5b5061012460045481565b34801561018057600080fd5b50600554610194906001600160a01b031681565b6040516001600160a01b03909116815260200161012e565b3480156101b857600080fd5b506101c1610320565b005b3480156101cf57600080fd5b5061012460065481565b3480156101e557600080fd5b506000546001600160a01b0316610194565b34801561020357600080fd5b506101c1610212366004610d1c565b610334565b34801561022357600080fd5b50600354610194906001600160a01b031681565b6101c1610401565b34801561024b57600080fd5b506101c161057b565b34801561026057600080fd5b50610269610646565b60405161012e9190610d35565b34801561028257600080fd5b50610124610713565b34801561029757600080fd5b506101c161075c565b3480156102ac57600080fd5b506101c16102bb366004610d1c565b6109fb565b3480156102cc57600080fd5b506101c16102db366004610d82565b610a6d565b3480156102ec57600080fd5b506101946102fb366004610d1c565b610ae6565b34801561030c57600080fd5b506101c161031b366004610d1c565b610b10565b610328610b6d565b6103326000610bc7565b565b61033c610b6d565b60028060075460ff16600281111561035657610356610cde565b1461037c5760405162461bcd60e51b815260040161037390610dab565b60405180910390fd5b600082116103d85760405162461bcd60e51b8152602060048201526024808201527f54696d65206475726174696f6e206d75737420626520677265617465722074686044820152630616e20360e41b6064820152608401610373565b6007805460ff191660011790556103fa6103f383603c610c17565b4290610c2a565b6004555050565b600160075460ff16600281111561041a5761041a610cde565b1461045d5760405162461bcd60e51b8152602060048201526013602482015272131bdd1d195c9e481b9bdd081cdd185c9d1959606a1b6044820152606401610373565b6002543410156104a35760405162461bcd60e51b8152602060048201526011602482015270456e74727920666565206973206c65737360781b6044820152606401610373565b42600454116104e25760405162461bcd60e51b815260206004820152600b60248201526a2a34b6b29034b9903ab81760a91b6044820152606401610373565b6104eb33610c36565b156105385760405162461bcd60e51b815260206004820152601d60248201527f596f752061726520616c72656164792061207061727469636970616e740000006044820152606401610373565b6001805480820182556000919091527fb10e2d527612073b26eecdfd717e6a320cf44b4afac2b0732d9fcbe2b7fa0cf60180546001600160a01b03191633179055565b610583610b6d565b60028060075460ff16600281111561059d5761059d610cde565b146105ba5760405162461bcd60e51b815260040161037390610dab565b47806106085760405162461bcd60e51b815260206004820152601e60248201527f4e6f2072656d61696e696e672066756e647320746f20776974686472617700006044820152606401610373565b600080546040516001600160a01b039091169183156108fc02918491818181858888f19350505050158015610641573d6000803e3d6000fd5b505050565b60015460609060009067ffffffffffffffff81111561066757610667610ddb565b604051908082528060200260200182016040528015610690578160200160208202803683370190505b50905060005b60015481101561070d57600181815481106106b3576106b3610df1565b9060005260206000200160009054906101000a90046001600160a01b03168282815181106106e3576106e3610df1565b6001600160a01b03909216602092830291909101909101528061070581610e1d565b915050610696565b50919050565b6000600160075460ff16600281111561072e5761072e610cde565b14156107565742600454116107435750600090565b426004546107519190610e38565b905090565b50600090565b610764610b6d565b60018060075460ff16600281111561077e5761077e610cde565b1461079b5760405162461bcd60e51b815260040161037390610dab565b4260045411156108005760405162461bcd60e51b815260206004820152602a60248201527f596f752063616e6e6f7420656e6420746865206c6f7474657279206265666f7260448201526965207468652074696d6560b01b6064820152608401610373565b6001546108415760405162461bcd60e51b815260206004820152600f60248201526e4e6f207061727469636970616e747360881b6044820152606401610373565b6007805460ff191660021790556001805460405160009261086a91449142913390602001610e4f565b6040516020818303038152906040528051906020012060001c61088d9190610ed0565b9050600181815481106108a2576108a2610df1565b6000918252602082200154600380546001600160a01b0319166001600160a01b039092169190911790556006544791906108eb90612710906108e5908590610c17565b90610ca0565b905060006108f98284610e38565b6003546040519192506001600160a01b03169082156108fc029083906000818181858888f19350505050158015610934573d6000803e3d6000fd5b5061094160016000610cac565b600354604080516001600160a01b039092168252602082018390527f3cf1af53e79884a92609ce59db1ec9f584d88e2d14c8eaba43a21db81318301e910160405180910390a16040518281527fc2bb3206848157e57e737eec7e141f06f5de585e2f1c0f0ec60a04f45a2c00319060200160405180910390a1600080546040516001600160a01b039091169184156108fc02918591818181858888f193505050501580156109f3573d6000803e3d6000fd5b505050505050565b610a03610b6d565b612710811115610a685760405162461bcd60e51b815260206004820152602a60248201527f436f6d6d697373696f6e20626173697320706f696e74732063616e6e6f7420656044820152697863656564203130302560b01b6064820152608401610373565b600655565b610a75610b6d565b6001600160a01b038116610ada5760405162461bcd60e51b815260206004820152602660248201527f4f776e61626c653a206e6577206f776e657220697320746865207a65726f206160448201526564647265737360d01b6064820152608401610373565b610ae381610bc7565b50565b60018181548110610af657600080fd5b6000918252602090912001546001600160a01b0316905081565b610b18610b6d565b60008111610b685760405162461bcd60e51b815260206004820181905260248201527f456e74727920666565206d7573742062652067726561746572207468616e20306044820152606401610373565b600255565b6000546001600160a01b031633146103325760405162461bcd60e51b815260206004820181905260248201527f4f776e61626c653a2063616c6c6572206973206e6f7420746865206f776e65726044820152606401610373565b600080546001600160a01b038381166001600160a01b0319831681178455604051919092169283917f8be0079c531659141344cd1fd0a4f28419497f9722a3daafe3b4186f6b6457e09190a35050565b6000610c238284610ee4565b9392505050565b6000610c238284610f03565b6000805b600154811015610c9757826001600160a01b031660018281548110610c6157610c61610df1565b6000918252602090912001546001600160a01b03161415610c855750600192915050565b80610c8f81610e1d565b915050610c3a565b50600092915050565b6000610c238284610f1b565b5080546000825590600052602060002090810190610ae391905b80821115610cda5760008155600101610cc6565b5090565b634e487b7160e01b600052602160045260246000fd5b6020810160038310610d1657634e487b7160e01b600052602160045260246000fd5b91905290565b600060208284031215610d2e57600080fd5b5035919050565b6020808252825182820181905260009190848201906040850190845b81811015610d765783516001600160a01b031683529284019291840191600101610d51565b50909695505050505050565b600060208284031215610d9457600080fd5b81356001600160a01b0381168114610c2357600080fd5b602080825260169082015275496e76616c6964206c6f74746572792073746174757360501b604082015260600190565b634e487b7160e01b600052604160045260246000fd5b634e487b7160e01b600052603260045260246000fd5b634e487b7160e01b600052601160045260246000fd5b6000600019821415610e3157610e31610e07565b5060010190565b600082821015610e4a57610e4a610e07565b500390565b848152600060208581840152604083018554866000528260002060005b82811015610e915781546001600160a01b031684529284019260019182019101610e6c565b50505060609490941b6bffffffffffffffffffffffff1916845250506014909101949350505050565b634e487b7160e01b600052601260045260246000fd5b600082610edf57610edf610eba565b500690565b6000816000190483118215151615610efe57610efe610e07565b500290565b60008219821115610f1657610f16610e07565b500190565b600082610f2a57610f2a610eba565b50049056fea264697066735822122094db6d466fdc42fceabff6b12f8190ed7f0a9bf6bcf4c6df5da8bf901b97ccd164736f6c634300080a0033a26469706673582212202031fa9978509eeffde5d56902c9818ed28870ffe6f5520818c7ba9fc0825b3964736f6c634300080a0033",
  "linkReferences": {},
  "deployedLinkReferences": {}
}